{
  "_format": "hh-sol-artifact-1",
  "contractName": "AlmaMarketplace",
  "sourceName": "contracts/marketplace/AlmaMarketplace.sol",
  "abi": [
    {
      "inputs": [
        {
          "internalType": "address",
          "name": "trustedForwarder",
          "type": "address"
        }
      ],
      "stateMutability": "nonpayable",
      "type": "constructor"
    },
    {
      "inputs": [],
      "name": "AccessControlBadConfirmation",
      "type": "error"
    },
    {
      "inputs": [
        {
          "internalType": "address",
          "name": "account",
          "type": "address"
        },
        {
          "internalType": "bytes32",
          "name": "neededRole",
          "type": "bytes32"
        }
      ],
      "name": "AccessControlUnauthorizedAccount",
      "type": "error"
    },
    {
      "inputs": [
        {
          "internalType": "address",
          "name": "target",
          "type": "address"
        }
      ],
      "name": "AddressEmptyCode",
      "type": "error"
    },
    {
      "inputs": [],
      "name": "AuctionAlreadyEnded",
      "type": "error"
    },
    {
      "inputs": [],
      "name": "AuctionNotEnded",
      "type": "error"
    },
    {
      "inputs": [],
      "name": "BidTooLow",
      "type": "error"
    },
    {
      "inputs": [
        {
          "internalType": "address",
          "name": "implementation",
          "type": "address"
        }
      ],
      "name": "ERC1967InvalidImplementation",
      "type": "error"
    },
    {
      "inputs": [],
      "name": "ERC1967NonPayable",
      "type": "error"
    },
    {
      "inputs": [],
      "name": "EnforcedPause",
      "type": "error"
    },
    {
      "inputs": [],
      "name": "ExpectedPause",
      "type": "error"
    },
    {
      "inputs": [],
      "name": "FailedCall",
      "type": "error"
    },
    {
      "inputs": [],
      "name": "InsufficientPayment",
      "type": "error"
    },
    {
      "inputs": [],
      "name": "InvalidDuration",
      "type": "error"
    },
    {
      "inputs": [],
      "name": "InvalidInitialization",
      "type": "error"
    },
    {
      "inputs": [],
      "name": "InvalidPrice",
      "type": "error"
    },
    {
      "inputs": [],
      "name": "ListingNotActive",
      "type": "error"
    },
    {
      "inputs": [],
      "name": "ListingNotFound",
      "type": "error"
    },
    {
      "inputs": [],
      "name": "NotApprovedNFT",
      "type": "error"
    },
    {
      "inputs": [],
      "name": "NotBuyer",
      "type": "error"
    },
    {
      "inputs": [],
      "name": "NotInitializing",
      "type": "error"
    },
    {
      "inputs": [],
      "name": "NotSeller",
      "type": "error"
    },
    {
      "inputs": [],
      "name": "OfferExpired",
      "type": "error"
    },
    {
      "inputs": [],
      "name": "OfferNotFound",
      "type": "error"
    },
    {
      "inputs": [],
      "name": "ReentrancyGuardReentrantCall",
      "type": "error"
    },
    {
      "inputs": [
        {
          "internalType": "address",
          "name": "token",
          "type": "address"
        }
      ],
      "name": "SafeERC20FailedOperation",
      "type": "error"
    },
    {
      "inputs": [],
      "name": "TransferFailed",
      "type": "error"
    },
    {
      "inputs": [],
      "name": "UUPSUnauthorizedCallContext",
      "type": "error"
    },
    {
      "inputs": [
        {
          "internalType": "bytes32",
          "name": "slot",
          "type": "bytes32"
        }
      ],
      "name": "UUPSUnsupportedProxiableUUID",
      "type": "error"
    },
    {
      "anonymous": false,
      "inputs": [
        {
          "indexed": true,
          "internalType": "uint256",
          "name": "listingId",
          "type": "uint256"
        },
        {
          "indexed": true,
          "internalType": "address",
          "name": "winner",
          "type": "address"
        },
        {
          "indexed": false,
          "internalType": "uint256",
          "name": "finalPrice",
          "type": "uint256"
        }
      ],
      "name": "AuctionEnded",
      "type": "event"
    },
    {
      "anonymous": false,
      "inputs": [
        {
          "indexed": true,
          "internalType": "uint256",
          "name": "listingId",
          "type": "uint256"
        },
        {
          "indexed": true,
          "internalType": "address",
          "name": "bidder",
          "type": "address"
        },
        {
          "indexed": false,
          "internalType": "uint256",
          "name": "bid",
          "type": "uint256"
        }
      ],
      "name": "BidPlaced",
      "type": "event"
    },
    {
      "anonymous": false,
      "inputs": [
        {
          "indexed": false,
          "internalType": "uint64",
          "name": "version",
          "type": "uint64"
        }
      ],
      "name": "Initialized",
      "type": "event"
    },
    {
      "anonymous": false,
      "inputs": [
        {
          "indexed": true,
          "internalType": "uint256",
          "name": "listingId",
          "type": "uint256"
        }
      ],
      "name": "ListingCancelled",
      "type": "event"
    },
    {
      "anonymous": false,
      "inputs": [
        {
          "indexed": true,
          "internalType": "uint256",
          "name": "listingId",
          "type": "uint256"
        },
        {
          "indexed": true,
          "internalType": "address",
          "name": "seller",
          "type": "address"
        },
        {
          "indexed": true,
          "internalType": "address",
          "name": "nftContract",
          "type": "address"
        },
        {
          "indexed": false,
          "internalType": "uint256",
          "name": "tokenId",
          "type": "uint256"
        },
        {
          "indexed": false,
          "internalType": "enum AlmaMarketplace.ListingType",
          "name": "listingType",
          "type": "uint8"
        },
        {
          "indexed": false,
          "internalType": "uint256",
          "name": "price",
          "type": "uint256"
        }
      ],
      "name": "ListingCreated",
      "type": "event"
    },
    {
      "anonymous": false,
      "inputs": [
        {
          "indexed": true,
          "internalType": "uint256",
          "name": "listingId",
          "type": "uint256"
        },
        {
          "indexed": true,
          "internalType": "address",
          "name": "buyer",
          "type": "address"
        },
        {
          "indexed": false,
          "internalType": "uint256",
          "name": "price",
          "type": "uint256"
        }
      ],
      "name": "ListingSold",
      "type": "event"
    },
    {
      "anonymous": false,
      "inputs": [
        {
          "indexed": true,
          "internalType": "uint256",
          "name": "listingId",
          "type": "uint256"
        },
        {
          "indexed": true,
          "internalType": "address",
          "name": "renter",
          "type": "address"
        },
        {
          "indexed": false,
          "internalType": "uint64",
          "name": "expiry",
          "type": "uint64"
        }
      ],
      "name": "NFTRented",
      "type": "event"
    },
    {
      "anonymous": false,
      "inputs": [
        {
          "indexed": true,
          "internalType": "uint256",
          "name": "offerId",
          "type": "uint256"
        },
        {
          "indexed": true,
          "internalType": "address",
          "name": "seller",
          "type": "address"
        }
      ],
      "name": "OfferAccepted",
      "type": "event"
    },
    {
      "anonymous": false,
      "inputs": [
        {
          "indexed": true,
          "internalType": "uint256",
          "name": "offerId",
          "type": "uint256"
        }
      ],
      "name": "OfferCancelled",
      "type": "event"
    },
    {
      "anonymous": false,
      "inputs": [
        {
          "indexed": true,
          "internalType": "uint256",
          "name": "offerId",
          "type": "uint256"
        },
        {
          "indexed": true,
          "internalType": "address",
          "name": "buyer",
          "type": "address"
        },
        {
          "indexed": true,
          "internalType": "address",
          "name": "nftContract",
          "type": "address"
        },
        {
          "indexed": false,
          "internalType": "uint256",
          "name": "tokenId",
          "type": "uint256"
        },
        {
          "indexed": false,
          "internalType": "uint256",
          "name": "price",
          "type": "uint256"
        }
      ],
      "name": "OfferCreated",
      "type": "event"
    },
    {
      "anonymous": false,
      "inputs": [
        {
          "indexed": false,
          "internalType": "address",
          "name": "account",
          "type": "address"
        }
      ],
      "name": "Paused",
      "type": "event"
    },
    {
      "anonymous": false,
      "inputs": [
        {
          "indexed": true,
          "internalType": "bytes32",
          "name": "role",
          "type": "bytes32"
        },
        {
          "indexed": true,
          "internalType": "bytes32",
          "name": "previousAdminRole",
          "type": "bytes32"
        },
        {
          "indexed": true,
          "internalType": "bytes32",
          "name": "newAdminRole",
          "type": "bytes32"
        }
      ],
      "name": "RoleAdminChanged",
      "type": "event"
    },
    {
      "anonymous": false,
      "inputs": [
        {
          "indexed": true,
          "internalType": "bytes32",
          "name": "role",
          "type": "bytes32"
        },
        {
          "indexed": true,
          "internalType": "address",
          "name": "account",
          "type": "address"
        },
        {
          "indexed": true,
          "internalType": "address",
          "name": "sender",
          "type": "address"
        }
      ],
      "name": "RoleGranted",
      "type": "event"
    },
    {
      "anonymous": false,
      "inputs": [
        {
          "indexed": true,
          "internalType": "bytes32",
          "name": "role",
          "type": "bytes32"
        },
        {
          "indexed": true,
          "internalType": "address",
          "name": "account",
          "type": "address"
        },
        {
          "indexed": true,
          "internalType": "address",
          "name": "sender",
          "type": "address"
        }
      ],
      "name": "RoleRevoked",
      "type": "event"
    },
    {
      "anonymous": false,
      "inputs": [
        {
          "indexed": false,
          "internalType": "address",
          "name": "account",
          "type": "address"
        }
      ],
      "name": "Unpaused",
      "type": "event"
    },
    {
      "anonymous": false,
      "inputs": [
        {
          "indexed": true,
          "internalType": "address",
          "name": "implementation",
          "type": "address"
        }
      ],
      "name": "Upgraded",
      "type": "event"
    },
    {
      "inputs": [],
      "name": "DEFAULT_ADMIN_ROLE",
      "outputs": [
        {
          "internalType": "bytes32",
          "name": "",
          "type": "bytes32"
        }
      ],
      "stateMutability": "view",
      "type": "function"
    },
    {
      "inputs": [],
      "name": "MAX_PLATFORM_FEE",
      "outputs": [
        {
          "internalType": "uint256",
          "name": "",
          "type": "uint256"
        }
      ],
      "stateMutability": "view",
      "type": "function"
    },
    {
      "inputs": [],
      "name": "NATIVE_TOKEN",
      "outputs": [
        {
          "internalType": "address",
          "name": "",
          "type": "address"
        }
      ],
      "stateMutability": "view",
      "type": "function"
    },
    {
      "inputs": [],
      "name": "OPERATOR_ROLE",
      "outputs": [
        {
          "internalType": "bytes32",
          "name": "",
          "type": "bytes32"
        }
      ],
      "stateMutability": "view",
      "type": "function"
    },
    {
      "inputs": [],
      "name": "UPGRADER_ROLE",
      "outputs": [
        {
          "internalType": "bytes32",
          "name": "",
          "type": "bytes32"
        }
      ],
      "stateMutability": "view",
      "type": "function"
    },
    {
      "inputs": [],
      "name": "UPGRADE_INTERFACE_VERSION",
      "outputs": [
        {
          "internalType": "string",
          "name": "",
          "type": "string"
        }
      ],
      "stateMutability": "view",
      "type": "function"
    },
    {
      "inputs": [
        {
          "internalType": "uint256",
          "name": "offerId",
          "type": "uint256"
        }
      ],
      "name": "acceptOffer",
      "outputs": [],
      "stateMutability": "nonpayable",
      "type": "function"
    },
    {
      "inputs": [
        {
          "internalType": "address",
          "name": "",
          "type": "address"
        },
        {
          "internalType": "uint256",
          "name": "",
          "type": "uint256"
        }
      ],
      "name": "activeListings",
      "outputs": [
        {
          "internalType": "uint256",
          "name": "",
          "type": "uint256"
        }
      ],
      "stateMutability": "view",
      "type": "function"
    },
    {
      "inputs": [
        {
          "internalType": "address",
          "name": "",
          "type": "address"
        }
      ],
      "name": "approvedNFTContracts",
      "outputs": [
        {
          "internalType": "bool",
          "name": "",
          "type": "bool"
        }
      ],
      "stateMutability": "view",
      "type": "function"
    },
    {
      "inputs": [
        {
          "internalType": "uint256",
          "name": "",
          "type": "uint256"
        }
      ],
      "name": "auctions",
      "outputs": [
        {
          "internalType": "uint256",
          "name": "listingId",
          "type": "uint256"
        },
        {
          "internalType": "address",
          "name": "highestBidder",
          "type": "address"
        },
        {
          "internalType": "uint256",
          "name": "highestBid",
          "type": "uint256"
        },
        {
          "internalType": "uint256",
          "name": "minBidIncrement",
          "type": "uint256"
        },
        {
          "internalType": "uint256",
          "name": "reservePrice",
          "type": "uint256"
        },
        {
          "internalType": "bool",
          "name": "reserveMet",
          "type": "bool"
        }
      ],
      "stateMutability": "view",
      "type": "function"
    },
    {
      "inputs": [
        {
          "internalType": "uint256",
          "name": "listingId",
          "type": "uint256"
        }
      ],
      "name": "buy",
      "outputs": [],
      "stateMutability": "payable",
      "type": "function"
    },
    {
      "inputs": [
        {
          "internalType": "uint256",
          "name": "listingId",
          "type": "uint256"
        }
      ],
      "name": "cancelListing",
      "outputs": [],
      "stateMutability": "nonpayable",
      "type": "function"
    },
    {
      "inputs": [
        {
          "internalType": "uint256",
          "name": "offerId",
          "type": "uint256"
        }
      ],
      "name": "cancelOffer",
      "outputs": [],
      "stateMutability": "nonpayable",
      "type": "function"
    },
    {
      "inputs": [],
      "name": "collectionManager",
      "outputs": [
        {
          "internalType": "address",
          "name": "",
          "type": "address"
        }
      ],
      "stateMutability": "view",
      "type": "function"
    },
    {
      "inputs": [
        {
          "internalType": "address",
          "name": "nftContract",
          "type": "address"
        },
        {
          "internalType": "uint256",
          "name": "tokenId",
          "type": "uint256"
        },
        {
          "internalType": "uint256",
          "name": "amount",
          "type": "uint256"
        },
        {
          "internalType": "enum AlmaMarketplace.TokenStandard",
          "name": "tokenStandard",
          "type": "uint8"
        },
        {
          "internalType": "address",
          "name": "paymentToken",
          "type": "address"
        },
        {
          "internalType": "uint256",
          "name": "startingPrice",
          "type": "uint256"
        },
        {
          "internalType": "uint256",
          "name": "reservePrice",
          "type": "uint256"
        },
        {
          "internalType": "uint256",
          "name": "duration",
          "type": "uint256"
        },
        {
          "internalType": "uint256",
          "name": "minBidIncrement",
          "type": "uint256"
        }
      ],
      "name": "createAuction",
      "outputs": [
        {
          "internalType": "uint256",
          "name": "",
          "type": "uint256"
        }
      ],
      "stateMutability": "nonpayable",
      "type": "function"
    },
    {
      "inputs": [
        {
          "internalType": "address",
          "name": "nftContract",
          "type": "address"
        },
        {
          "internalType": "uint256",
          "name": "tokenId",
          "type": "uint256"
        },
        {
          "internalType": "uint256",
          "name": "amount",
          "type": "uint256"
        },
        {
          "internalType": "enum AlmaMarketplace.TokenStandard",
          "name": "tokenStandard",
          "type": "uint8"
        },
        {
          "internalType": "address",
          "name": "paymentToken",
          "type": "address"
        },
        {
          "internalType": "uint256",
          "name": "price",
          "type": "uint256"
        }
      ],
      "name": "createListing",
      "outputs": [
        {
          "internalType": "uint256",
          "name": "",
          "type": "uint256"
        }
      ],
      "stateMutability": "nonpayable",
      "type": "function"
    },
    {
      "inputs": [
        {
          "internalType": "address",
          "name": "nftContract",
          "type": "address"
        },
        {
          "internalType": "uint256",
          "name": "tokenId",
          "type": "uint256"
        },
        {
          "internalType": "address",
          "name": "paymentToken",
          "type": "address"
        },
        {
          "internalType": "uint256",
          "name": "price",
          "type": "uint256"
        },
        {
          "internalType": "uint256",
          "name": "duration",
          "type": "uint256"
        }
      ],
      "name": "createOffer",
      "outputs": [
        {
          "internalType": "uint256",
          "name": "",
          "type": "uint256"
        }
      ],
      "stateMutability": "payable",
      "type": "function"
    },
    {
      "inputs": [
        {
          "internalType": "address",
          "name": "nftContract",
          "type": "address"
        },
        {
          "internalType": "uint256",
          "name": "tokenId",
          "type": "uint256"
        },
        {
          "internalType": "uint256",
          "name": "amount",
          "type": "uint256"
        },
        {
          "internalType": "enum AlmaMarketplace.TokenStandard",
          "name": "tokenStandard",
          "type": "uint8"
        },
        {
          "internalType": "address",
          "name": "paymentToken",
          "type": "address"
        },
        {
          "internalType": "uint256",
          "name": "pricePerDay",
          "type": "uint256"
        },
        {
          "internalType": "uint256",
          "name": "minDays",
          "type": "uint256"
        },
        {
          "internalType": "uint256",
          "name": "maxDays",
          "type": "uint256"
        }
      ],
      "name": "createRentalListing",
      "outputs": [
        {
          "internalType": "uint256",
          "name": "",
          "type": "uint256"
        }
      ],
      "stateMutability": "nonpayable",
      "type": "function"
    },
    {
      "inputs": [],
      "name": "defaultMinBidIncrement",
      "outputs": [
        {
          "internalType": "uint256",
          "name": "",
          "type": "uint256"
        }
      ],
      "stateMutability": "view",
      "type": "function"
    },
    {
      "inputs": [
        {
          "internalType": "address",
          "name": "token",
          "type": "address"
        },
        {
          "internalType": "address",
          "name": "to",
          "type": "address"
        },
        {
          "internalType": "uint256",
          "name": "amount",
          "type": "uint256"
        }
      ],
      "name": "emergencyWithdraw",
      "outputs": [],
      "stateMutability": "nonpayable",
      "type": "function"
    },
    {
      "inputs": [
        {
          "internalType": "uint256",
          "name": "listingId",
          "type": "uint256"
        }
      ],
      "name": "endAuction",
      "outputs": [],
      "stateMutability": "nonpayable",
      "type": "function"
    },
    {
      "inputs": [
        {
          "internalType": "uint256",
          "name": "listingId",
          "type": "uint256"
        }
      ],
      "name": "getAuction",
      "outputs": [
        {
          "components": [
            {
              "internalType": "uint256",
              "name": "listingId",
              "type": "uint256"
            },
            {
              "internalType": "address",
              "name": "highestBidder",
              "type": "address"
            },
            {
              "internalType": "uint256",
              "name": "highestBid",
              "type": "uint256"
            },
            {
              "internalType": "uint256",
              "name": "minBidIncrement",
              "type": "uint256"
            },
            {
              "internalType": "uint256",
              "name": "reservePrice",
              "type": "uint256"
            },
            {
              "internalType": "bool",
              "name": "reserveMet",
              "type": "bool"
            }
          ],
          "internalType": "struct AlmaMarketplace.Auction",
          "name": "",
          "type": "tuple"
        }
      ],
      "stateMutability": "view",
      "type": "function"
    },
    {
      "inputs": [
        {
          "internalType": "uint256",
          "name": "listingId",
          "type": "uint256"
        }
      ],
      "name": "getListing",
      "outputs": [
        {
          "components": [
            {
              "internalType": "uint256",
              "name": "listingId",
              "type": "uint256"
            },
            {
              "internalType": "address",
              "name": "seller",
              "type": "address"
            },
            {
              "internalType": "address",
              "name": "nftContract",
              "type": "address"
            },
            {
              "internalType": "uint256",
              "name": "tokenId",
              "type": "uint256"
            },
            {
              "internalType": "uint256",
              "name": "amount",
              "type": "uint256"
            },
            {
              "internalType": "enum AlmaMarketplace.TokenStandard",
              "name": "tokenStandard",
              "type": "uint8"
            },
            {
              "internalType": "enum AlmaMarketplace.ListingType",
              "name": "listingType",
              "type": "uint8"
            },
            {
              "internalType": "enum AlmaMarketplace.ListingStatus",
              "name": "status",
              "type": "uint8"
            },
            {
              "internalType": "address",
              "name": "paymentToken",
              "type": "address"
            },
            {
              "internalType": "uint256",
              "name": "price",
              "type": "uint256"
            },
            {
              "internalType": "uint256",
              "name": "endTime",
              "type": "uint256"
            },
            {
              "internalType": "uint256",
              "name": "createdAt",
              "type": "uint256"
            }
          ],
          "internalType": "struct AlmaMarketplace.Listing",
          "name": "",
          "type": "tuple"
        }
      ],
      "stateMutability": "view",
      "type": "function"
    },
    {
      "inputs": [
        {
          "internalType": "uint256",
          "name": "listingId",
          "type": "uint256"
        }
      ],
      "name": "getRental",
      "outputs": [
        {
          "components": [
            {
              "internalType": "uint256",
              "name": "listingId",
              "type": "uint256"
            },
            {
              "internalType": "uint256",
              "name": "pricePerDay",
              "type": "uint256"
            },
            {
              "internalType": "uint256",
              "name": "minDays",
              "type": "uint256"
            },
            {
              "internalType": "uint256",
              "name": "maxDays",
              "type": "uint256"
            },
            {
              "internalType": "address",
              "name": "currentRenter",
              "type": "address"
            },
            {
              "internalType": "uint64",
              "name": "rentalExpiry",
              "type": "uint64"
            }
          ],
          "internalType": "struct AlmaMarketplace.Rental",
          "name": "",
          "type": "tuple"
        }
      ],
      "stateMutability": "view",
      "type": "function"
    },
    {
      "inputs": [
        {
          "internalType": "bytes32",
          "name": "role",
          "type": "bytes32"
        }
      ],
      "name": "getRoleAdmin",
      "outputs": [
        {
          "internalType": "bytes32",
          "name": "",
          "type": "bytes32"
        }
      ],
      "stateMutability": "view",
      "type": "function"
    },
    {
      "inputs": [
        {
          "internalType": "address",
          "name": "seller",
          "type": "address"
        }
      ],
      "name": "getSellerListings",
      "outputs": [
        {
          "internalType": "uint256[]",
          "name": "",
          "type": "uint256[]"
        }
      ],
      "stateMutability": "view",
      "type": "function"
    },
    {
      "inputs": [
        {
          "internalType": "bytes32",
          "name": "role",
          "type": "bytes32"
        },
        {
          "internalType": "address",
          "name": "account",
          "type": "address"
        }
      ],
      "name": "grantRole",
      "outputs": [],
      "stateMutability": "nonpayable",
      "type": "function"
    },
    {
      "inputs": [
        {
          "internalType": "bytes32",
          "name": "role",
          "type": "bytes32"
        },
        {
          "internalType": "address",
          "name": "account",
          "type": "address"
        }
      ],
      "name": "hasRole",
      "outputs": [
        {
          "internalType": "bool",
          "name": "",
          "type": "bool"
        }
      ],
      "stateMutability": "view",
      "type": "function"
    },
    {
      "inputs": [
        {
          "internalType": "address",
          "name": "defaultAdmin",
          "type": "address"
        },
        {
          "internalType": "address",
          "name": "_paymentManager",
          "type": "address"
        },
        {
          "internalType": "address",
          "name": "_collectionManager",
          "type": "address"
        },
        {
          "internalType": "address",
          "name": "_jeongSBT",
          "type": "address"
        }
      ],
      "name": "initialize",
      "outputs": [],
      "stateMutability": "nonpayable",
      "type": "function"
    },
    {
      "inputs": [
        {
          "internalType": "address",
          "name": "forwarder",
          "type": "address"
        }
      ],
      "name": "isTrustedForwarder",
      "outputs": [
        {
          "internalType": "bool",
          "name": "",
          "type": "bool"
        }
      ],
      "stateMutability": "view",
      "type": "function"
    },
    {
      "inputs": [],
      "name": "jeongSBT",
      "outputs": [
        {
          "internalType": "address",
          "name": "",
          "type": "address"
        }
      ],
      "stateMutability": "view",
      "type": "function"
    },
    {
      "inputs": [
        {
          "internalType": "uint256",
          "name": "",
          "type": "uint256"
        }
      ],
      "name": "listings",
      "outputs": [
        {
          "internalType": "uint256",
          "name": "listingId",
          "type": "uint256"
        },
        {
          "internalType": "address",
          "name": "seller",
          "type": "address"
        },
        {
          "internalType": "address",
          "name": "nftContract",
          "type": "address"
        },
        {
          "internalType": "uint256",
          "name": "tokenId",
          "type": "uint256"
        },
        {
          "internalType": "uint256",
          "name": "amount",
          "type": "uint256"
        },
        {
          "internalType": "enum AlmaMarketplace.TokenStandard",
          "name": "tokenStandard",
          "type": "uint8"
        },
        {
          "internalType": "enum AlmaMarketplace.ListingType",
          "name": "listingType",
          "type": "uint8"
        },
        {
          "internalType": "enum AlmaMarketplace.ListingStatus",
          "name": "status",
          "type": "uint8"
        },
        {
          "internalType": "address",
          "name": "paymentToken",
          "type": "address"
        },
        {
          "internalType": "uint256",
          "name": "price",
          "type": "uint256"
        },
        {
          "internalType": "uint256",
          "name": "endTime",
          "type": "uint256"
        },
        {
          "internalType": "uint256",
          "name": "createdAt",
          "type": "uint256"
        }
      ],
      "stateMutability": "view",
      "type": "function"
    },
    {
      "inputs": [],
      "name": "maxAuctionDuration",
      "outputs": [
        {
          "internalType": "uint256",
          "name": "",
          "type": "uint256"
        }
      ],
      "stateMutability": "view",
      "type": "function"
    },
    {
      "inputs": [],
      "name": "minAuctionDuration",
      "outputs": [
        {
          "internalType": "uint256",
          "name": "",
          "type": "uint256"
        }
      ],
      "stateMutability": "view",
      "type": "function"
    },
    {
      "inputs": [
        {
          "internalType": "uint256",
          "name": "",
          "type": "uint256"
        }
      ],
      "name": "offers",
      "outputs": [
        {
          "internalType": "uint256",
          "name": "offerId",
          "type": "uint256"
        },
        {
          "internalType": "address",
          "name": "buyer",
          "type": "address"
        },
        {
          "internalType": "address",
          "name": "nftContract",
          "type": "address"
        },
        {
          "internalType": "uint256",
          "name": "tokenId",
          "type": "uint256"
        },
        {
          "internalType": "address",
          "name": "paymentToken",
          "type": "address"
        },
        {
          "internalType": "uint256",
          "name": "price",
          "type": "uint256"
        },
        {
          "internalType": "uint256",
          "name": "expiresAt",
          "type": "uint256"
        },
        {
          "internalType": "bool",
          "name": "isActive",
          "type": "bool"
        }
      ],
      "stateMutability": "view",
      "type": "function"
    },
    {
      "inputs": [],
      "name": "pause",
      "outputs": [],
      "stateMutability": "nonpayable",
      "type": "function"
    },
    {
      "inputs": [],
      "name": "paused",
      "outputs": [
        {
          "internalType": "bool",
          "name": "",
          "type": "bool"
        }
      ],
      "stateMutability": "view",
      "type": "function"
    },
    {
      "inputs": [],
      "name": "paymentManager",
      "outputs": [
        {
          "internalType": "address",
          "name": "",
          "type": "address"
        }
      ],
      "stateMutability": "view",
      "type": "function"
    },
    {
      "inputs": [
        {
          "internalType": "uint256",
          "name": "listingId",
          "type": "uint256"
        },
        {
          "internalType": "uint256",
          "name": "bidAmount",
          "type": "uint256"
        }
      ],
      "name": "placeBid",
      "outputs": [],
      "stateMutability": "payable",
      "type": "function"
    },
    {
      "inputs": [],
      "name": "proxiableUUID",
      "outputs": [
        {
          "internalType": "bytes32",
          "name": "",
          "type": "bytes32"
        }
      ],
      "stateMutability": "view",
      "type": "function"
    },
    {
      "inputs": [
        {
          "internalType": "bytes32",
          "name": "role",
          "type": "bytes32"
        },
        {
          "internalType": "address",
          "name": "callerConfirmation",
          "type": "address"
        }
      ],
      "name": "renounceRole",
      "outputs": [],
      "stateMutability": "nonpayable",
      "type": "function"
    },
    {
      "inputs": [
        {
          "internalType": "uint256",
          "name": "listingId",
          "type": "uint256"
        },
        {
          "internalType": "uint256",
          "name": "daysToRent",
          "type": "uint256"
        }
      ],
      "name": "rent",
      "outputs": [],
      "stateMutability": "payable",
      "type": "function"
    },
    {
      "inputs": [
        {
          "internalType": "uint256",
          "name": "",
          "type": "uint256"
        }
      ],
      "name": "rentals",
      "outputs": [
        {
          "internalType": "uint256",
          "name": "listingId",
          "type": "uint256"
        },
        {
          "internalType": "uint256",
          "name": "pricePerDay",
          "type": "uint256"
        },
        {
          "internalType": "uint256",
          "name": "minDays",
          "type": "uint256"
        },
        {
          "internalType": "uint256",
          "name": "maxDays",
          "type": "uint256"
        },
        {
          "internalType": "address",
          "name": "currentRenter",
          "type": "address"
        },
        {
          "internalType": "uint64",
          "name": "rentalExpiry",
          "type": "uint64"
        }
      ],
      "stateMutability": "view",
      "type": "function"
    },
    {
      "inputs": [
        {
          "internalType": "bytes32",
          "name": "role",
          "type": "bytes32"
        },
        {
          "internalType": "address",
          "name": "account",
          "type": "address"
        }
      ],
      "name": "revokeRole",
      "outputs": [],
      "stateMutability": "nonpayable",
      "type": "function"
    },
    {
      "inputs": [
        {
          "internalType": "address",
          "name": "",
          "type": "address"
        },
        {
          "internalType": "uint256",
          "name": "",
          "type": "uint256"
        }
      ],
      "name": "sellerListings",
      "outputs": [
        {
          "internalType": "uint256",
          "name": "",
          "type": "uint256"
        }
      ],
      "stateMutability": "view",
      "type": "function"
    },
    {
      "inputs": [
        {
          "internalType": "address",
          "name": "nftContract",
          "type": "address"
        },
        {
          "internalType": "bool",
          "name": "approved",
          "type": "bool"
        }
      ],
      "name": "setApprovedNFTContract",
      "outputs": [],
      "stateMutability": "nonpayable",
      "type": "function"
    },
    {
      "inputs": [
        {
          "internalType": "uint256",
          "name": "_minDuration",
          "type": "uint256"
        },
        {
          "internalType": "uint256",
          "name": "_maxDuration",
          "type": "uint256"
        },
        {
          "internalType": "uint256",
          "name": "_defaultMinBidIncrement",
          "type": "uint256"
        }
      ],
      "name": "setAuctionSettings",
      "outputs": [],
      "stateMutability": "nonpayable",
      "type": "function"
    },
    {
      "inputs": [
        {
          "internalType": "address",
          "name": "_collectionManager",
          "type": "address"
        }
      ],
      "name": "setCollectionManager",
      "outputs": [],
      "stateMutability": "nonpayable",
      "type": "function"
    },
    {
      "inputs": [
        {
          "internalType": "address",
          "name": "_jeongSBT",
          "type": "address"
        }
      ],
      "name": "setJeongSBT",
      "outputs": [],
      "stateMutability": "nonpayable",
      "type": "function"
    },
    {
      "inputs": [
        {
          "internalType": "address",
          "name": "_paymentManager",
          "type": "address"
        }
      ],
      "name": "setPaymentManager",
      "outputs": [],
      "stateMutability": "nonpayable",
      "type": "function"
    },
    {
      "inputs": [
        {
          "internalType": "bytes4",
          "name": "interfaceId",
          "type": "bytes4"
        }
      ],
      "name": "supportsInterface",
      "outputs": [
        {
          "internalType": "bool",
          "name": "",
          "type": "bool"
        }
      ],
      "stateMutability": "view",
      "type": "function"
    },
    {
      "inputs": [],
      "name": "totalListings",
      "outputs": [
        {
          "internalType": "uint256",
          "name": "",
          "type": "uint256"
        }
      ],
      "stateMutability": "view",
      "type": "function"
    },
    {
      "inputs": [],
      "name": "trustedForwarder",
      "outputs": [
        {
          "internalType": "address",
          "name": "",
          "type": "address"
        }
      ],
      "stateMutability": "view",
      "type": "function"
    },
    {
      "inputs": [],
      "name": "unpause",
      "outputs": [],
      "stateMutability": "nonpayable",
      "type": "function"
    },
    {
      "inputs": [
        {
          "internalType": "address",
          "name": "newImplementation",
          "type": "address"
        },
        {
          "internalType": "bytes",
          "name": "data",
          "type": "bytes"
        }
      ],
      "name": "upgradeToAndCall",
      "outputs": [],
      "stateMutability": "payable",
      "type": "function"
    },
    {
      "stateMutability": "payable",
      "type": "receive"
    }
  ],
  "bytecode": "0x60c03462000128576001600160401b0390601f6200447038819003918201601f1916830191848311848410176200012c578084926020946040528339810103126200012857516001600160a01b038116810362000128576080523060a0527ff0c57e16840df040f15088dc2f81fe391c3923bec73e23a9662efc9c229c6a009081549060ff8260401c1662000116578080831603620000d0575b60405161432f9081620001418239608051818181611f17015281816127f3015261416d015260a0518181816128c401526129e50152f35b6001600160401b031990911681179091556040519081527fc7f505b2f371ae2175ee4913f4499e1f2633a7b5936321eed1cdaeb6115181d290602090a15f808062000099565b60405163f92ee8a960e01b8152600490fd5b5f80fd5b634e487b7160e01b5f52604160045260245ffdfe608080604052600436101561001c575b50361561001a575f80fd5b005b5f905f3560e01c90816301ffc9a7146131cf57508063054564f014613178578063107a274a14612f98578063248a9ca314612f5f5780632a5c5fcc14612f1c5780632f2ff15d14612ed3578063305a67a814612d7e57806331f7d96414612d6457806336568abe14612d1357806338712db114612cbe5780633998a68114612ca25780633f4ba83a14612c1b57806348c9581e14612bfe5780634f1ef2861461296b57806350b654141461292e57806352d1902d146128b25780635413487614612895578063571a26a014612827578063572b6c05146127d357806357c90de5146125f257806357e7e0ce146125ca5780635c975abb1461259c5780635f42da09146124ee578063652bd29e14612437578063783a112b14611ff957806378bd793514611f465780637da0a87714611f015780637e702dc814611ec15780638456cb5914611e485780638a72ea6a14611dbc5780638f9f854714611b185780639067b4d614611afa57806391d1485414611aa45780639fdf846914611a7b578063a217fddf14611a5f578063a7928fa8146116f9578063ad3cb1cc1461166a578063aee1fe4914611641578063af94a1d1146115d0578063b9a2de3a146113d2578063c78b616c146113b5578063c815729d14611161578063d14027d414610f83578063d547741f14610f35578063d74b756514610b9c578063d96a094a146107d1578063de74e57b14610704578063e5f52a9c146106c4578063e63ea40814610661578063e763b10514610632578063ef706adf14610517578063f4b12508146104d4578063f5b541a614610499578063f72c0d8b1461045e5763f8c8765e0361000f573461045b57608036600319011261045b5761029a613222565b6102a2613238565b906102ab613264565b916064356001600160a01b038181169291839003610457577ff0c57e16840df040f15088dc2f81fe391c3923bec73e23a9662efc9c229c6a0094855460ff8160401c1615956001600160401b0382168015908161044f575b6001149081610445575b15908161043c575b5061042a5767ffffffffffffffff1982166001178855610388918761040b575b5061033e6141f5565b6103466141f5565b61034e6141f5565b6103566141f5565b60015f805160206142da8339815191525561036f6141f5565b61037881613534565b50610382816135df565b506136aa565b50816001600160601b0360a01b9316836002541617600255168160035416176003556004541617600455610e10600c5562278d00600d556101f4600e556103cd575080f35b68ff00000000000000001981541690557fc7f505b2f371ae2175ee4913f4499e1f2633a7b5936321eed1cdaeb6115181d2602060405160018152a180f35b68ffffffffffffffffff1916680100000000000000011788555f610335565b60405163f92ee8a960e01b8152600490fd5b9050155f610315565b303b15915061030d565b889150610303565b5f80fd5b80fd5b503461045b578060031936011261045b5760206040517f189ab7a9244df0848122154315af71fe140f3db0fe014031783b0946b8c9d2e38152f35b503461045b578060031936011261045b5760206040517f97667070c54ef182b0f5858b034beac1b6f3089aa2d3188bb1e8929f4fa9b9298152f35b503461045b57604036600319011261045b576020906040906001600160a01b036104fc613222565b168152600a8352818120602435825283522054604051908152f35b503461045b57602036600319011261045b5760043561053461389c565b8082526008602052604082206007810180549060ff821615610620576001830180546001600160a01b0392908316908361056c614142565b16820361060e57879460ff19169055826004860154169081155f146105f657505082936005849384935416910154905af16105a561343e565b50156105e4575b7fc28b4aed030bfacc245c0501326e1beb8c0ef0d60e4edc21067fdeb52da2a7aa8280a260015f805160206142da8339815191525580f35b6040516312171d8360e31b8152600490fd5b9250925050600561060993015491614109565b6105ac565b60405163239700bf60e11b8152600490fd5b604051636df5846d60e01b8152600490fd5b503461045b57606036600319011261045b5761064c61346d565b600435600c55602435600d55604435600e5580f35b503461045b57606036600319011261045b578061067c613222565b610684613238565b6044359161069061346d565b6001600160a01b0316806106b7575082809281925af16106ae61343e565b50156105e45780f35b6106c19350614109565b80f35b503461045b57602036600319011261045b576106de613222565b6106e661346d565b60018060a01b03166001600160601b0360a01b600454161760045580f35b503461045b57602036600319011261045b57604061018091600435815260056020522080549060018060a01b039081600182015416918060028301541690600383015460048401546005850154916006860154946008600788015497015497604051998a5260208a015260408901526060880152608087015261078d60a0870160ff83166132a3565b6107a060c0870160ff8360081c166132b0565b6107b360e0870160ff8360101c166132bd565b60181c16610100850152610120840152610140830152610160820152f35b50602036600319011261045b576107e661389c565b6107ee6138cb565b6004358152600560205260408120805415610b8a5760058101549060ff8260101c166004811015610b7657610b645760ff8260081c166003811015610b7657610b6457610839614142565b9060068101549261085c8460018060a01b03600285015416600385015490613cb9565b60018401546001600160a01b0390811693919290601883901c16610a2857863410610a1657600254604051633bad56cb60e01b81526001600160a01b038881166004830152958616602482015260189390931c8516604484015260648301889052908416608483015260a482019290925291602091839160c49183918991165af18015610a0b576109e0575b508234116109b0575b61092860018060a01b0360018301541660018060a01b0360028401541660038401546004850154918660ff60058801541694614036565b6201000062ff00001960058301541617600582015560018060a01b036002820154168452600a60205260036040852091015484526020525f604084205560405191825260018060a01b0316907f8e378317cc1b9c64766fd136e5849da5f702d26a8f8b750115b7422909b2309f602060043592a360015f805160206142da8339815191525580f35b5f8080806109be873461395e565b865af16109c961343e565b506108f1576040516312171d8360e31b8152600490fd5b602090813d8311610a04575b6109f68183613314565b81010312610457575f6108e8565b503d6109ec565b6040513d5f823e3d90fd5b60405163cd1c886760e01b8152600490fd5b929091610a7e91610a48883089601888901c6001600160a01b03166138f5565b60025460405163095ea7b360e01b81526001600160a01b0390911660048201526024810189905292602090849081906044820190565b03815f601889901c6001600160a01b03165af18015610a0b5760209489945f92610b37575b50600254604051633bad56cb60e01b81523060048201526001600160a01b03948516602482015260189290921c841660448301526064820195909552958216608487015260a4860192909252849260c49284929091165af18015610a0b57610b0c575b506108f1565b602090813d8311610b30575b610b228183613314565b81010312610457575f610b06565b503d610b18565b610b5690873d8911610b5d575b610b4e8183613314565b810190613946565b505f610aa3565b503d610b44565b6040516366cb03e960e01b8152600490fd5b634e487b7160e01b84526021600452602484fd5b604051630fc87cc760e31b8152600490fd5b503461045b5761010036600319011261045b57610bb7613222565b60026064351015610f3157610bca61324e565b90610bd36138cb565b60a43515610f205760c435158015610f13575b610f0157610bf38161396b565b610bfb614142565b90610c0f60643560443560243584866139d9565b610c1984546133e3565b9283855560405190610c2a826132ca565b8482526001600160a01b0384811660208401528316604083015260243560608301526044356080830152610c6360643560a08401613366565b600260c08301528560e083015260018060a01b031661010082015260a4356101208201528461014082015242610160820152838552600560205260408520908051825560018060a01b036020820151166001600160601b0360a01b6001840154161760018301556002820160018060a01b036040830151166001600160601b0360a01b825416179055606081015160038301556080810151600483015560a08101516002811015610ed957600583015460c08301516003811015610eed5761ff0060ff9160081b1692169061ffff19161717600583015560e08101516004811015610ed95795826008610160604094610d6260209b60058c9901613372565b6101008101516005850180546301000000600160b81b03191660189290921b6301000000600160b81b03169190911790556101208101516006850155610140810151600785015501519101558151610e4a90610dbd816132e6565b84815260a43589820190815260c43585830190815260e435606084019081526080840186815260a08086018881528a895260078f528989209651875594516001870155925160028601559051600385015551600493909301805492516001600160e01b03199093166001600160a01b03949094169390931791901b67ffffffffffffffff60a01b16179055565b6001600160a01b038516815260098752818120610e689084906133f1565b60018060a01b0384168152600a8752818120602435825287522055827f3ea99dde3b7431b1fcd44eced51e39c89517242d3125731b267e0866bda5e98a606060405193602435855260028886015260a435604086015260018060a01b03169460018060a01b031693a4604051908152f35b634e487b7160e01b87526021600452602487fd5b634e487b7160e01b89526021600452602489fd5b604051637616640160e01b8152600490fd5b5060c43560e43510610be6565b60405162bfc92160e01b8152600490fd5b5080fd5b503461045b57604036600319011261045b57610f7f600435610f55613238565b908084525f8051602061429a833981519152602052610f7a60016040862001546134d4565b613811565b5080f35b5060a036600319011261045b57610f98613222565b90610fa1613264565b91610faa6138cb565b60643515610f2057610fbb8161396b565b610fc3614142565b906001600160a01b038416611145576064353410610a16575b610fe76001546133e3565b9283600155610ff8608435426133a6565b94604051916101008301908382106001600160401b038311176111315760409182528684526001600160a01b038681166020808701918252878316878601908152602435606089019081529684166080890190815260643560a08a0190815260c08a019d8e52600160e08b018181528e8952600886529890972099518a55935195890180549686166001600160a01b031997881617905590516002890180549186169187169190911790559551600388015594516004870180549190931693169290921790555160058401559551600683015594516007909101805460ff191691151560ff16919091179055604080516024358152606435868201526001600160a01b03928316939092169184917f6cde6cb15ae436d9a233ffac7fee903539ea6b27dc2065434ae7d3900b6cdd7a91a4604051908152f35b634e487b7160e01b5f52604160045260245ffd5b61115c60643530846001600160a01b0388166138f5565b610fdc565b503461045b57602080600319360112610f315760043561117f61389c565b6111876138cb565b8083526008825260408320600781019260ff845416156106205760068201544210156113a3576111b5614142565b6002830160018060a01b039586825416926003860195865491604051956331a9108f60e11b87528360048801528787602481845afa8015611398578b978d9161135c575b508783169b8c91160361134a578b9361121c61122a926005860154928391613cb9565b918960048701541685613dc4565b856001818754169301541691885490803b1561134657604051632142170760e11b81526001600160a01b039384166004820152939092166024840152604483015282908290606490829084905af1801561133b57611323575b5050805460ff19169055805482168752600a83526040808820855489528452872054806112e6575b8787877fa7a40af5a1d0c10a3eb94af90cb008170915e8a71a6aaff052794cd762c72fc08380a360015f805160206142da8339815191525580f35b875260058352600560408820016201000062ff00001982541617905554168552600a81526040852091548552525f60408420555f808080806112ab565b61132c90613301565b61133757875f611283565b8780fd5b6040513d84823e3d90fd5b8480fd5b604051635ec8235160e01b8152600490fd5b809850898092503d8311611391575b6113758183613314565b8101031261138d576113878b9761342a565b5f6111f9565b8b80fd5b503d61136b565b6040513d8e823e3d90fd5b604051639cb1308760e01b8152600490fd5b503461045b578060031936011261045b5760209054604051908152f35b503461045b57602080600319360112610f3157600435906113f161389c565b818352600581526040832091825415610b8a576005830190815460ff8160101c166004811015610ed957610b645760081c60ff1660038110156115bc57600103610b6457600784015442106115aa5780855260068352604085206001810180546001600160a01b0394889492879287929083161515808061159c575b1561154557507fd2aa34a4fdbbc6dff6a3e56f46e0f3ae2a31d7785ff3487aa5c95c642acea501949596506114f860028b019784895416988c8660038201936114da6114c36002875493019e8f54938491613cb9565b90600186019385855416868c5460181c1690613dc4565b5416926004888089541694541691549201549260ff87541694614036565b6201000062ff00001982541617905554169354604051908152a35b6002830154168352600a81526003604084209201548352525f604082205560015f805160206142da8339815191525580f35b9350939450505061158e575b6203000062ff0000198254161790557fd2aa34a4fdbbc6dff6a3e56f46e0f3ae2a31d7785ff3487aa5c95c642acea50184604051848152a3611513565b611597826137a4565b611551565b5060ff60058801541661146d565b604051636463738960e01b8152600490fd5b634e487b7160e01b86526021600452602486fd5b503461045b57602036600319011261045b57604060c09160043581526007602052206001600160401b038154916001810154906002810154600460038301549201549260405195865260208601526040850152606084015260018060a01b038116608084015260a01c1660a0820152f35b503461045b578060031936011261045b576002546040516001600160a01b039091168152602090f35b503461045b578060031936011261045b57604051604081018181106001600160401b038211176111315760405260058152602091640352e302e360dc1b602083015260405192839160208352835191826020850152815b8381106116e257505060408094508284010152601f80199101168101030190f35b8086018201518782016040015286945081016116c1565b503461045b5761012036600319011261045b57611714613222565b60026064351015610f315761172761324e565b906117306138cb565b60a43515610f2057600c5460e435108015611a52575b610f01576117538161396b565b61175b614142565b9061176f60643560443560243584866139d9565b61177984546133e3565b9283855561178960e435426133a6565b60405191611796836132ca565b8583526001600160a01b03858116602085015284166040840152602435606084015260443560808401526117cf60643560a08501613366565b600160c08401528660e084015260018060a01b031661010083015260a43561012083015261014082015242610160820152838552600560205260408520908051825560018060a01b036020820151166001600160601b0360a01b6001840154161760018301556002820160018060a01b036040830151166001600160601b0360a01b825416179055606081015160038301556080810151600483015560a08101516002811015610ed957600583015460c08301516003811015610eed5761ff0060ff9160081b1692169061ffff19161717600583015560e08101516004811015610ed957958260086101606040946118cd60209b60058c9901613372565b6101008101516005850180546301000000600160b81b03191660189290921b6301000000600160b81b03169190911790556101208101516006850155610140810151600785015501519101556101043515611a47576119b8610104355b6005845191611938836132e6565b8683528a8301908582528684019086825260608501908152608085019160c435835260a08601938885528a895260068f5289892096518755600187019060018060a01b039051166001600160601b0360a01b82541617905551600286015551600385015551600484015551151591019060ff801983541691151516179055565b6001600160a01b0385168152600987528181206119d69084906133f1565b60018060a01b0384168152600a8752818120602435825287522055827f3ea99dde3b7431b1fcd44eced51e39c89517242d3125731b267e0866bda5e98a606060405193602435855260018886015260a435604086015260018060a01b03169460018060a01b031693a4604051908152f35b6119b8600e5461192a565b50600d5460e43511611746565b503461045b578060031936011261045b57602090604051908152f35b503461045b578060031936011261045b576003546040516001600160a01b039091168152602090f35b503461045b57604036600319011261045b576040611ac0613238565b9160043581525f8051602061429a833981519152602052209060018060a01b03165f52602052602060ff60405f2054166040519015158152f35b503461045b578060031936011261045b576020600e54604051908152f35b503461045b5760c036600319011261045b57611b32613222565b60026064351015610f3157611b4561324e565b90611b4e6138cb565b60a43515610f2057611b5f8161396b565b611b67614142565b90611b7b60643560443560243584866139d9565b611b8584546133e3565b9283855560405190611b96826132ca565b8482526001600160a01b0384811660208401528316604083015260243560608301526044356080830152611bcf60643560a08401613366565b8560c08301528560e083015260018060a01b031661010082015260a435610120820152846101408201524261016082015283855260056020526040852090805182556001820160018060a01b03602083015116906001600160601b0360a01b9182825416179055600283019060018060a01b036040840151169082541617905560608101516003830155608081015160048301556005820160a08201516002811015611d9457815460c08401516003811015611da85761ff0060ff9160081b1692169061ffff19161717815560e08201516004811015611d945792600861016060409484611cc18b9860209d97613372565b61010082015181546301000000600160b81b03191660189190911b6301000000600160b81b03161790556101208101516006850155610140810151600785015501519101556001600160a01b038516815260098752818120611d249084906133f1565b60018060a01b0384168152600a8752818120602435825287522055827f3ea99dde3b7431b1fcd44eced51e39c89517242d3125731b267e0866bda5e98a60606040519360243585525f8886015260a435604086015260018060a01b03169460018060a01b031693a4604051908152f35b634e487b7160e01b88526021600452602488fd5b634e487b7160e01b8a52602160045260248afd5b503461045b57602036600319011261045b57604061010091600435815260086020522080549060018060a01b0390816001820154169180600283015416906003830154906004840154169060058401549260ff600760068701549601541695604051978852602088015260408701526060860152608085015260a084015260c0830152151560e0820152f35b503461045b578060031936011261045b57611e6161346d565b611e696138cb565b5f805160206142ba833981519152805460ff191660011790557f62e78cea01bee320cd4e420270b5ea74000d11b0c9f74754ebdbfc544b05a2586020611ead614142565b6040516001600160a01b039091168152a180f35b503461045b57602036600319011261045b57611edb613222565b611ee361346d565b60018060a01b03166001600160601b0360a01b600254161760025580f35b503461045b578060031936011261045b576040517f00000000000000000000000000000000000000000000000000000000000000006001600160a01b03168152602090f35b503461045b57602036600319011261045b57604060c091611f656133b3565b506004358152600660205220604051611f7d816132e6565b81549182825260018060a01b03806001830154169060208401918252600283015490604085019182526003840154926060860193845260a060ff600560048801549760808a01988952015416960195151586526040519687525116602086015251604085015251606084015251608083015251151560a0820152f35b5061200336613350565b9061200c61389c565b6120146138cb565b805f5260206005815260405f20805415610b8a57600581019384549160ff8360101c16600481101561228657610b645760ff8360081c16906003821015612286576002809203610b6457855f526007855260405f2091808301548410801561242a575b610f015760048301805490986001600160a01b0395909186811615159081612414575b50610b64576120b58160016120ad614142565b970154613393565b906201518090818102918183041490151715612400576120dd6001600160401b0391426133a6565b600186015491169760181c8716908716816122e857823410610a16578454604051633bad56cb60e01b81526001600160a01b0389811660048301529283166024820152929091166044830152606482018390525f6084830181905260a48301528990829060c490829086908c165af1908115610a0b5789916122bf575b505080341161229a575b5060ff905b54168181101561228657156121f5575b5050855467ffffffffffffffff60a01b60a085901b166001600160e01b03199091169290911667ffffffffffffffff60a01b19811692909217179094557f8a0fc1c123dc1e6e4ad1421310c9f2c02480a510d361300fdcda6daf519d57b691905b604051908152a360015f805160206142da8339815191525580f35b8360039183015416910154813b15610457575f916064839260405194859384926370182b2f60e11b8452600484015288881660248401528960448401525af18015610a0b57612245575b80612179565b6121da9197509280926122797f8a0fc1c123dc1e6e4ad1421310c9f2c02480a510d361300fdcda6daf519d57b69695613301565b5f9892509293945061223f565b634e487b7160e01b5f52602160045260245ffd5b5f80806122a881943461395e565b885af16122b361343e565b50156105e4575f612164565b813d83116122e1575b6122d28183613314565b8101031261045757875f61215a565b503d6122c8565b9161232e926122f982308a866138f5565b855460405163095ea7b360e01b8152908a166001600160a01b0316600482015260248101839052938b90859081906044820190565b03815f875af1928315610a0b5761239e948c946123e3575b508654604051633bad56cb60e01b81523060048201526001600160a01b03938416602482015292909116604483015260648201929092525f6084820181905260a48201819052909384928a16918391829060c4820190565b03925af1908115610a0b5788916123ba575b505060ff90612169565b813d83116123dc575b6123cd8183613314565b8101031261045757865f6123b0565b503d6123c3565b6123f990853d8711610b5d57610b4e8183613314565b505f612346565b634e487b7160e01b5f52601160045260245ffd5b6001600160401b03915060a01c1642105f61209a565b5060038301548411612077565b34610457576020366003190112610457576124506133b3565b506004355f52600760205260c060405f2060a060405191612470836132e6565b8054928381526001820154906020810191825260028301549260408201938452600460038201549160608401928352015493600180871b0393608084019385871685526001600160401b03978891019660a01c16865260405197885251602088015251604087015251606086015251166080840152511660a0820152f35b3461045757602080600319360112610457576001600160a01b03612510613222565b165f526009815260405f20604051908183825491828152019081925f52845f20905f5b8682821061258857868661254982880383613314565b60405192839281840190828552518091526040840192915f5b82811061257157505050500390f35b835185528695509381019392810192600101612562565b835485529093019260019283019201612533565b34610457575f36600319011261045757602060ff5f805160206142ba83398151915254166040519015158152f35b34610457575f366003190112610457576004546040516001600160a01b039091168152602090f35b6125fb36613350565b9061260461389c565b61260c6138cb565b805f52600560205260405f20805415610b8a5760058101549060ff8260101c16600481101561228657610b645760ff8260081c16600381101561228657600103610b645760078101544210156127c157825f52600660205260405f2093612671614142565b946002810192835480155f1461279f5750600601545b821061278d576001600160a01b039360181c8416806127555750813410610a1657816020937f0e54eff26401bf69b81b26f60bd85ef47f5d85275c1d268d84f68d6897431c47955b6001840198818a5416612747575b1697886001600160601b0360a01b82541617905555600581019081549060ff8216159081612738575b50612728575b5050604051908152a360015f805160206142da83398151915255005b60ff19166001179055858061270c565b60049150015483101588612706565b612750896137a4565b6126dd565b6020937f0e54eff26401bf69b81b26f60bd85ef47f5d85275c1d268d84f68d6897431c47956127888580948b30916138f5565b6126cf565b604051635069375b60e11b8152600490fd5b6127bc91506127106127b5600385015483613393565b04906133a6565b612687565b60405163d02e774d60e01b8152600490fd5b346104575760203660031901126104575760206127ee613222565b6040517f00000000000000000000000000000000000000000000000000000000000000006001600160a01b039081169216919091148152f35b34610457576020366003190112610457576004355f52600660205260c060405f2080549060018060a01b0360018201541690600281015460038201549060ff6005600485015494015416936040519586526020860152604085015260608401526080830152151560a0820152f35b34610457575f366003190112610457576020600c54604051908152f35b34610457575f366003190112610457577f00000000000000000000000000000000000000000000000000000000000000006001600160a01b0316300361291c5760206040517f360894a13ba1a3210667c828492db98dca3e2076cc3735a920a3ca505d382bbc8152f35b60405163703e46dd60e11b8152600490fd5b34610457576020366003190112610457576001600160a01b0361294f613222565b165f52600b602052602060ff60405f2054166040519015158152f35b60403660031901126104575761297f613222565b60249081356001600160401b0381116104575736602382011215610457578060040135916129ac83613335565b6129b96040519182613314565b838152602093848201933687838301011161045757815f92888893018737830101526001600160a01b037f00000000000000000000000000000000000000000000000000000000000000008116308114908115612bd0575b5061291c57612a1e614142565b7f189ab7a9244df0848122154315af71fe140f3db0fe014031783b0946b8c9d2e3805f525f8051602061429a83398151915287528260405f20921691825f52875260ff60405f20541615612bb35750506040516352d1902d60e01b8152908316948082600481895afa9182915f93612b83575b5050612aaf57604051634c9c8ce360e01b8152600481018690528690fd5b8490867f360894a13ba1a3210667c828492db98dca3e2076cc3735a920a3ca505d382bbc91828103612b6e5750843b15612b58575080546001600160a01b03191682179055604051907fbc7cd75a20ee27fd9adebab32041f755214dbc6bffa90cc0225b39da2e5c2d3b5f80a2815115612b3e57505f61001a9381925190845af4612b3861343e565b91614236565b9250505034612b4957005b63b398979f60e01b8152600490fd5b604051634c9c8ce360e01b815260048101849052fd5b60405190632a87526960e21b82526004820152fd5b9080929350813d8311612bac575b612b9b8183613314565b810103126104575751908780612a91565b503d612b91565b60449250876040519263e2517d3f60e01b84526004840152820152fd5b9050817f360894a13ba1a3210667c828492db98dca3e2076cc3735a920a3ca505d382bbc5416141587612a11565b34610457575f366003190112610457576020600d54604051908152f35b34610457575f36600319011261045757612c3361346d565b5f805160206142ba833981519152805460ff811615612c905760ff191690557f5db9ee0a495bf2e6ff9c91a7834c1ba4fdd244a5e8aa4e537bd38aeae4b073aa6020612c7d614142565b6040516001600160a01b039091168152a1005b604051638dfc202b60e01b8152600490fd5b34610457575f3660031901126104575760206040516103e88152f35b3461045757604036600319011261045757612cd7613222565b60243580151581036104575761001a91612cef61346d565b60018060a01b03165f52600b60205260405f209060ff801983541691151516179055565b3461045757604036600319011261045757612d2c613238565b6001600160a01b0380612d3d614142565b1690821603612d525761001a90600435613811565b60405163334bd91960e11b8152600490fd5b34610457575f3660031901126104575760206040515f8152f35b34610457576020806003193601126104575760043590815f526005815260405f2090815415610b8a5760018201546001600160a01b0390811681612dc0614142565b16141580612e7e575b61134a5760058301805460ff8160101c16600481101561228657610b645760081c60ff1660038110156122865760011480612e65575b612e57575b6202000062ff0000198254161790556002830154165f52600a8152600360405f209201545f52525f60408120557f411aee90354c51b1b04cd563fcab2617142a9d50da19232d888547c8a1b7fd8a5f80a2005b612e60856137a4565b612e04565b50845f526006835281600160405f200154161515612dff565b50612e87614142565b7f97667070c54ef182b0f5858b034beac1b6f3089aa2d3188bb1e8929f4fa9b9295f525f8051602061429a83398151915283528160405f2091165f52825260ff60405f20541615612dc9565b346104575760403660031901126104575761001a600435612ef2613238565b90805f525f8051602061429a833981519152602052612f17600160405f2001546134d4565b613742565b3461045757602036600319011261045757612f35613222565b612f3d61346d565b600380546001600160a01b0319166001600160a01b0392909216919091179055005b34610457576020366003190112610457576004355f525f8051602061429a8339815191526020526020600160405f200154604051908152f35b34610457576020366003190112610457575f610160604051612fb9816132ca565b8281528260208201528260408201528260608201528260808201528260a08201528260c08201528260e082015282610100820152826101208201528261014082015201526004355f52600560205260405f20604051613017816132ca565b8154815260018201546001600160a01b03908116602083015260028301541660408201526003820154606082015260048201546080820152600582015461306460ff821660a08401613366565b60ff8160081c1660038110156122865760c0830152600460ff8260101c16101561228657610180928160ff60089360101c1660e085015260018060a01b039060181c16610100840152600681015461012084015260078101546101408401520154610160820152610160604051918051835260018060a01b03602082015116602084015260018060a01b036040820151166040840152606081015160608401526080810151608084015261312060a082015160a08501906132a3565b61313260c082015160c08501906132b0565b61314460e082015160e08501906132bd565b610100818101516001600160a01b031690840152610120808201519084015261014080820151908401520151610160820152f35b3461045757604036600319011261045757613191613222565b6001600160a01b03165f90815260096020526040902080546024359190821015610457576020916131c19161327a565b90546040519160031b1c8152f35b34610457576020366003190112610457576004359063ffffffff60e01b821680920361045757602091637965db0b60e01b8114908115613211575b5015158152f35b6301ffc9a760e01b1490508361320a565b600435906001600160a01b038216820361045757565b602435906001600160a01b038216820361045757565b608435906001600160a01b038216820361045757565b604435906001600160a01b038216820361045757565b805482101561328f575f5260205f2001905f90565b634e487b7160e01b5f52603260045260245ffd5b9060028210156122865752565b9060038210156122865752565b9060048210156122865752565b61018081019081106001600160401b0382111761113157604052565b60c081019081106001600160401b0382111761113157604052565b6001600160401b03811161113157604052565b90601f801991011681019081106001600160401b0382111761113157604052565b6001600160401b03811161113157601f01601f191660200190565b6040906003190112610457576004359060243590565b60028210156122865752565b9060048110156122865762ff000082549160101b169062ff00001916179055565b8181029291811591840414171561240057565b9190820180921161240057565b604051906133c0826132e6565b5f60a0838281528260208201528260408201528260608201528260808201520152565b5f1981146124005760010190565b805468010000000000000000811015611131576134139160018201815561327a565b819291549060031b91821b915f19901b1916179055565b51906001600160a01b038216820361045757565b3d15613468573d9061344f82613335565b9161345d6040519384613314565b82523d5f602084013e565b606090565b613475614142565b6001600160a01b03165f8181527fb7db2dd08fcb62d0c9e08c51941cae53c267786a0b75803fb7960902fc8ef97d602052604090205460ff16156134b65750565b6044906040519063e2517d3f60e01b825260048201525f6024820152fd5b6134dc614142565b90805f525f8051602061429a83398151915260205260405f209160018060a01b031691825f5260205260ff60405f20541615613516575050565b604492506040519163e2517d3f60e01b835260048301526024820152fd5b6001600160a01b039081165f8181527fb7db2dd08fcb62d0c9e08c51941cae53c267786a0b75803fb7960902fc8ef97d60205260409020549091905f8051602061429a8339815191529060ff166135d8575f805260205260405f20825f5260205260405f20600160ff198254161790556135ac614142565b16905f7f2f8788117e7eff1d82e926ec794901d17c78024a50270940304540a733656f0d8180a4600190565b5050505f90565b6001600160a01b039081165f8181527f448256db8f8fb95ee3eaaf89c1051414494e85cebb6057fcf996cc3d0ccfb45660205260409020547f97667070c54ef182b0f5858b034beac1b6f3089aa2d3188bb1e8929f4fa9b92992905f8051602061429a8339815191529060ff166136a257835f5260205260405f20825f5260205260405f20600160ff19825416179055613677614142565b16917f2f8788117e7eff1d82e926ec794901d17c78024a50270940304540a733656f0d5f80a4600190565b505050505f90565b6001600160a01b039081165f8181527fab71e3f32666744d246edff3f96e4bdafee2e9867098cdd118a979a7464786a860205260409020547f189ab7a9244df0848122154315af71fe140f3db0fe014031783b0946b8c9d2e392905f8051602061429a8339815191529060ff166136a257835f5260205260405f20825f5260205260405f20600160ff19825416179055613677614142565b5f8181525f8051602061429a833981519152602081815260408084206001600160a01b039687168086529252909220549293919260ff166136a257835f5260205260405f20825f5260205260405f20600160ff19825416179055613677614142565b5f90815260056020818152604080842060069092529092209101546001600160a01b039060181c8116806137f857505f8083600282959460018496015416910154905af16137f061343e565b50156105e457565b9091600261380f9360018301541691015491614109565b565b5f8181525f8051602061429a833981519152602081815260408084206001600160a01b039687168086529252909220549293919260ff16156136a257835f5260205260405f20825f5260205260405f2060ff198154169055613871614142565b16917ff6391f5c32d9c69d2a47ea670b442974b53935d1edc7fd64eb21e047a839171b5f80a4600190565b5f805160206142da83398151915260028154146138b95760029055565b604051633ee5aeb560e01b8152600490fd5b60ff5f805160206142ba83398151915254166138e357565b60405163d93c066560e01b8152600490fd5b6040516323b872dd60e01b60208201526001600160a01b039283166024820152929091166044830152606482019290925261380f9161394182608481015b03601f198101845283613314565b61419b565b90816020910312610457575180151581036104575790565b9190820391821161240057565b6001600160a01b03165f908152600b602052604090205460ff161561398c57565b604051630e63306760e11b8152600490fd5b156139a557565b60405162461bcd60e51b815260206004820152600c60248201526b139bdd08185c1c1c9bdd995960a21b6044820152606490fd5b9493929092600281101561228657613ba05750604080516331a9108f60e11b8152600481018390526001600160a01b039384169391926020918281602481895afa908115613b96575f91613b61575b5083808916911603613b3157835163e985e9c560e01b81526001600160a01b03979097166004880152306024880152949593948185604481895afa948515613b27575f95613b08575b508415613a87575b5050505061380f915061399e565b8394506024829394518097819363020604bf60e21b835260048301525afa928315613aff57505f92613ac6575b5061380f92501630145f808080613a79565b90915082813d8311613af8575b613add8183613314565b8101031261045757613af161380f9261342a565b905f613ab4565b503d613ad3565b513d5f823e3d90fd5b613b20919550823d8411610b5d57610b4e8183613314565b935f613a71565b84513d5f823e3d90fd5b835162461bcd60e51b81526004810183905260096024820152682737ba1037bbb732b960b91b6044820152606490fd5b90508281813d8311613b8f575b613b788183613314565b8101031261045757613b899061342a565b5f613a28565b503d613b6e565b85513d5f823e3d90fd5b604051627eeac760e11b81526001600160a01b038681166004830152602482019390935293946020949093909216918481604481865afa908115610a0b575f91613c8c575b5010613c505760405163e985e9c560e01b81526001600160a01b039290921660048301523060248301528290829060449082905afa908115610a0b5761380f925f92613c33575b505061399e565b613c499250803d10610b5d57610b4e8183613314565b5f80613c2c565b60405162461bcd60e51b8152600481018490526014602482015273496e73756666696369656e742062616c616e636560601b6044820152606490fd5b90508481813d8311613cb2575b613ca38183613314565b8101031261045757515f613be5565b503d613c99565b929190604090604482518096819363152a902d60e11b8352600483015285602483015260018060a01b03165afa92835f915f95613d38575b50613d0057505090505f905f90565b928115806135d8576127109182810292818404149015171561240057613d24570490565b634e487b7160e01b5f52601260045260245ffd5b915093506040813d604011613d72575b81613d5560409383613314565b81010312610457576020613d688261342a565b910151935f613cf1565b3d9150613d48565b908160609103126104575760405190606082018281106001600160401b0382111761113157613dbc91604091825280518452602081015160208501520161342a565b604082015290565b9093929160018060a01b0392836002541693604095865190630dac272b60e21b8252826004998188168b8501521690816024840152856044840152606483015287826084818a5afa948515613f3a575f925f96613ffc575b5085613e2b84613e309361395e565b61395e565b9681613f4457505080613eb0575b508215159081613ea4575b50613e78575b50505f80809381935af1613e6161343e565b5015613e6b575050565b516312171d8360e31b8152fd5b5f80809381935af1613e8861343e565b5015613e95575f80613e4f565b5050516312171d8360e31b8152fd5b9050811615155f613e49565b87606083600254168951928380926301e5eb1d60e41b82525afa908115613f3a575f8093858b839584958591613f0b575b500151165af1613eef61343e565b5015613efb575f613e3e565b85516312171d8360e31b81528790fd5b613f2d915060603d606011613f33575b613f258183613314565b810190613d7a565b5f613ee1565b503d613f1b565b88513d5f823e3d90fd5b829a99919697989a959495613f91575b50505061380f9697508115159081613f85575b50613f74575b5050614109565b613f7e9183614109565b5f80613f6d565b9050821615155f613f67565b6060908b51928380926301e5eb1d60e41b82525afa908115613ff25761380f999a613fca939285925f91613fd3575b5001511686614109565b87965f80613f54565b613fec915060603d606011613f3357613f258183613314565b5f613fc0565b8a513d5f823e3d90fd5b89809297508194503d831161402f575b6140168183613314565b8101031261045757815160209092015194613e30613e1c565b503d61400c565b9390946002811015612286576140a557506001600160a01b0316803b1561045757604051632142170760e11b81526001600160a01b03938416600482015293909216602484015260448301525f908290606490829084905af18015610a0b5761409c5750565b61380f90613301565b6001600160a01b03918216939192909190843b15610457575f9460c493869286604051998a988997637921219560e11b89521660048801521660248601526044850152606484015260a060848401528160a48401525af18015610a0b5761409c5750565b60405163a9059cbb60e01b60208201526001600160a01b039092166024830152604482019290925261380f916139418260648101613933565b601436101580614169575b15614165576013193601368111610457573560601c90565b3390565b50337f00000000000000000000000000000000000000000000000000000000000000006001600160a01b03161461414d565b905f602091828151910182855af115610a0b575f513d6141ec57506001600160a01b0381163b155b6141ca5750565b604051635274afe760e01b81526001600160a01b039091166004820152602490fd5b600114156141c3565b60ff7ff0c57e16840df040f15088dc2f81fe391c3923bec73e23a9662efc9c229c6a005460401c161561422457565b604051631afcd79f60e31b8152600490fd5b9061425d575080511561424b57602081519101fd5b60405163d6bda27560e01b8152600490fd5b81511580614290575b61426e575090565b604051639996b31560e01b81526001600160a01b039091166004820152602490fd5b50803b1561426656fe02dd7bc7dec4dceedda775e58dd541e08a116c6c53815c0bd028192f7b626800cd5ed15c6e187e77e9aee88184c21f4f2182ab5827cb3b7e07fbedcd63f033009b779b17422d0df92223018b32b4d1fa46e071723d6817e2486d003becc55f00a2646970667358221220c4ef55e50edcea97e4ff8091bcda96ef8ab86e54fd6f3a5aefa1622c6806826a64736f6c63430008180033",
  "linkReferences": {},
  "deployedLinkReferences": {}
}