{
  "_format": "hh-sol-artifact-1",
  "contractName": "AlmaNFT1155",
  "sourceName": "contracts/nft/AlmaNFT1155.sol",
  "abi": [
    {
      "inputs": [
        {
          "internalType": "address",
          "name": "trustedForwarder",
          "type": "address"
        }
      ],
      "stateMutability": "nonpayable",
      "type": "constructor"
    },
    {
      "inputs": [],
      "name": "AccessControlBadConfirmation",
      "type": "error"
    },
    {
      "inputs": [
        {
          "internalType": "address",
          "name": "account",
          "type": "address"
        },
        {
          "internalType": "bytes32",
          "name": "neededRole",
          "type": "bytes32"
        }
      ],
      "name": "AccessControlUnauthorizedAccount",
      "type": "error"
    },
    {
      "inputs": [
        {
          "internalType": "address",
          "name": "target",
          "type": "address"
        }
      ],
      "name": "AddressEmptyCode",
      "type": "error"
    },
    {
      "inputs": [
        {
          "internalType": "address",
          "name": "sender",
          "type": "address"
        },
        {
          "internalType": "uint256",
          "name": "balance",
          "type": "uint256"
        },
        {
          "internalType": "uint256",
          "name": "needed",
          "type": "uint256"
        },
        {
          "internalType": "uint256",
          "name": "tokenId",
          "type": "uint256"
        }
      ],
      "name": "ERC1155InsufficientBalance",
      "type": "error"
    },
    {
      "inputs": [
        {
          "internalType": "address",
          "name": "approver",
          "type": "address"
        }
      ],
      "name": "ERC1155InvalidApprover",
      "type": "error"
    },
    {
      "inputs": [
        {
          "internalType": "uint256",
          "name": "idsLength",
          "type": "uint256"
        },
        {
          "internalType": "uint256",
          "name": "valuesLength",
          "type": "uint256"
        }
      ],
      "name": "ERC1155InvalidArrayLength",
      "type": "error"
    },
    {
      "inputs": [
        {
          "internalType": "address",
          "name": "operator",
          "type": "address"
        }
      ],
      "name": "ERC1155InvalidOperator",
      "type": "error"
    },
    {
      "inputs": [
        {
          "internalType": "address",
          "name": "receiver",
          "type": "address"
        }
      ],
      "name": "ERC1155InvalidReceiver",
      "type": "error"
    },
    {
      "inputs": [
        {
          "internalType": "address",
          "name": "sender",
          "type": "address"
        }
      ],
      "name": "ERC1155InvalidSender",
      "type": "error"
    },
    {
      "inputs": [
        {
          "internalType": "address",
          "name": "operator",
          "type": "address"
        },
        {
          "internalType": "address",
          "name": "owner",
          "type": "address"
        }
      ],
      "name": "ERC1155MissingApprovalForAll",
      "type": "error"
    },
    {
      "inputs": [
        {
          "internalType": "address",
          "name": "implementation",
          "type": "address"
        }
      ],
      "name": "ERC1967InvalidImplementation",
      "type": "error"
    },
    {
      "inputs": [],
      "name": "ERC1967NonPayable",
      "type": "error"
    },
    {
      "inputs": [
        {
          "internalType": "uint256",
          "name": "numerator",
          "type": "uint256"
        },
        {
          "internalType": "uint256",
          "name": "denominator",
          "type": "uint256"
        }
      ],
      "name": "ERC2981InvalidDefaultRoyalty",
      "type": "error"
    },
    {
      "inputs": [
        {
          "internalType": "address",
          "name": "receiver",
          "type": "address"
        }
      ],
      "name": "ERC2981InvalidDefaultRoyaltyReceiver",
      "type": "error"
    },
    {
      "inputs": [
        {
          "internalType": "uint256",
          "name": "tokenId",
          "type": "uint256"
        },
        {
          "internalType": "uint256",
          "name": "numerator",
          "type": "uint256"
        },
        {
          "internalType": "uint256",
          "name": "denominator",
          "type": "uint256"
        }
      ],
      "name": "ERC2981InvalidTokenRoyalty",
      "type": "error"
    },
    {
      "inputs": [
        {
          "internalType": "uint256",
          "name": "tokenId",
          "type": "uint256"
        },
        {
          "internalType": "address",
          "name": "receiver",
          "type": "address"
        }
      ],
      "name": "ERC2981InvalidTokenRoyaltyReceiver",
      "type": "error"
    },
    {
      "inputs": [],
      "name": "EnforcedPause",
      "type": "error"
    },
    {
      "inputs": [],
      "name": "ExpectedPause",
      "type": "error"
    },
    {
      "inputs": [],
      "name": "FailedCall",
      "type": "error"
    },
    {
      "inputs": [],
      "name": "InvalidInitialization",
      "type": "error"
    },
    {
      "inputs": [],
      "name": "MaxSupplyExceeded",
      "type": "error"
    },
    {
      "inputs": [],
      "name": "NotCreator",
      "type": "error"
    },
    {
      "inputs": [],
      "name": "NotInitializing",
      "type": "error"
    },
    {
      "inputs": [],
      "name": "TokenDoesNotExist",
      "type": "error"
    },
    {
      "inputs": [],
      "name": "UUPSUnauthorizedCallContext",
      "type": "error"
    },
    {
      "inputs": [
        {
          "internalType": "bytes32",
          "name": "slot",
          "type": "bytes32"
        }
      ],
      "name": "UUPSUnsupportedProxiableUUID",
      "type": "error"
    },
    {
      "inputs": [],
      "name": "ZeroAmount",
      "type": "error"
    },
    {
      "anonymous": false,
      "inputs": [
        {
          "indexed": true,
          "internalType": "address",
          "name": "account",
          "type": "address"
        },
        {
          "indexed": true,
          "internalType": "address",
          "name": "operator",
          "type": "address"
        },
        {
          "indexed": false,
          "internalType": "bool",
          "name": "approved",
          "type": "bool"
        }
      ],
      "name": "ApprovalForAll",
      "type": "event"
    },
    {
      "anonymous": false,
      "inputs": [
        {
          "indexed": true,
          "internalType": "address",
          "name": "newCollectionManager",
          "type": "address"
        }
      ],
      "name": "CollectionManagerUpdated",
      "type": "event"
    },
    {
      "anonymous": false,
      "inputs": [
        {
          "indexed": true,
          "internalType": "uint256",
          "name": "recordId",
          "type": "uint256"
        },
        {
          "indexed": true,
          "internalType": "uint256",
          "name": "tokenId",
          "type": "uint256"
        },
        {
          "indexed": false,
          "internalType": "uint256",
          "name": "amount",
          "type": "uint256"
        },
        {
          "indexed": false,
          "internalType": "address",
          "name": "owner",
          "type": "address"
        },
        {
          "indexed": false,
          "internalType": "address",
          "name": "user",
          "type": "address"
        },
        {
          "indexed": false,
          "internalType": "uint64",
          "name": "expiry",
          "type": "uint64"
        }
      ],
      "name": "CreateUserRecord",
      "type": "event"
    },
    {
      "anonymous": false,
      "inputs": [
        {
          "indexed": true,
          "internalType": "uint256",
          "name": "recordId",
          "type": "uint256"
        }
      ],
      "name": "DeleteUserRecord",
      "type": "event"
    },
    {
      "anonymous": false,
      "inputs": [
        {
          "indexed": false,
          "internalType": "uint64",
          "name": "version",
          "type": "uint64"
        }
      ],
      "name": "Initialized",
      "type": "event"
    },
    {
      "anonymous": false,
      "inputs": [
        {
          "indexed": true,
          "internalType": "address",
          "name": "newJeongSBT",
          "type": "address"
        }
      ],
      "name": "JeongSBTUpdated",
      "type": "event"
    },
    {
      "anonymous": false,
      "inputs": [
        {
          "indexed": false,
          "internalType": "address",
          "name": "account",
          "type": "address"
        }
      ],
      "name": "Paused",
      "type": "event"
    },
    {
      "anonymous": false,
      "inputs": [
        {
          "indexed": true,
          "internalType": "bytes32",
          "name": "role",
          "type": "bytes32"
        },
        {
          "indexed": true,
          "internalType": "bytes32",
          "name": "previousAdminRole",
          "type": "bytes32"
        },
        {
          "indexed": true,
          "internalType": "bytes32",
          "name": "newAdminRole",
          "type": "bytes32"
        }
      ],
      "name": "RoleAdminChanged",
      "type": "event"
    },
    {
      "anonymous": false,
      "inputs": [
        {
          "indexed": true,
          "internalType": "bytes32",
          "name": "role",
          "type": "bytes32"
        },
        {
          "indexed": true,
          "internalType": "address",
          "name": "account",
          "type": "address"
        },
        {
          "indexed": true,
          "internalType": "address",
          "name": "sender",
          "type": "address"
        }
      ],
      "name": "RoleGranted",
      "type": "event"
    },
    {
      "anonymous": false,
      "inputs": [
        {
          "indexed": true,
          "internalType": "bytes32",
          "name": "role",
          "type": "bytes32"
        },
        {
          "indexed": true,
          "internalType": "address",
          "name": "account",
          "type": "address"
        },
        {
          "indexed": true,
          "internalType": "address",
          "name": "sender",
          "type": "address"
        }
      ],
      "name": "RoleRevoked",
      "type": "event"
    },
    {
      "anonymous": false,
      "inputs": [
        {
          "indexed": true,
          "internalType": "uint256",
          "name": "tokenId",
          "type": "uint256"
        },
        {
          "indexed": true,
          "internalType": "address",
          "name": "from",
          "type": "address"
        },
        {
          "indexed": false,
          "internalType": "uint256",
          "name": "amount",
          "type": "uint256"
        }
      ],
      "name": "TokenBurned",
      "type": "event"
    },
    {
      "anonymous": false,
      "inputs": [
        {
          "indexed": true,
          "internalType": "uint256",
          "name": "tokenId",
          "type": "uint256"
        },
        {
          "indexed": true,
          "internalType": "address",
          "name": "creator",
          "type": "address"
        },
        {
          "indexed": false,
          "internalType": "uint256",
          "name": "maxSupply",
          "type": "uint256"
        },
        {
          "indexed": false,
          "internalType": "uint256",
          "name": "collectionId",
          "type": "uint256"
        },
        {
          "indexed": false,
          "internalType": "string",
          "name": "uri",
          "type": "string"
        }
      ],
      "name": "TokenCreated",
      "type": "event"
    },
    {
      "anonymous": false,
      "inputs": [
        {
          "indexed": true,
          "internalType": "uint256",
          "name": "tokenId",
          "type": "uint256"
        },
        {
          "indexed": true,
          "internalType": "address",
          "name": "to",
          "type": "address"
        },
        {
          "indexed": false,
          "internalType": "uint256",
          "name": "amount",
          "type": "uint256"
        }
      ],
      "name": "TokenMinted",
      "type": "event"
    },
    {
      "anonymous": false,
      "inputs": [
        {
          "indexed": true,
          "internalType": "uint256",
          "name": "tokenId",
          "type": "uint256"
        },
        {
          "indexed": false,
          "internalType": "bool",
          "name": "verified",
          "type": "bool"
        }
      ],
      "name": "TokenVerified",
      "type": "event"
    },
    {
      "anonymous": false,
      "inputs": [
        {
          "indexed": true,
          "internalType": "address",
          "name": "operator",
          "type": "address"
        },
        {
          "indexed": true,
          "internalType": "address",
          "name": "from",
          "type": "address"
        },
        {
          "indexed": true,
          "internalType": "address",
          "name": "to",
          "type": "address"
        },
        {
          "indexed": false,
          "internalType": "uint256[]",
          "name": "ids",
          "type": "uint256[]"
        },
        {
          "indexed": false,
          "internalType": "uint256[]",
          "name": "values",
          "type": "uint256[]"
        }
      ],
      "name": "TransferBatch",
      "type": "event"
    },
    {
      "anonymous": false,
      "inputs": [
        {
          "indexed": true,
          "internalType": "address",
          "name": "operator",
          "type": "address"
        },
        {
          "indexed": true,
          "internalType": "address",
          "name": "from",
          "type": "address"
        },
        {
          "indexed": true,
          "internalType": "address",
          "name": "to",
          "type": "address"
        },
        {
          "indexed": false,
          "internalType": "uint256",
          "name": "id",
          "type": "uint256"
        },
        {
          "indexed": false,
          "internalType": "uint256",
          "name": "value",
          "type": "uint256"
        }
      ],
      "name": "TransferSingle",
      "type": "event"
    },
    {
      "anonymous": false,
      "inputs": [
        {
          "indexed": false,
          "internalType": "string",
          "name": "value",
          "type": "string"
        },
        {
          "indexed": true,
          "internalType": "uint256",
          "name": "id",
          "type": "uint256"
        }
      ],
      "name": "URI",
      "type": "event"
    },
    {
      "anonymous": false,
      "inputs": [
        {
          "indexed": false,
          "internalType": "address",
          "name": "account",
          "type": "address"
        }
      ],
      "name": "Unpaused",
      "type": "event"
    },
    {
      "anonymous": false,
      "inputs": [
        {
          "indexed": true,
          "internalType": "address",
          "name": "implementation",
          "type": "address"
        }
      ],
      "name": "Upgraded",
      "type": "event"
    },
    {
      "inputs": [],
      "name": "DEFAULT_ADMIN_ROLE",
      "outputs": [
        {
          "internalType": "bytes32",
          "name": "",
          "type": "bytes32"
        }
      ],
      "stateMutability": "view",
      "type": "function"
    },
    {
      "inputs": [],
      "name": "DIAMOND_DISCOUNT_BPS",
      "outputs": [
        {
          "internalType": "uint256",
          "name": "",
          "type": "uint256"
        }
      ],
      "stateMutability": "view",
      "type": "function"
    },
    {
      "inputs": [],
      "name": "GOLD_DISCOUNT_BPS",
      "outputs": [
        {
          "internalType": "uint256",
          "name": "",
          "type": "uint256"
        }
      ],
      "stateMutability": "view",
      "type": "function"
    },
    {
      "inputs": [],
      "name": "MINTER_ROLE",
      "outputs": [
        {
          "internalType": "bytes32",
          "name": "",
          "type": "bytes32"
        }
      ],
      "stateMutability": "view",
      "type": "function"
    },
    {
      "inputs": [],
      "name": "PAUSER_ROLE",
      "outputs": [
        {
          "internalType": "bytes32",
          "name": "",
          "type": "bytes32"
        }
      ],
      "stateMutability": "view",
      "type": "function"
    },
    {
      "inputs": [],
      "name": "ROYALTY_ADMIN_ROLE",
      "outputs": [
        {
          "internalType": "bytes32",
          "name": "",
          "type": "bytes32"
        }
      ],
      "stateMutability": "view",
      "type": "function"
    },
    {
      "inputs": [],
      "name": "SILVER_DISCOUNT_BPS",
      "outputs": [
        {
          "internalType": "uint256",
          "name": "",
          "type": "uint256"
        }
      ],
      "stateMutability": "view",
      "type": "function"
    },
    {
      "inputs": [],
      "name": "UPGRADER_ROLE",
      "outputs": [
        {
          "internalType": "bytes32",
          "name": "",
          "type": "bytes32"
        }
      ],
      "stateMutability": "view",
      "type": "function"
    },
    {
      "inputs": [],
      "name": "UPGRADE_INTERFACE_VERSION",
      "outputs": [
        {
          "internalType": "string",
          "name": "",
          "type": "string"
        }
      ],
      "stateMutability": "view",
      "type": "function"
    },
    {
      "inputs": [
        {
          "internalType": "address",
          "name": "account",
          "type": "address"
        },
        {
          "internalType": "uint256",
          "name": "id",
          "type": "uint256"
        }
      ],
      "name": "balanceOf",
      "outputs": [
        {
          "internalType": "uint256",
          "name": "",
          "type": "uint256"
        }
      ],
      "stateMutability": "view",
      "type": "function"
    },
    {
      "inputs": [
        {
          "internalType": "address[]",
          "name": "accounts",
          "type": "address[]"
        },
        {
          "internalType": "uint256[]",
          "name": "ids",
          "type": "uint256[]"
        }
      ],
      "name": "balanceOfBatch",
      "outputs": [
        {
          "internalType": "uint256[]",
          "name": "",
          "type": "uint256[]"
        }
      ],
      "stateMutability": "view",
      "type": "function"
    },
    {
      "inputs": [
        {
          "internalType": "address",
          "name": "to",
          "type": "address"
        },
        {
          "internalType": "uint256[]",
          "name": "tokenIds",
          "type": "uint256[]"
        },
        {
          "internalType": "uint256[]",
          "name": "amounts",
          "type": "uint256[]"
        }
      ],
      "name": "batchMint",
      "outputs": [],
      "stateMutability": "nonpayable",
      "type": "function"
    },
    {
      "inputs": [
        {
          "internalType": "address",
          "name": "from",
          "type": "address"
        },
        {
          "internalType": "uint256",
          "name": "tokenId",
          "type": "uint256"
        },
        {
          "internalType": "uint256",
          "name": "amount",
          "type": "uint256"
        }
      ],
      "name": "burn",
      "outputs": [],
      "stateMutability": "nonpayable",
      "type": "function"
    },
    {
      "inputs": [
        {
          "internalType": "address",
          "name": "account",
          "type": "address"
        },
        {
          "internalType": "uint256[]",
          "name": "ids",
          "type": "uint256[]"
        },
        {
          "internalType": "uint256[]",
          "name": "values",
          "type": "uint256[]"
        }
      ],
      "name": "burnBatch",
      "outputs": [],
      "stateMutability": "nonpayable",
      "type": "function"
    },
    {
      "inputs": [
        {
          "internalType": "address",
          "name": "owner",
          "type": "address"
        },
        {
          "internalType": "uint256",
          "name": "tokenId",
          "type": "uint256"
        }
      ],
      "name": "cleanExpiredRecords",
      "outputs": [],
      "stateMutability": "nonpayable",
      "type": "function"
    },
    {
      "inputs": [],
      "name": "collectionManager",
      "outputs": [
        {
          "internalType": "address",
          "name": "",
          "type": "address"
        }
      ],
      "stateMutability": "view",
      "type": "function"
    },
    {
      "inputs": [
        {
          "internalType": "uint256",
          "name": "maxSupply",
          "type": "uint256"
        },
        {
          "internalType": "uint256",
          "name": "initialSupply",
          "type": "uint256"
        },
        {
          "internalType": "string",
          "name": "tokenURI_",
          "type": "string"
        },
        {
          "internalType": "uint256",
          "name": "collectionId",
          "type": "uint256"
        },
        {
          "internalType": "string",
          "name": "category",
          "type": "string"
        },
        {
          "internalType": "address",
          "name": "royaltyReceiver",
          "type": "address"
        },
        {
          "internalType": "uint96",
          "name": "royaltyBps",
          "type": "uint96"
        }
      ],
      "name": "createToken",
      "outputs": [
        {
          "internalType": "uint256",
          "name": "",
          "type": "uint256"
        }
      ],
      "stateMutability": "nonpayable",
      "type": "function"
    },
    {
      "inputs": [
        {
          "internalType": "address",
          "name": "owner",
          "type": "address"
        },
        {
          "internalType": "address",
          "name": "user",
          "type": "address"
        },
        {
          "internalType": "uint256",
          "name": "tokenId",
          "type": "uint256"
        },
        {
          "internalType": "uint256",
          "name": "amount",
          "type": "uint256"
        },
        {
          "internalType": "uint64",
          "name": "expiry",
          "type": "uint64"
        }
      ],
      "name": "createUserRecord",
      "outputs": [
        {
          "internalType": "uint256",
          "name": "",
          "type": "uint256"
        }
      ],
      "stateMutability": "nonpayable",
      "type": "function"
    },
    {
      "inputs": [
        {
          "internalType": "address",
          "name": "",
          "type": "address"
        },
        {
          "internalType": "uint256",
          "name": "",
          "type": "uint256"
        }
      ],
      "name": "creatorTokens",
      "outputs": [
        {
          "internalType": "uint256",
          "name": "",
          "type": "uint256"
        }
      ],
      "stateMutability": "view",
      "type": "function"
    },
    {
      "inputs": [],
      "name": "defaultRoyaltyBps",
      "outputs": [
        {
          "internalType": "uint96",
          "name": "",
          "type": "uint96"
        }
      ],
      "stateMutability": "view",
      "type": "function"
    },
    {
      "inputs": [
        {
          "internalType": "uint256",
          "name": "recordId",
          "type": "uint256"
        }
      ],
      "name": "deleteUserRecord",
      "outputs": [],
      "stateMutability": "nonpayable",
      "type": "function"
    },
    {
      "inputs": [
        {
          "internalType": "uint256",
          "name": "id",
          "type": "uint256"
        }
      ],
      "name": "exists",
      "outputs": [
        {
          "internalType": "bool",
          "name": "",
          "type": "bool"
        }
      ],
      "stateMutability": "view",
      "type": "function"
    },
    {
      "inputs": [
        {
          "internalType": "address",
          "name": "owner",
          "type": "address"
        },
        {
          "internalType": "uint256",
          "name": "tokenId",
          "type": "uint256"
        }
      ],
      "name": "frozenBalanceOf",
      "outputs": [
        {
          "internalType": "uint256",
          "name": "",
          "type": "uint256"
        }
      ],
      "stateMutability": "view",
      "type": "function"
    },
    {
      "inputs": [
        {
          "internalType": "address",
          "name": "creator",
          "type": "address"
        }
      ],
      "name": "getCreatorTokens",
      "outputs": [
        {
          "internalType": "uint256[]",
          "name": "",
          "type": "uint256[]"
        }
      ],
      "stateMutability": "view",
      "type": "function"
    },
    {
      "inputs": [
        {
          "internalType": "address",
          "name": "user",
          "type": "address"
        }
      ],
      "name": "getKindnessDiscount",
      "outputs": [
        {
          "internalType": "uint256",
          "name": "discountBps",
          "type": "uint256"
        }
      ],
      "stateMutability": "view",
      "type": "function"
    },
    {
      "inputs": [
        {
          "internalType": "uint256",
          "name": "tokenId",
          "type": "uint256"
        }
      ],
      "name": "getRemainingSupply",
      "outputs": [
        {
          "internalType": "uint256",
          "name": "",
          "type": "uint256"
        }
      ],
      "stateMutability": "view",
      "type": "function"
    },
    {
      "inputs": [
        {
          "internalType": "bytes32",
          "name": "role",
          "type": "bytes32"
        }
      ],
      "name": "getRoleAdmin",
      "outputs": [
        {
          "internalType": "bytes32",
          "name": "",
          "type": "bytes32"
        }
      ],
      "stateMutability": "view",
      "type": "function"
    },
    {
      "inputs": [
        {
          "internalType": "bytes32",
          "name": "role",
          "type": "bytes32"
        },
        {
          "internalType": "address",
          "name": "account",
          "type": "address"
        }
      ],
      "name": "grantRole",
      "outputs": [],
      "stateMutability": "nonpayable",
      "type": "function"
    },
    {
      "inputs": [
        {
          "internalType": "address",
          "name": "user",
          "type": "address"
        }
      ],
      "name": "hasJeongSoul",
      "outputs": [
        {
          "internalType": "bool",
          "name": "",
          "type": "bool"
        }
      ],
      "stateMutability": "view",
      "type": "function"
    },
    {
      "inputs": [
        {
          "internalType": "bytes32",
          "name": "role",
          "type": "bytes32"
        },
        {
          "internalType": "address",
          "name": "account",
          "type": "address"
        }
      ],
      "name": "hasRole",
      "outputs": [
        {
          "internalType": "bool",
          "name": "",
          "type": "bool"
        }
      ],
      "stateMutability": "view",
      "type": "function"
    },
    {
      "inputs": [
        {
          "internalType": "address",
          "name": "defaultAdmin",
          "type": "address"
        },
        {
          "internalType": "string",
          "name": "baseURI_",
          "type": "string"
        },
        {
          "internalType": "address",
          "name": "_jeongSBT",
          "type": "address"
        },
        {
          "internalType": "uint96",
          "name": "_defaultRoyaltyBps",
          "type": "uint96"
        }
      ],
      "name": "initialize",
      "outputs": [],
      "stateMutability": "nonpayable",
      "type": "function"
    },
    {
      "inputs": [
        {
          "internalType": "address",
          "name": "account",
          "type": "address"
        },
        {
          "internalType": "address",
          "name": "operator",
          "type": "address"
        }
      ],
      "name": "isApprovedForAll",
      "outputs": [
        {
          "internalType": "bool",
          "name": "",
          "type": "bool"
        }
      ],
      "stateMutability": "view",
      "type": "function"
    },
    {
      "inputs": [
        {
          "internalType": "address",
          "name": "forwarder",
          "type": "address"
        }
      ],
      "name": "isTrustedForwarder",
      "outputs": [
        {
          "internalType": "bool",
          "name": "",
          "type": "bool"
        }
      ],
      "stateMutability": "view",
      "type": "function"
    },
    {
      "inputs": [],
      "name": "jeongSBT",
      "outputs": [
        {
          "internalType": "address",
          "name": "",
          "type": "address"
        }
      ],
      "stateMutability": "view",
      "type": "function"
    },
    {
      "inputs": [
        {
          "internalType": "address",
          "name": "to",
          "type": "address"
        },
        {
          "internalType": "uint256",
          "name": "tokenId",
          "type": "uint256"
        },
        {
          "internalType": "uint256",
          "name": "amount",
          "type": "uint256"
        }
      ],
      "name": "mint",
      "outputs": [],
      "stateMutability": "nonpayable",
      "type": "function"
    },
    {
      "inputs": [],
      "name": "name",
      "outputs": [
        {
          "internalType": "string",
          "name": "",
          "type": "string"
        }
      ],
      "stateMutability": "view",
      "type": "function"
    },
    {
      "inputs": [],
      "name": "pause",
      "outputs": [],
      "stateMutability": "nonpayable",
      "type": "function"
    },
    {
      "inputs": [],
      "name": "paused",
      "outputs": [
        {
          "internalType": "bool",
          "name": "",
          "type": "bool"
        }
      ],
      "stateMutability": "view",
      "type": "function"
    },
    {
      "inputs": [],
      "name": "proxiableUUID",
      "outputs": [
        {
          "internalType": "bytes32",
          "name": "",
          "type": "bytes32"
        }
      ],
      "stateMutability": "view",
      "type": "function"
    },
    {
      "inputs": [
        {
          "internalType": "bytes32",
          "name": "role",
          "type": "bytes32"
        },
        {
          "internalType": "address",
          "name": "callerConfirmation",
          "type": "address"
        }
      ],
      "name": "renounceRole",
      "outputs": [],
      "stateMutability": "nonpayable",
      "type": "function"
    },
    {
      "inputs": [
        {
          "internalType": "bytes32",
          "name": "role",
          "type": "bytes32"
        },
        {
          "internalType": "address",
          "name": "account",
          "type": "address"
        }
      ],
      "name": "revokeRole",
      "outputs": [],
      "stateMutability": "nonpayable",
      "type": "function"
    },
    {
      "inputs": [
        {
          "internalType": "uint256",
          "name": "tokenId",
          "type": "uint256"
        },
        {
          "internalType": "uint256",
          "name": "salePrice",
          "type": "uint256"
        }
      ],
      "name": "royaltyInfo",
      "outputs": [
        {
          "internalType": "address",
          "name": "receiver",
          "type": "address"
        },
        {
          "internalType": "uint256",
          "name": "amount",
          "type": "uint256"
        }
      ],
      "stateMutability": "view",
      "type": "function"
    },
    {
      "inputs": [
        {
          "internalType": "address",
          "name": "from",
          "type": "address"
        },
        {
          "internalType": "address",
          "name": "to",
          "type": "address"
        },
        {
          "internalType": "uint256[]",
          "name": "ids",
          "type": "uint256[]"
        },
        {
          "internalType": "uint256[]",
          "name": "values",
          "type": "uint256[]"
        },
        {
          "internalType": "bytes",
          "name": "data",
          "type": "bytes"
        }
      ],
      "name": "safeBatchTransferFrom",
      "outputs": [],
      "stateMutability": "nonpayable",
      "type": "function"
    },
    {
      "inputs": [
        {
          "internalType": "address",
          "name": "from",
          "type": "address"
        },
        {
          "internalType": "address",
          "name": "to",
          "type": "address"
        },
        {
          "internalType": "uint256",
          "name": "id",
          "type": "uint256"
        },
        {
          "internalType": "uint256",
          "name": "value",
          "type": "uint256"
        },
        {
          "internalType": "bytes",
          "name": "data",
          "type": "bytes"
        }
      ],
      "name": "safeTransferFrom",
      "outputs": [],
      "stateMutability": "nonpayable",
      "type": "function"
    },
    {
      "inputs": [
        {
          "internalType": "address",
          "name": "operator",
          "type": "address"
        },
        {
          "internalType": "bool",
          "name": "approved",
          "type": "bool"
        }
      ],
      "name": "setApprovalForAll",
      "outputs": [],
      "stateMutability": "nonpayable",
      "type": "function"
    },
    {
      "inputs": [
        {
          "internalType": "address",
          "name": "_collectionManager",
          "type": "address"
        }
      ],
      "name": "setCollectionManager",
      "outputs": [],
      "stateMutability": "nonpayable",
      "type": "function"
    },
    {
      "inputs": [
        {
          "internalType": "address",
          "name": "receiver",
          "type": "address"
        },
        {
          "internalType": "uint96",
          "name": "feeNumerator",
          "type": "uint96"
        }
      ],
      "name": "setDefaultRoyalty",
      "outputs": [],
      "stateMutability": "nonpayable",
      "type": "function"
    },
    {
      "inputs": [
        {
          "internalType": "address",
          "name": "_jeongSBT",
          "type": "address"
        }
      ],
      "name": "setJeongSBT",
      "outputs": [],
      "stateMutability": "nonpayable",
      "type": "function"
    },
    {
      "inputs": [
        {
          "internalType": "uint256",
          "name": "tokenId",
          "type": "uint256"
        },
        {
          "internalType": "address",
          "name": "receiver",
          "type": "address"
        },
        {
          "internalType": "uint96",
          "name": "feeNumerator",
          "type": "uint96"
        }
      ],
      "name": "setTokenRoyalty",
      "outputs": [],
      "stateMutability": "nonpayable",
      "type": "function"
    },
    {
      "inputs": [
        {
          "internalType": "uint256",
          "name": "tokenId",
          "type": "uint256"
        },
        {
          "internalType": "bool",
          "name": "verified",
          "type": "bool"
        }
      ],
      "name": "setVerified",
      "outputs": [],
      "stateMutability": "nonpayable",
      "type": "function"
    },
    {
      "inputs": [
        {
          "internalType": "bytes4",
          "name": "interfaceId",
          "type": "bytes4"
        }
      ],
      "name": "supportsInterface",
      "outputs": [
        {
          "internalType": "bool",
          "name": "",
          "type": "bool"
        }
      ],
      "stateMutability": "view",
      "type": "function"
    },
    {
      "inputs": [],
      "name": "symbol",
      "outputs": [
        {
          "internalType": "string",
          "name": "",
          "type": "string"
        }
      ],
      "stateMutability": "view",
      "type": "function"
    },
    {
      "inputs": [
        {
          "internalType": "uint256",
          "name": "",
          "type": "uint256"
        }
      ],
      "name": "tokenMetadata",
      "outputs": [
        {
          "internalType": "address",
          "name": "creator",
          "type": "address"
        },
        {
          "internalType": "uint256",
          "name": "createdAt",
          "type": "uint256"
        },
        {
          "internalType": "uint256",
          "name": "collectionId",
          "type": "uint256"
        },
        {
          "internalType": "uint256",
          "name": "maxSupply",
          "type": "uint256"
        },
        {
          "internalType": "string",
          "name": "category",
          "type": "string"
        },
        {
          "internalType": "bool",
          "name": "isVerified",
          "type": "bool"
        }
      ],
      "stateMutability": "view",
      "type": "function"
    },
    {
      "inputs": [],
      "name": "totalSupply",
      "outputs": [
        {
          "internalType": "uint256",
          "name": "",
          "type": "uint256"
        }
      ],
      "stateMutability": "view",
      "type": "function"
    },
    {
      "inputs": [
        {
          "internalType": "uint256",
          "name": "id",
          "type": "uint256"
        }
      ],
      "name": "totalSupply",
      "outputs": [
        {
          "internalType": "uint256",
          "name": "",
          "type": "uint256"
        }
      ],
      "stateMutability": "view",
      "type": "function"
    },
    {
      "inputs": [],
      "name": "totalTokenTypes",
      "outputs": [
        {
          "internalType": "uint256",
          "name": "",
          "type": "uint256"
        }
      ],
      "stateMutability": "view",
      "type": "function"
    },
    {
      "inputs": [],
      "name": "trustedForwarder",
      "outputs": [
        {
          "internalType": "address",
          "name": "",
          "type": "address"
        }
      ],
      "stateMutability": "view",
      "type": "function"
    },
    {
      "inputs": [],
      "name": "unpause",
      "outputs": [],
      "stateMutability": "nonpayable",
      "type": "function"
    },
    {
      "inputs": [
        {
          "internalType": "address",
          "name": "newImplementation",
          "type": "address"
        },
        {
          "internalType": "bytes",
          "name": "data",
          "type": "bytes"
        }
      ],
      "name": "upgradeToAndCall",
      "outputs": [],
      "stateMutability": "payable",
      "type": "function"
    },
    {
      "inputs": [
        {
          "internalType": "uint256",
          "name": "tokenId",
          "type": "uint256"
        }
      ],
      "name": "uri",
      "outputs": [
        {
          "internalType": "string",
          "name": "",
          "type": "string"
        }
      ],
      "stateMutability": "view",
      "type": "function"
    },
    {
      "inputs": [
        {
          "internalType": "address",
          "name": "user",
          "type": "address"
        },
        {
          "internalType": "uint256",
          "name": "tokenId",
          "type": "uint256"
        }
      ],
      "name": "usableBalanceOf",
      "outputs": [
        {
          "internalType": "uint256",
          "name": "",
          "type": "uint256"
        }
      ],
      "stateMutability": "view",
      "type": "function"
    },
    {
      "inputs": [
        {
          "internalType": "uint256",
          "name": "recordId",
          "type": "uint256"
        }
      ],
      "name": "userRecordOf",
      "outputs": [
        {
          "components": [
            {
              "internalType": "uint256",
              "name": "tokenId",
              "type": "uint256"
            },
            {
              "internalType": "address",
              "name": "owner",
              "type": "address"
            },
            {
              "internalType": "uint256",
              "name": "amount",
              "type": "uint256"
            },
            {
              "internalType": "address",
              "name": "user",
              "type": "address"
            },
            {
              "internalType": "uint64",
              "name": "expiry",
              "type": "uint64"
            }
          ],
          "internalType": "struct IERC5006.UserRecord",
          "name": "",
          "type": "tuple"
        }
      ],
      "stateMutability": "view",
      "type": "function"
    }
  ],
  "bytecode": "0x60c03462000128576001600160401b0390601f620051cf38819003918201601f1916830191848311848410176200012c578084926020946040528339810103126200012857516001600160a01b038116810362000128576080523060a0527ff0c57e16840df040f15088dc2f81fe391c3923bec73e23a9662efc9c229c6a009081549060ff8260401c1662000116578080831603620000d0575b60405161508e908162000141823960805181818161171701528181611ca90152614549015260a05181818161150c015261166e0152f35b6001600160401b031990911681179091556040519081527fc7f505b2f371ae2175ee4913f4499e1f2633a7b5936321eed1cdaeb6115181d290602090a15f808062000099565b60405163f92ee8a960e01b8152600490fd5b5f80fd5b634e487b7160e01b5f52604160045260245ffdfe60806040526004361015610011575f80fd5b5f3560e01c8062fdd58e146103f357806301ffc9a7146103ee57806304634d8d146103e957806306fdde03146103e45780630ca83480146103df5780630e89341c146103da5780630ec60e3a146103d5578063156e29f6146103d057806318160ddd146103cb5780631863c5c2146103c657806318d33e41146103c1578063248a9ca3146103bc5780632a55205a146103b75780632a5c5fcc146103b25780632eb2c2d6146103ad5780632f2ff15d146103a857806331003ca4146103a357806334756d951461039e57806336568abe1461039957806337516f7c146103945780633f4ba83a1461038f5780634e1273f41461038a5780634e3db863146103855780634f1ef286146103805780634f558e791461037b57806352d1902d14610376578063535c0ce314610371578063572b6c051461036c57806357e7e0ce146103675780635944c753146103625780635c975abb1461035d57806363e3996d146103585780636914db60146103535780636b20c4541461034e57806374abfa54146103495780637da0a87714610344578063800169221461033f5780638446c4a91461033a5780638456cb59146103355780638c858a14146103305780638dfde3391461032b57806391d148541461032657806395d89b41146103215780639fdf84691461031c578063a217fddf14610317578063a22cb46514610312578063ad3cb1cc1461030d578063bd85b03914610308578063ce75f33314610303578063d5391393146102fe578063d547741f146102f9578063db3fa4cc146102f4578063def2cc56146102ef578063e5f52a9c146102ea578063e63ab1e9146102e5578063e985e9c5146102e0578063f0af245a146102db578063f124c4fe146102d6578063f242432a146102d1578063f5298aca146102cc578063f72c0d8b146102c75763fdca1e91146102c2575f80fd5b61272e565b6126f4565b61263b565b612535565b612519565b61243a565b612409565b6123cf565b612369565b612325565b6122ce565b61221f565b6121f8565b6120a6565b612072565b61202d565b611f71565b611f57565b611f2f565b611e8a565b611e30565b611e13565b611df5565b611d91565b611d03565b611cd8565b611c94565b611c1e565b611b6f565b611ae9565b6117e1565b6117b3565b611773565b61174b565b6116f7565b6116b3565b61165c565b611624565b6114cd565b6114a0565b6113e6565b61131b565b6112ff565b6112ae565b611218565b6111d4565b61118b565b611051565b610f8a565b610eb8565b610e7f565b610e59565b610e3e565b610e15565b610cf3565b610c11565b610bde565b610a7c565b6108a7565b6105c1565b6104cc565b610452565b600435906001600160a01b038216820361040e57565b5f80fd5b602435906001600160a01b038216820361040e57565b604435906001600160a01b038216820361040e57565b35906001600160a01b038216820361040e57565b3461040e57604036600319011261040e5760206104b16104706103f8565b6024355f527f88be536d5240c274a3b1d3a1be54482fd9caa294f08c62a7cde569f49a3c4500835260405f209060018060a01b03165f5260205260405f2090565b54604051908152f35b6001600160e01b031981160361040e57565b3461040e57602036600319011261040e5761051a6004356104ec816104ba565b63ffffffff60e01b16637965db0b60e01b811490811561051e575b5060405190151581529081906020820190565b0390f35b63152a902d60e11b811491508115610538575b505f610507565b6314d9897f60e11b811491508115610552575b505f610531565b636cdb3d1360e11b811491508115610584575b8115610573575b505f61054b565b6301ffc9a760e01b1490505f61056c565b6303a24d0760e21b81149150610565565b60c435906001600160601b038216820361040e57565b606435906001600160601b038216820361040e57565b3461040e57604036600319011261040e576105da6103f8565b602435906001600160601b0382169182810361040e57610601916105fc6135c1565b613818565b6001600160601b0319600c541617600c555f80f35b90600182811c92168015610644575b602083101461063057565b634e487b7160e01b5f52602260045260245ffd5b91607f1691610625565b634e487b7160e01b5f52604160045260245ffd5b60a081019081106001600160401b0382111761067d57604052565b61064e565b604081019081106001600160401b0382111761067d57604052565b602081019081106001600160401b0382111761067d57604052565b90601f801991011681019081106001600160401b0382111761067d57604052565b604051905f825f80516020615039833981519152918254926106fa84610616565b808452936020916001918281169081156107885750600114610728575b505050610726925003836106b8565b565b5f9081527ff429cb5e2ec84cbb765e76b31964a56ccde03e7a6122d6cc4afb19edc55edeed9590935091905b82841061077057506107269450505081016020015f8080610717565b85548885018301529485019487945092810192610754565b925050506020925061072694915060ff191682840152151560051b8201015f8080610717565b9060405191825f82546107c081610616565b908184526020946001916001811690815f1461082b57506001146107ed57505050610726925003836106b8565b5f90815285812095935091905b81831061081357505061072693508201015f8080610717565b855488840185015294850194879450918301916107fa565b9250505061072694925060ff191682840152151560051b8201015f8080610717565b5f5b83811061085e5750505f910152565b818101518382015260200161084f565b906020916108878151809281855285808601910161084d565b601f01601f1916010190565b9060206108a492818152019061086e565b90565b3461040e575f36600319011261040e576040515f6006546108c781610616565b808452906020906001908181169081156109595750600114610900575b61051a856108f4818703826106b8565b60405191829182610893565b60065f90815293507ff652222313e28459528d920b65115c16c04f3efc82aaedc97be59f3f377c0d3f5b838510610946575050505081016020016108f48261051a6108e4565b805486860184015293820193810161092a565b86955061051a969350602092506108f494915060ff191682840152151560051b82010192936108e4565b6040519061072682610662565b6040519060c082018281106001600160401b0382111761067d57604052565b6001600160401b03811161067d5760051b60200190565b9080601f8301121561040e5760209082356109e0816109af565b936109ee60405195866106b8565b81855260208086019260051b82010192831161040e57602001905b828210610a17575050505090565b81358152908301908301610a09565b606060031982011261040e576004356001600160a01b038116810361040e57916001600160401b0360243581811161040e5783610a65916004016109c6565b9260443591821161040e576108a4916004016109c6565b3461040e57610a8a36610a26565b610a92613658565b610a9a6138ba565b610aa78251825114612791565b5f5b8251811015610b5d57610ace610abf82856127cf565b515f52600a60205260405f2090565b80546001600160a01b031615610b4b576003015480610af1575b50600101610aa9565b610b2e610b1d610b0184876127cf565b515f525f80516020614fd983398151915260205260405f205490565b610b2784866127cf565b51906127f7565b11610b39575f610ae8565b604051638a164f6360e01b8152600490fd5b60405163677510db60e11b8152600490fd5b5082610b72610b6a61201b565b8385846138e4565b5f5b8351811015610bdc5780610b8a600192866127cf565b51610b9582866127cf565b51907f2d03118aa776f7008445f6ca8490a6782ede2db364d741513555ba656ab1879f60405180610bd3878060a01b03891695829190602083019252565b0390a301610b74565b005b3461040e57602036600319011261040e5761051a610bfd600435613916565b60405191829160208352602083019061086e565b3461040e57604036600319011261040e576001600160a01b03610c326103f8565b165f52600460205260405f206024355f5260205260405f205f905b8054821015610bdc57610c6d610c6383836122b4565b90549060031b1c90565b42610ca5610c996003610c88855f52600160205260405f2090565b015460a01c6001600160401b031690565b6001600160401b031690565b11610cb857610cb390612906565b610c4d565b5090610cc390612804565b90610c4d565b606090600319011261040e576004356001600160a01b038116810361040e57906024359060443590565b3461040e57610d0136610cc9565b91610d0a6138ba565b610d1c825f52600a60205260405f2090565b80546001600160a01b0391908216908115610b4b578515610e035760039183610d4361451e565b16148015610dc4575b610d5590612812565b015480610da6575b507f2d03118aa776f7008445f6ca8490a6782ede2db364d741513555ba656ab1879f91610d93610d8b61201b565b868684613a40565b604051948552169280602081015b0390a3005b610db985610db386611aa2565b546127f7565b11610b39575f610d5d565b50610d55610dfc610dd361451e565b6001600160a01b03165f9081525f80516020614f59833981519152602052604090205460ff1690565b9050610d4c565b604051631f2a200560e01b8152600490fd5b3461040e575f36600319011261040e5760205f80516020614ff983398151915254604051908152f35b3461040e575f36600319011261040e57602060405160c88152f35b3461040e575f36600319011261040e5760206001600160601b03600c5416604051908152f35b3461040e57602036600319011261040e576004355f525f80516020614f998339815191526020526020600160405f200154604051908152f35b3461040e57604036600319011261040e576024356004355f527fdaedc9ab023613a7caf35e703657e986ccfad7e3eb0af93a2853f8d65dd86b0160205260405f20549060018060a01b038083169260a01c908315610f51575b506001600160601b031690818102918183041490151715610f4c57604080516001600160a01b03939093168352612710909104602083015290f35b6127e3565b7fdaedc9ab023613a7caf35e703657e986ccfad7e3eb0af93a2853f8d65dd86b0054908116935060a01c90506001600160601b03610f11565b3461040e57602036600319011261040e57610fa36103f8565b610fab61369a565b600880546001600160a01b0319166001600160a01b039290921691821790557f2dc88d3009ab8a9b5d13dd820c8dbf4cc07134e04a3f16d63c45145b138cc6145f80a2005b6001600160401b03811161067d57601f01601f191660200190565b81601f8201121561040e5780359061102282610ff0565b9261103060405194856106b8565b8284526020838301011161040e57815f926020809301838601378301015290565b3461040e5760a036600319011261040e5761106a6103f8565b611072610412565b90604435916001600160401b039081841161040e57611096600494369086016109c6565b9060643583811161040e576110ae90369087016109c6565b9260843590811161040e576110c6903690870161100b565b936110cf61451e565b6001600160a01b03828116918082168314158061115e575b61112f5750831615611118571561110257610bdc9550614439565b604051626a0d4560e21b81525f81880152602490fd5b604051632bfa23e760e11b81525f81890152602490fd5b6040805163711bec9160e11b81526001600160a01b03928316818c019081529286166020840152918291010390fd5b5060ff6111838261116e87612268565b9060018060a01b03165f5260205260405f2090565b5416156110e7565b3461040e57604036600319011261040e57610bdc6004356111aa610412565b90805f525f80516020614f998339815191526020526111cf600160405f2001546137dc565b613d39565b3461040e575f36600319011261040e5760206040517f6db4061a20ca83a3be756ee172bd37a029093ac5afe4ce968c6d5435b43cb0118152f35b8015150361040e57565b3461040e57604036600319011261040e576004356024356112388161120e565b61124061369a565b5f828152600a60205260409020546001600160a01b031615610b4b5760207f78ca3a9bb8935b2360e4b78d000f435a62a035701a47c1ed1e4508c1eaa7a4f891835f52600a82526112a381600560405f20019060ff801983541691151516179055565b6040519015158152a2005b3461040e57604036600319011261040e576112c7610412565b6001600160a01b03806112d861451e565b16908216036112ed57610bdc90600435613d6f565b60405163334bd91960e11b8152600490fd5b3461040e57602036600319011261040e57610bdc600435612906565b3461040e575f36600319011261040e5761133361370c565b5f80516020614fb9833981519152805460ff8116156113905760ff191690557f5db9ee0a495bf2e6ff9c91a7834c1ba4fdd244a5e8aa4e537bd38aeae4b073aa602061137d61451e565b6040516001600160a01b039091168152a1005b604051638dfc202b60e01b8152600490fd5b9081518082526020808093019301915f5b8281106113c1575050505090565b8351855293810193928101926001016113b3565b9060206108a49281815201906113a2565b3461040e57604036600319011261040e576004356001600160401b0380821161040e573660238301121561040e578160040135611422816109af565b9261143060405194856106b8565b8184526020916024602086019160051b8301019136831161040e57602401905b828210611489578560243586811161040e5761051a9161147761147d9236906004016109c6565b90612a70565b604051918291826113d5565b8380916114958461043e565b815201910190611450565b3461040e57602036600319011261040e5760206114c36114be6103f8565b612b14565b6040519015158152f35b604036600319011261040e576114e16103f8565b6024356001600160401b03811161040e5761150090369060040161100b565b6001600160a01b0391907f00000000000000000000000000000000000000000000000000000000000000008316308114908115611609575b506115f757602060049361154a613774565b6040516352d1902d60e01b8152948591829086165afa5f93816115c6575b5061158e57604051634c9c8ce360e01b81526001600160a01b0383166004820152602490fd5b905f80516020614f3983398151915283036115ad57610bdc9250614577565b604051632a87526960e21b815260048101849052602490fd5b6115e991945060203d6020116115f0575b6115e181836106b8565b810190613ec8565b925f611568565b503d6115d7565b60405163703e46dd60e11b8152600490fd5b9050835f80516020614f39833981519152541614155f611538565b3461040e57602036600319011261040e576004355f525f80516020614fd9833981519152602052602060405f20541515604051908152f35b3461040e575f36600319011261040e577f00000000000000000000000000000000000000000000000000000000000000006001600160a01b031630036115f75760206040515f80516020614f398339815191528152f35b3461040e57604036600319011261040e576001600160a01b036116d46103f8565b165f52600360205260405f206024355f52602052602060405f2054604051908152f35b3461040e57602036600319011261040e5760206117126103f8565b6040517f00000000000000000000000000000000000000000000000000000000000000006001600160a01b039081169216919091148152f35b3461040e575f36600319011261040e576009546040516001600160a01b039091168152602090f35b3461040e57606036600319011261040e5761178c610412565b6044356001600160601b038116810361040e57610bdc916117ab6135c1565b600435613ed7565b3461040e575f36600319011261040e57602060ff5f80516020614fb983398151915254166040519015158152f35b3461040e5760a036600319011261040e576117fa6103f8565b611802610412565b9060443560643592608435926001600160401b0384169081850361040e5761051a957fc2bcc5fc99e15676b4a5f6af01a34300e0cd44c2192559cc487da65c9f74488c926001600160a01b0390611872906118608784161515612b9f565b61186b841515612beb565b4210612c37565b61187a61451e565b8116908316148015611a86575b61189090612c8d565b6118de816118d76118a48561116e8a611abc565b546001600160a01b0386165f9081526003602052604090206118d0908a905b905f5260205260405f2090565b54906128f9565b1015612ceb565b611a736118eb5f54612804565b968795865f556119b46118fc610983565b8981526001600160a01b0387166020820152604081018690526001600160a01b03831660608201526001600160401b0384166080820152611945895f52600160205260405f2090565b8151815560208201516001820180546001600160a01b0319166001600160a01b0392831617905560408301516002830155606083015160039092018054608090940151929091166001600160e01b03199093169290921760a09190911b67ffffffffffffffff60a01b16179055565b6001600160a01b0385165f9081526003602052604090206119d69089906118c3565b6119e18582546127f7565b90556001600160a01b0381165f908152600260205260409020611a059089906118c3565b611a108582546127f7565b9055611a3987611a348a6118c38960018060a01b03165f52600460205260405f2090565b612d47565b604080519485526001600160a01b0395861660208601529416938301939093526001600160401b0390921660608201529081906080820190565b0390a36040519081529081906020820190565b50611890611a9b611a9561451e565b846135b2565b9050611887565b5f525f80516020614fd983398151915260205260405f2090565b5f527f88be536d5240c274a3b1d3a1be54482fd9caa294f08c62a7cde569f49a3c450060205260405f2090565b3461040e57602036600319011261040e576004355f52600a60205260405f2060018060a01b03815416600182015491611b63600282015491600381015460ff6005611b36600485016107ae565b9301541693604051968796875260208701526040860152606085015260c0608085015260c084019061086e565b90151560a08301520390f35b3461040e57611b7d36610a26565b906001600160a01b0380611b8f61451e565b169084169081141580611c06575b611bd45715611bbd57610bdc925f604051611bb78161069d565b52614198565b604051626a0d4560e21b81525f6004820152602490fd5b83611bdd61451e565b60405163711bec9160e11b81526001600160a01b03918216600482015291166024820152604490fd5b50611c18611c1261451e565b856135b2565b15611b9d565b3461040e5760208060031936011261040e576001600160a01b03611c406103f8565b165f52600b60205260405f20906040519081602084549182815201935f5260205f20915f905b828210611c7d5761051a8561147d818903826106b8565b835486529485019460019384019390910190611c66565b3461040e575f36600319011261040e576040517f00000000000000000000000000000000000000000000000000000000000000006001600160a01b03168152602090f35b3461040e57602036600319011261040e576020611cfb611cf66103f8565b612dd0565b604051908152f35b3461040e5760e036600319011261040e576001600160401b0360443581811161040e57611d3490369060040161100b565b9060843590811161040e57611d4d90369060040161100b565b60a435916001600160a01b038316830361040e5761051a92611d8192611d71610595565b9260643590602435600435612ea3565b6040519081529081906020820190565b3461040e575f36600319011261040e57611da961370c565b611db16138ba565b5f80516020614fb9833981519152805460ff191660011790557f62e78cea01bee320cd4e420270b5ea74000d11b0c9f74754ebdbfc544b05a258602061137d61451e565b3461040e57602036600319011261040e576020611cfb6004356132a0565b3461040e575f36600319011261040e576020600554604051908152f35b3461040e57604036600319011261040e57602060ff611e7e611e50610412565b6004355f525f80516020614f99833981519152845260405f209060018060a01b03165f5260205260405f2090565b54166040519015158152f35b3461040e575f36600319011261040e576040515f600754611eaa81610616565b808452906020906001908181169081156109595750600114611ed65761051a856108f4818703826106b8565b60075f90815293507fa66cc928b5edb82af9bd49922954155ab7b0942694bea4ce44661d9a8736c6885b838510611f1c575050505081016020016108f48261051a6108e4565b8054868601840152938201938101611f00565b3461040e575f36600319011261040e576008546040516001600160a01b039091168152602090f35b3461040e575f36600319011261040e5760206040515f8152f35b3461040e57604036600319011261040e57611f8a6103f8565b602435611f968161120e565b611f9e61451e565b6001600160a01b03838116939084156120045782611ff785611fe660209561116e7f17307eab39ab6107e8899845ad3d59bd9653f200f220920489ca2b5937696c3198612268565b9060ff801983541691151516179055565b60405194151585521692a3005b60405162ced3e160e81b81525f6004820152602490fd5b604051906120288261069d565b5f8252565b3461040e575f36600319011261040e5761051a60405161204c81610682565b60058152640352e302e360dc1b602082015260405191829160208352602083019061086e565b3461040e57602036600319011261040e576020611cfb6004355f525f80516020614fd983398151915260205260405f205490565b3461040e57608036600319011261040e576120bf6103f8565b6001600160401b039060243582811161040e576120e090369060040161100b565b6120e8610428565b6120f06105ab565b915f80516020615019833981519152549460ff8660401c16159516801590816121f0575b60011490816121e6575b1590816121dd575b506121cb575f80516020615019833981519152805467ffffffffffffffff1916600117905561215993856121a7576133d6565b61215f57005b5f80516020615019833981519152805460ff60401b19169055604051600181527fc7f505b2f371ae2175ee4913f4499e1f2633a7b5936321eed1cdaeb6115181d290602090a1005b5f80516020615019833981519152805460ff60401b1916600160401b1790556133d6565b60405163f92ee8a960e01b8152600490fd5b9050155f612126565b303b15915061211e565b869150612114565b3461040e575f36600319011261040e5760206040515f80516020614f798339815191528152f35b3461040e57604036600319011261040e57610bdc60043561223e610412565b90805f525f80516020614f99833981519152602052612263600160405f2001546137dc565b613d6f565b6001600160a01b03165f9081527f88be536d5240c274a3b1d3a1be54482fd9caa294f08c62a7cde569f49a3c45016020526040902090565b634e487b7160e01b5f52603260045260245ffd5b80548210156122c9575f5260205f2001905f90565b6122a0565b3461040e57604036600319011261040e576122e76103f8565b6001600160a01b03165f908152600b602052604090208054602435919082101561040e57602091612317916122b4565b90546040519160031b1c8152f35b3461040e57604036600319011261040e576001600160a01b036123466103f8565b165f52600260205260405f206024355f52602052602060405f2054604051908152f35b3461040e57602036600319011261040e576123826103f8565b61238a61369a565b600980546001600160a01b0319166001600160a01b039290921691821790557f3f09ab4c5074eef9e258bd6a6be7afd2d45ede61a3fe35ee6efdd88819f263035f80a2005b3461040e575f36600319011261040e5760206040517f65d7a28e3265b37a6474929f336521b332c1681b933f6cb9f3376673440d862a8152f35b3461040e57604036600319011261040e57602060ff611e7e6124296103f8565b61116e612434610412565b91612268565b3461040e57602036600319011261040e5761051a60405f6080825161245e81610662565b828152826020820152828482015282606082015201526004355f526001602052805f20906001600160401b0381519261249684610662565b80548452600360018060a01b03918260018201541660208701526002810154858701520154908116606085015260a01c166080830152519182918291909160806001600160401b038160a084019580518552602081015160018060a01b038091166020870152604082015160408701526060820151166060860152015116910152565b3461040e575f36600319011261040e5760206040516103e88152f35b3461040e5760a036600319011261040e5761254e6103f8565b612556610412565b6084356001600160401b03811161040e5761257590369060040161100b565b9061257e61451e565b6001600160a01b038481169180821683141580612623575b6125f957508216156125e15715611bbd57610bdc926125d96064356044359160405192600184526020840152604083019160018352606084015260808301604052565b929091614439565b604051632bfa23e760e11b81525f6004820152602490fd5b60405163711bec9160e11b81526001600160a01b0391821660048201529086166024820152604490fd5b5060ff6126338261116e89612268565b541615612596565b3461040e5761264936610cc9565b6001600160a01b03928361265b61451e565b1693811693841415806126dc575b6126d4578315611bbd5781611d81610da1926126c67fc0fc06a38b27935af1d0b60487608e98182d771362ccb26d0cf0442347250c1a95879160405192600184526020840152604083019160018352606084015260808301604052565b915f604051611bb78161069d565b611bdd61451e565b506126ee6126e861451e565b826135b2565b15612669565b3461040e575f36600319011261040e5760206040517f189ab7a9244df0848122154315af71fe140f3db0fe014031783b0946b8c9d2e38152f35b3461040e575f36600319011261040e5760206040516101f48152f35b61278d915f527f88be536d5240c274a3b1d3a1be54482fd9caa294f08c62a7cde569f49a3c450060205260405f209060018060a01b03165f5260205260405f2090565b5490565b1561279857565b60405162461bcd60e51b815260206004820152600f60248201526e098cadccee8d040dad2e6dac2e8c6d608b1b6044820152606490fd5b80518210156122c95760209160051b010190565b634e487b7160e01b5f52601160045260245ffd5b91908201809211610f4c57565b5f198114610f4c5760010190565b1561281957565b60405162461bcd60e51b81526020600482015260146024820152732737ba1031b932b0ba37b91037b91030b236b4b760611b6044820152606490fd5b1561285c57565b60405162461bcd60e51b815260206004820152601e60248201527f455243353030363a207265636f726420646f6573206e6f7420657869737400006044820152606490fd5b156128a857565b60405162461bcd60e51b8152602060048201526024808201527f455243353030363a2063616c6c65722063616e6e6f742064656c65746520726560448201526318dbdc9960e21b6064820152608490fd5b91908203918211610f4c57565b6129f08161291c815f52600160205260405f2090565b6001810180546129e891906001600160a01b03166001600160a01b0381811690612947821515612855565b61294f61451e565b16148015612a5f575b8015612a42575b612968906128a1565b60028401906129a561299d61298f84549360018060a01b03165f52600360205260405f2090565b87545f5260205260405f2090565b9182546128f9565b90555460038401546001600160a01b03165f9081526002602052604090206129d99061299d9086545f5260205260405f2090565b9055546001600160a01b031690565b905490613e48565b612a1c612a05825f52600160205260405f2090565b60035f918281558260018201558260028201550155565b7fe5e4cc148925690191c27bf527786e1ffbc70eb2e0e1efc9cafc6429b1ee777a5f80a2565b5060038401544260a09190911c6001600160401b0316111561295f565b50612a6b6126e861451e565b612958565b91909180518351808203612af2575050805190612aa5612a8f836109af565b92612a9d60405194856106b8565b8084526109af565b60209190601f190136848401375f5b8151811015612aea5780612ad960019260051b85808287010151918a0101519061274a565b612ae382876127cf565b5201612ab4565b509193505050565b604051635b05999160e01b815260048101919091526024810191909152604490fd5b6009546001600160a01b0390811691908215612b985760246020926040519485938492635eeba90160e11b84521660048301525afa5f9181612b5b575b506108a457505f90565b9091506020813d602011612b90575b81612b77602093836106b8565b8101031261040e5751612b898161120e565b905f612b51565b3d9150612b6a565b5050505f90565b15612ba657565b60405162461bcd60e51b815260206004820152601d60248201527f455243353030363a2075736572206973207a65726f20616464726573730000006044820152606490fd5b15612bf257565b60405162461bcd60e51b815260206004820152601760248201527f455243353030363a20616d6f756e74206973207a65726f0000000000000000006044820152606490fd5b15612c3e57565b60405162461bcd60e51b815260206004820152602160248201527f455243353030363a20657870697279206d75737420626520696e2066757475726044820152606560f81b6064820152608490fd5b15612c9457565b60405162461bcd60e51b815260206004820152602960248201527f455243353030363a2063616c6c6572206973206e6f74206f776e6572206e6f7260448201526808185c1c1c9bdd995960ba1b6064820152608490fd5b15612cf257565b60405162461bcd60e51b815260206004820152602760248201527f455243353030363a20696e73756666696369656e7420617661696c61626c652060448201526662616c616e636560c81b6064820152608490fd5b90815491600160401b83101561067d5782612d6a916001610726950181556122b4565b90919082549060031b91821b915f19901b1916179055565b908160a091031261040e578051916020820151916040810151600481101561040e57916080606083015192015190565b60041115612dbc57565b634e487b7160e01b5f52602160045260245ffd5b6009546001600160a01b03168015612e9d57604051627fa02d60e31b81526001600160a01b0392909216600483015260a090829060249082905afa5f9181612e67575b50612e1d57505f90565b612e2681612db2565b60038114612e6057612e3781612db2565b60028114612e595780612e4b600192612db2565b14612e54575f90565b60c890565b506101f490565b506103e890565b612e8a91925060a03d60a011612e96575b612e8281836106b8565b810190612d82565b5050915050905f612e13565b503d612e78565b50505f90565b949591909295612eb16138ba565b612eb961451e565b928615158061306f575b610b3957612fc497612ff7977f92a9f53363fa07568d7fdcd1a9a48c8ad9716a1466edaf74c6f3d5decd1cecb992612f04612eff600554612804565b600555565b6005549a8b998a96612f168989613fcf565b6001600160a01b039381851615158061305d575b61304c575b50505f80516020614f798339815191525f525f80516020614f99833981519152602052612fad612f76612f6f8b5f80516020614f5983398151915261116e565b5460ff1690565b612f7e610990565b6001600160a01b038c16815292426020850152876040850152866060850152608084015260a083019015159052565b612fbf875f52600a60205260405f2090565b613132565b6001600160a01b0387165f908152600b60205260409020612fe6908690612d47565b861698899560405193849384613284565b0390a381613007575b5050505090565b81611d81613040927f2d03118aa776f7008445f6ca8490a6782ede2db364d741513555ba656ab1879f948661303a61201b565b92613a40565b0390a35f818180613000565b6130569189613ed7565b5f80612f2f565b506001600160601b0381161515612f2a565b50868511612ec3565b818110613083575050565b5f8155600101613078565b90601f821161309b575050565b610726915f805160206150398339815191525f527ff429cb5e2ec84cbb765e76b31964a56ccde03e7a6122d6cc4afb19edc55edeed906020601f840160051c830193106130f0575b601f0160051c0190613078565b90915081906130e3565b9190601f811161310957505050565b610726925f5260205f20906020601f840160051c830193106130f057601f0160051c0190613078565b815181546001600160a01b0319166001600160a01b0391909116178155906001602090602083015160018501556040830151600285015560608301516003850155600484019160808401518051926001600160401b03841161067d576131a28461319c8754610616565b876130fa565b602092601f8511600114613209575050936005936131e1846131eb9560a0956107269a995f926131fe575b50508160011b915f199060031b1c19161790565b90555b0151151590565b91019060ff801983541691151516179055565b015190505f806131cd565b929190601f1985169061321f875f5260205f2090565b945f915b83831061326d575050508460a094610726999894600598946131eb9860019510613255575b505050811b0190556131e4565b01515f1960f88460031b161c191690555f8080613248565b848601518755958601959481019491810191613223565b6108a4939260609282526020820152816040820152019061086e565b5f52600a602052600360405f20015480156132d7575f80516020614fd983398151915260205260405f20548103908111610f4c5790565b505f1990565b541690565b6132ed600654610616565b601f811161331d575b507f4e454f53204d756c74692d546f6b656e00000000000000000000000000000020600655565b60065f52601f7ff652222313e28459528d920b65115c16c04f3efc82aaedc97be59f3f377c0d3f910160051c8101905b81811061335a57506132f6565b5f815560010161334d565b613370600754610616565b601f811161338e575b506010674e454f533131353560c01b01600755565b60075f52601f7fa66cc928b5edb82af9bd49922954155ab7b0942694bea4ce44661d9a8736c688910160051c8101905b8181106133cb5750613379565b5f81556001016133be565b90939291936133e361461c565b6133eb61461c565b80516001600160401b03811161067d575f805160206150398339815191529161341d826134188554610616565b61308e565b602090816001601f8511146135195750826107269798936134f99593613457935f926131fe5750508160011b915f199060031b1c19161790565b90555b61346261461c565b61346a61461c565b6134726140f7565b61347a614188565b61348261461c565b61348a61461c565b61349261461c565b61349a61461c565b6134a383613a84565b506134ad83613b39565b506134b783613bec565b506134c183613c5b565b506134cb83613cca565b506134d46132e2565b6134dc613365565b60018060a01b03166001600160601b0360a01b6009541617600955565b6105fc826001600160601b03166001600160601b0319600c541617600c55565b5f805160206150398339815191525f529190601f1984167ff429cb5e2ec84cbb765e76b31964a56ccde03e7a6122d6cc4afb19edc55edeed935f905b82821061359a5750509260019285926107269a9b966134f9989610613582575b505050811b01905561345a565b01515f1960f88460031b161c191690555f8080613575565b80600186978294978701518155019601940190613555565b60ff9161116e6132dd92612268565b6135c961451e565b6001600160a01b0381165f9081527f994f78f736098f243dd364b03e182a283a65f39afeb5005183ecebe406584c56602052604090207f6db4061a20ca83a3be756ee172bd37a029093ac5afe4ce968c6d5435b43cb0119060ff905b541615613630575050565b60405163e2517d3f60e01b81526001600160a01b039092166004830152602482015260449150fd5b61366061451e565b6001600160a01b0381165f9081525f80516020614f59833981519152602052604090205f80516020614f798339815191529060ff90613625565b6136a261451e565b6001600160a01b0381165f9081527fb7db2dd08fcb62d0c9e08c51941cae53c267786a0b75803fb7960902fc8ef97d602052604090205460ff16156136e45750565b60405163e2517d3f60e01b81526001600160a01b0390911660048201525f6024820152604490fd5b61371461451e565b6001600160a01b0381165f9081527f75442b0a96088b5456bc4ed01394c96a4feec0f883c9494257d76b96ab1c9b6b602052604090207f65d7a28e3265b37a6474929f336521b332c1681b933f6cb9f3376673440d862a9060ff90613625565b61377c61451e565b6001600160a01b0381165f9081527fab71e3f32666744d246edff3f96e4bdafee2e9867098cdd118a979a7464786a8602052604090207f189ab7a9244df0848122154315af71fe140f3db0fe014031783b0946b8c9d2e39060ff90613625565b6137e461451e565b90805f525f80516020614f9983398151915260205260ff6136258360405f209060018060a01b03165f5260205260405f2090565b906001600160601b0381169161271080841161389c57506001600160a01b031691821561388457602060405161384d81610682565b848152015260a01b6001600160a01b031916177fdaedc9ab023613a7caf35e703657e986ccfad7e3eb0af93a2853f8d65dd86b0055565b604051635b6cc80560e11b81525f6004820152602490fd5b8360449160405191636f483d0960e01b835260048301526024820152fd5b60ff5f80516020614fb983398151915254166138d257565b60405163d93c066560e01b8152600490fd5b9291906001600160a01b038416156125e15761072693614314565b906139126020928281519485920161084d565b0190565b5f5260207f89fc852226e759c7c636cf34d732f0198fc56a54876b2374a52beb7b0c558601815261394960405f206107ae565b805115613a365760405180925f907f89fc852226e759c7c636cf34d732f0198fc56a54876b2374a52beb7b0c558600805461398381610616565b91600191808316908115613a1557506001146139b9575b505050506139ab906108a4936138ff565b03601f1981018352826106b8565b90919293505f527f6d07c1f5188598423af8d38a591e5abc4d2d4fad54720dbb00c3b122b00c2dbf905f915b8383106139ff57505050820101826139ab6108a45f61399a565b80548884018601528795509184019181016139e5565b60ff191687860152505050801515028301019050826139ab6108a45f61399a565b50506108a46106d9565b919291906001600160a01b038216156125e15761072693613a7e60405192600184526020840152604083019160018352606084015260808301604052565b91614314565b6001600160a01b0381165f9081527fb7db2dd08fcb62d0c9e08c51941cae53c267786a0b75803fb7960902fc8ef97d60205260409020545f80516020614f998339815191529060ff16612e9d575f808052602091825260408082206001600160a01b038516835290925220805460ff19166001179055613b0261451e565b6001600160a01b0390811691165f7f2f8788117e7eff1d82e926ec794901d17c78024a50270940304540a733656f0d8180a4600190565b6001600160a01b0381165f9081525f80516020614f59833981519152602052604090205f80516020614f79833981519152905f80516020614f998339815191529060ff905b5416612b98575f828152602091825260408082206001600160a01b038616835290925220805460ff19166001179055613bb561451e565b6001600160a01b039081169216907f2f8788117e7eff1d82e926ec794901d17c78024a50270940304540a733656f0d5f80a4600190565b6001600160a01b0381165f9081527f75442b0a96088b5456bc4ed01394c96a4feec0f883c9494257d76b96ab1c9b6b602052604090207f65d7a28e3265b37a6474929f336521b332c1681b933f6cb9f3376673440d862a905f80516020614f998339815191529060ff90613b7e565b6001600160a01b0381165f9081527fab71e3f32666744d246edff3f96e4bdafee2e9867098cdd118a979a7464786a8602052604090207f189ab7a9244df0848122154315af71fe140f3db0fe014031783b0946b8c9d2e3905f80516020614f998339815191529060ff90613b7e565b6001600160a01b0381165f9081527f994f78f736098f243dd364b03e182a283a65f39afeb5005183ecebe406584c56602052604090207f6db4061a20ca83a3be756ee172bd37a029093ac5afe4ce968c6d5435b43cb011905f80516020614f998339815191529060ff90613b7e565b5f8181525f80516020614f99833981519152602081815260408084206001600160a01b038716855290915290912060ff90613b7e565b5f8181525f80516020614f99833981519152602081815260408084206001600160a01b03871685529091529091205460ff1615612b98575f828152602091825260408082206001600160a01b038616835290925220805460ff19169055613dd461451e565b6001600160a01b039081169216907ff6391f5c32d9c69d2a47ea670b442974b53935d1edc7fd64eb21e047a839171b5f80a4600190565b8054908115613e34575f1991820191613e2483836122b4565b909182549160031b1b1916905555565b634e487b7160e01b5f52603160045260245ffd5b60018060a01b03165f52600460205260405f20905f5260205260405f205f5b815480821015613ec25783613e7c83856122b4565b90549060031b1c14613e915750600101613e67565b9092505f198101908111610f4c5761072692612d6a613eb6610c63613ebd94866122b4565b91846122b4565b613e0b565b50505050565b9081602091031261040e575190565b92916127106001600160601b038216818111613fab5750506001600160a01b03821615613f8c576107269293613f37613f6492613f2760405195613f1a87610682565b6001600160a01b03168652565b6001600160601b03166020850152565b5f527fdaedc9ab023613a7caf35e703657e986ccfad7e3eb0af93a2853f8d65dd86b0160205260405f2090565b815160209092015160a01b6001600160a01b0319166001600160a01b03909216919091179055565b604051634b4f842960e11b8152600481018590525f6024820152604490fd5b60649186916040519263dfd1fc1b60e01b8452600484015260248301526044820152fd5b919091805f5260207f89fc852226e759c7c636cf34d732f0198fc56a54876b2374a52beb7b0c55860160205260405f20908451906001600160401b03821161067d576140258261401f8554610616565b856130fa565b602090601f831160011461408c57508190614057939495965f926131fe5750508160011b915f199060031b1c19161790565b90555b7f6bb7ff708619ba0610cba295a58592e0451dee2622938c8755667688daf3529b6140876108f483613916565b0390a2565b90601f198316966140a0855f5260205f2090565b925f905b8982106140df57505083600195969798106140c7575b505050811b01905561405a565b01515f1960f88460031b161c191690555f80806140ba565b806001859682949686015181550195019301906140a4565b6140ff61461c565b61410761461c565b7f89fc852226e759c7c636cf34d732f0198fc56a54876b2374a52beb7b0c5586006141328154610616565b601f8111614141575b505f9055565b815f52601f7f6d07c1f5188598423af8d38a591e5abc4d2d4fad54720dbb00c3b122b00c2dbf910160051c8101905b81811061417d575061413b565b5f8155600101614170565b61419061461c565b61072661461c565b9192916001600160a01b03811680159190821561429c575b5084836141bc92614b2f565b614223575b5f805b82518210156141f9576001908260051b906141ea602080848a0101519387010151611aa2565b828154039055019101906141c4565b9150506107269192505f80516020614ff983398151915254035f80516020614ff983398151915255565b5f805b8251821015614269576142616001918360051b9061424f602080848b0101519388010151611aa2565b61425a8382546127f7565b90556127f7565b910190614226565b6142979150614286905f80516020614ff9833981519152546127f7565b5f80516020614ff983398151915255565b6141c1565b949291935f5b8351811015614308576142bf6142b882866127cf565b518461274a565b90875f52602060038152604090815f20906142da84896127cf565b515f52525f20548203918211610f4c576143026001926142fa83896127cf565b511115614988565b016142a2565b509391928095506141b0565b9392919092614324828587614c8c565b5f92835b8551851015614359576143516001918660051b9061424f602080848a010151938b010151611aa2565b940193614328565b9093509491909461437c6142865f80516020614ff98339815191529283546127f7565b6001600160a01b0383161590816143d9575b501561439a5750505050565b6143a261451e565b9160018551145f146143c9576020806143c0960151920151926148ff565b5f808080613ec2565b6143d494919261470a565b6143c0565b94935f939091845b8651861015614416576001908660051b90614407602080848a010151938b010151611aa2565b828154039055019501946143e1565b9092959661443392955054035f80516020614ff983398151915255565b5f61438e565b919392906001600160a01b03808416806144a9575b5061445b83878487614a4a565b8116614469575b5050505050565b61447161451e565b9260018651145f146144995760208061448f97015193015193614934565b5f80808080614462565b6144a4959293614803565b61448f565b949095939296915f5b855181101561450f57806145096144ff6144d86144d16001958b6127cf565b518961274a565b8a5f526020600381528a6040916144f287845f20936127cf565b515f52525f2054906128f9565b6142fa838d6127cf565b016144b2565b5091969293959094505f61444e565b601436101580614545575b1561454157601319360136811161040e573560601c90565b3390565b50337f00000000000000000000000000000000000000000000000000000000000000006001600160a01b031614614529565b90813b156145fb575f80516020614f3983398151915280546001600160a01b0319166001600160a01b0384169081179091557fbc7cd75a20ee27fd9adebab32041f755214dbc6bffa90cc0225b39da2e5c2d3b5f80a28051156145e0576145dd9161496b565b50565b5050346145e957565b60405163b398979f60e01b8152600490fd5b604051634c9c8ce360e01b81526001600160a01b0383166004820152602490fd5b60ff5f805160206150198339815191525460401c161561463857565b604051631afcd79f60e31b8152600490fd5b9081602091031261040e57516108a4816104ba565b9261468d6108a4959361469b9360018060a01b031686525f602087015260a0604087015260a08601906113a2565b9084820360608601526113a2565b91608081840391015261086e565b93906108a4959361468d9161469b9460018060a01b03809216885216602087015260a0604087015260a08601906113a2565b3d15614705573d906146ec82610ff0565b916146fa60405193846106b8565b82523d5f602084013e565b606090565b9293919093843b61471c575050505050565b60209161473f604051948593849363bc197c8160e01b988986526004860161465f565b03815f6001600160a01b0388165af15f91816147d2575b5061479557826147646146db565b805191908261478e57604051632bfa23e760e11b81526001600160a01b0383166004820152602490fd5b6020915001fd5b6001600160e01b031916036147af57505f80808080614462565b604051632bfa23e760e11b81526001600160a01b03919091166004820152602490fd5b6147f591925060203d6020116147fc575b6147ed81836106b8565b81019061464a565b905f614756565b503d6147e3565b939290949194853b614818575b505050505050565b61483b602093604051958694859463bc197c8160e01b998a8752600487016146a9565b03815f6001600160a01b0388165af15f918161487b575b5061486057826147646146db565b6001600160e01b031916036147af57505f8080808080614810565b61489591925060203d6020116147fc576147ed81836106b8565b905f614852565b909260a0926108a49594600180861b031683525f602084015260408301526060820152816080820152019061086e565b91926108a495949160a094600180871b03809216855216602084015260408301526060820152816080820152019061086e565b9293919093843b614911575050505050565b60209161473f604051948593849363f23a6e6160e01b988986526004860161489c565b939290949194853b61494857505050505050565b61483b602093604051958694859463f23a6e6160e01b998a8752600487016148cc565b5f806108a493602081519101845af46149826146db565b916149e7565b1561498f57565b60405162461bcd60e51b815260206004820152602a60248201527f455243353030363a207472616e7366657220616d6f756e74206578636565647360448201526920617661696c61626c6560b01b6064820152608490fd5b90614a0e57508051156149fc57602081519101fd5b60405163d6bda27560e01b8152600490fd5b81511580614a41575b614a1f575090565b604051639996b31560e01b81526001600160a01b039091166004820152602490fd5b50803b15614a17565b90939293614a5a85848385614da6565b6001600160a01b0391821615614aae575b1615614a7657509050565b5f805b82518210156141f9576001908260051b90614a9f602080848a0101519387010151611aa2565b82815403905501910190614a79565b925f91825b8451841015614ae457614adc6001918560051b9061424f602080848d010151938a010151611aa2565b930192614ab3565b614b05919350614286909592955f80516020614ff9833981519152546127f7565b614a6b565b9091614b216108a4936040845260408401906113a2565b9160208184039101526113a2565b9291908051825190818103612af2575050614b4861451e565b925f5b8251811015614be857600581901b83810160209081015191860101516001600160a01b038816614b80575b5050600101614b4b565b614b8d8861116e84611abc565b54818110614bb1578861116e6001959493614ba9930393611abc565b55905f614b76565b6040516303dee4c560e01b81526001600160a01b038a16600482015260248101919091526044810182905260648101839052608490fd5b50935f93929160018151148514614c4a576020908101519281015160408051948552918401526001600160a01b0391821693909116917fc3d58168c5ae7397731d063d5bbf3d657854427343f4c083240f7aacaa2d0f6291819081015b0390a4565b6040516001600160a01b0392831694909216927f4a39dc06d4c0dbc64b70af90fd698a233a518aa5d07e595d983b8c0526c8f7fb92918291614c459183614b0a565b9190918251825190818103612af2575050614ca561451e565b925f5b8151811015614d0457600581901b82810160209081015191860101516001929185906001600160a01b038216614ce2575b50505001614ca8565b614cfa9161116e614cf292611abc565b9182546127f7565b90555f8481614cd9565b50905f929160018151148414614d64576020908101519281015160408051948552918401526001600160a01b0391821694909116917fc3d58168c5ae7397731d063d5bbf3d657854427343f4c083240f7aacaa2d0f629181908101614c45565b6040516001600160a01b0392831695909216927f4a39dc06d4c0dbc64b70af90fd698a233a518aa5d07e595d983b8c0526c8f7fb92918291614c459183614b0a565b9392918051835190818103612af2575050614dbf61451e565b935f5b8251811015614e8f57600581901b83810160209081015191870101516001600160a01b03929186908a8516614e1f575b6001948216614e05575b50505001614dc2565b614e159161116e614cf292611abc565b90555f8581614dfc565b9192939050614e318a61116e84611abc565b54838110614e585791879184600196959403614e508d61116e85611abc565b559450614df2565b6040516303dee4c560e01b81526001600160a01b038c16600482015260248101919091526044810184905260648101839052608490fd5b50949392919060018151145f14614ef3576020908101519281015160408051948552918401526001600160a01b0391821694821693909116917fc3d58168c5ae7397731d063d5bbf3d657854427343f4c083240f7aacaa2d0f629181908101614c45565b6040516001600160a01b0392831695831694909216927f4a39dc06d4c0dbc64b70af90fd698a233a518aa5d07e595d983b8c0526c8f7fb92918291614c459183614b0a56fe360894a13ba1a3210667c828492db98dca3e2076cc3735a920a3ca505d382bbc549fe2656c81d2947b3b913f0a53b9ea86c71e049f3a1b8aa23c09a8a05cb8d49f2df0fed2c77648de5860a4cc508cd0818c85b8b8a1ab4ceeef8d981c8956a602dd7bc7dec4dceedda775e58dd541e08a116c6c53815c0bd028192f7b626800cd5ed15c6e187e77e9aee88184c21f4f2182ab5827cb3b7e07fbedcd63f033004a593662ee04d27b6a00ebb31be7fe0c102c2ade82a7c5d764f2df05dc4e28004a593662ee04d27b6a00ebb31be7fe0c102c2ade82a7c5d764f2df05dc4e2801f0c57e16840df040f15088dc2f81fe391c3923bec73e23a9662efc9c229c6a0088be536d5240c274a3b1d3a1be54482fd9caa294f08c62a7cde569f49a3c4502a26469706673582212207de88c0bde8db8890e6610cfe74f19a683f455dc4c91ca364382a07586bab20064736f6c63430008180033",
  "linkReferences": {},
  "deployedLinkReferences": {}
}