{
  "_format": "hh-sol-artifact-1",
  "contractName": "AlmaNFT721",
  "sourceName": "contracts/nft/AlmaNFT721.sol",
  "abi": [
    {
      "inputs": [
        {
          "internalType": "address",
          "name": "trustedForwarder",
          "type": "address"
        }
      ],
      "stateMutability": "nonpayable",
      "type": "constructor"
    },
    {
      "inputs": [],
      "name": "AccessControlBadConfirmation",
      "type": "error"
    },
    {
      "inputs": [
        {
          "internalType": "address",
          "name": "account",
          "type": "address"
        },
        {
          "internalType": "bytes32",
          "name": "neededRole",
          "type": "bytes32"
        }
      ],
      "name": "AccessControlUnauthorizedAccount",
      "type": "error"
    },
    {
      "inputs": [
        {
          "internalType": "address",
          "name": "target",
          "type": "address"
        }
      ],
      "name": "AddressEmptyCode",
      "type": "error"
    },
    {
      "inputs": [
        {
          "internalType": "address",
          "name": "implementation",
          "type": "address"
        }
      ],
      "name": "ERC1967InvalidImplementation",
      "type": "error"
    },
    {
      "inputs": [],
      "name": "ERC1967NonPayable",
      "type": "error"
    },
    {
      "inputs": [
        {
          "internalType": "uint256",
          "name": "numerator",
          "type": "uint256"
        },
        {
          "internalType": "uint256",
          "name": "denominator",
          "type": "uint256"
        }
      ],
      "name": "ERC2981InvalidDefaultRoyalty",
      "type": "error"
    },
    {
      "inputs": [
        {
          "internalType": "address",
          "name": "receiver",
          "type": "address"
        }
      ],
      "name": "ERC2981InvalidDefaultRoyaltyReceiver",
      "type": "error"
    },
    {
      "inputs": [
        {
          "internalType": "uint256",
          "name": "tokenId",
          "type": "uint256"
        },
        {
          "internalType": "uint256",
          "name": "numerator",
          "type": "uint256"
        },
        {
          "internalType": "uint256",
          "name": "denominator",
          "type": "uint256"
        }
      ],
      "name": "ERC2981InvalidTokenRoyalty",
      "type": "error"
    },
    {
      "inputs": [
        {
          "internalType": "uint256",
          "name": "tokenId",
          "type": "uint256"
        },
        {
          "internalType": "address",
          "name": "receiver",
          "type": "address"
        }
      ],
      "name": "ERC2981InvalidTokenRoyaltyReceiver",
      "type": "error"
    },
    {
      "inputs": [],
      "name": "ERC721EnumerableForbiddenBatchMint",
      "type": "error"
    },
    {
      "inputs": [
        {
          "internalType": "address",
          "name": "sender",
          "type": "address"
        },
        {
          "internalType": "uint256",
          "name": "tokenId",
          "type": "uint256"
        },
        {
          "internalType": "address",
          "name": "owner",
          "type": "address"
        }
      ],
      "name": "ERC721IncorrectOwner",
      "type": "error"
    },
    {
      "inputs": [
        {
          "internalType": "address",
          "name": "operator",
          "type": "address"
        },
        {
          "internalType": "uint256",
          "name": "tokenId",
          "type": "uint256"
        }
      ],
      "name": "ERC721InsufficientApproval",
      "type": "error"
    },
    {
      "inputs": [
        {
          "internalType": "address",
          "name": "approver",
          "type": "address"
        }
      ],
      "name": "ERC721InvalidApprover",
      "type": "error"
    },
    {
      "inputs": [
        {
          "internalType": "address",
          "name": "operator",
          "type": "address"
        }
      ],
      "name": "ERC721InvalidOperator",
      "type": "error"
    },
    {
      "inputs": [
        {
          "internalType": "address",
          "name": "owner",
          "type": "address"
        }
      ],
      "name": "ERC721InvalidOwner",
      "type": "error"
    },
    {
      "inputs": [
        {
          "internalType": "address",
          "name": "receiver",
          "type": "address"
        }
      ],
      "name": "ERC721InvalidReceiver",
      "type": "error"
    },
    {
      "inputs": [
        {
          "internalType": "address",
          "name": "sender",
          "type": "address"
        }
      ],
      "name": "ERC721InvalidSender",
      "type": "error"
    },
    {
      "inputs": [
        {
          "internalType": "uint256",
          "name": "tokenId",
          "type": "uint256"
        }
      ],
      "name": "ERC721NonexistentToken",
      "type": "error"
    },
    {
      "inputs": [
        {
          "internalType": "address",
          "name": "owner",
          "type": "address"
        },
        {
          "internalType": "uint256",
          "name": "index",
          "type": "uint256"
        }
      ],
      "name": "ERC721OutOfBoundsIndex",
      "type": "error"
    },
    {
      "inputs": [],
      "name": "EnforcedPause",
      "type": "error"
    },
    {
      "inputs": [],
      "name": "ExpectedPause",
      "type": "error"
    },
    {
      "inputs": [],
      "name": "FailedCall",
      "type": "error"
    },
    {
      "inputs": [],
      "name": "InvalidCollectionId",
      "type": "error"
    },
    {
      "inputs": [],
      "name": "InvalidInitialization",
      "type": "error"
    },
    {
      "inputs": [],
      "name": "NotCreator",
      "type": "error"
    },
    {
      "inputs": [],
      "name": "NotInitializing",
      "type": "error"
    },
    {
      "inputs": [],
      "name": "TokenDoesNotExist",
      "type": "error"
    },
    {
      "inputs": [],
      "name": "UUPSUnauthorizedCallContext",
      "type": "error"
    },
    {
      "inputs": [
        {
          "internalType": "bytes32",
          "name": "slot",
          "type": "bytes32"
        }
      ],
      "name": "UUPSUnsupportedProxiableUUID",
      "type": "error"
    },
    {
      "inputs": [],
      "name": "ZeroAddress",
      "type": "error"
    },
    {
      "anonymous": false,
      "inputs": [
        {
          "indexed": true,
          "internalType": "address",
          "name": "owner",
          "type": "address"
        },
        {
          "indexed": true,
          "internalType": "address",
          "name": "approved",
          "type": "address"
        },
        {
          "indexed": true,
          "internalType": "uint256",
          "name": "tokenId",
          "type": "uint256"
        }
      ],
      "name": "Approval",
      "type": "event"
    },
    {
      "anonymous": false,
      "inputs": [
        {
          "indexed": true,
          "internalType": "address",
          "name": "owner",
          "type": "address"
        },
        {
          "indexed": true,
          "internalType": "address",
          "name": "operator",
          "type": "address"
        },
        {
          "indexed": false,
          "internalType": "bool",
          "name": "approved",
          "type": "bool"
        }
      ],
      "name": "ApprovalForAll",
      "type": "event"
    },
    {
      "anonymous": false,
      "inputs": [
        {
          "indexed": false,
          "internalType": "string",
          "name": "newBaseURI",
          "type": "string"
        }
      ],
      "name": "BaseURIUpdated",
      "type": "event"
    },
    {
      "anonymous": false,
      "inputs": [
        {
          "indexed": false,
          "internalType": "uint256",
          "name": "_fromTokenId",
          "type": "uint256"
        },
        {
          "indexed": false,
          "internalType": "uint256",
          "name": "_toTokenId",
          "type": "uint256"
        }
      ],
      "name": "BatchMetadataUpdate",
      "type": "event"
    },
    {
      "anonymous": false,
      "inputs": [
        {
          "indexed": true,
          "internalType": "address",
          "name": "newCollectionManager",
          "type": "address"
        }
      ],
      "name": "CollectionManagerUpdated",
      "type": "event"
    },
    {
      "anonymous": false,
      "inputs": [
        {
          "indexed": false,
          "internalType": "uint64",
          "name": "version",
          "type": "uint64"
        }
      ],
      "name": "Initialized",
      "type": "event"
    },
    {
      "anonymous": false,
      "inputs": [
        {
          "indexed": true,
          "internalType": "address",
          "name": "newJeongSBT",
          "type": "address"
        }
      ],
      "name": "JeongSBTUpdated",
      "type": "event"
    },
    {
      "anonymous": false,
      "inputs": [
        {
          "indexed": false,
          "internalType": "uint256",
          "name": "_tokenId",
          "type": "uint256"
        }
      ],
      "name": "MetadataUpdate",
      "type": "event"
    },
    {
      "anonymous": false,
      "inputs": [
        {
          "indexed": true,
          "internalType": "uint256",
          "name": "tokenId",
          "type": "uint256"
        },
        {
          "indexed": true,
          "internalType": "address",
          "name": "owner",
          "type": "address"
        }
      ],
      "name": "NFTBurned",
      "type": "event"
    },
    {
      "anonymous": false,
      "inputs": [
        {
          "indexed": true,
          "internalType": "uint256",
          "name": "tokenId",
          "type": "uint256"
        },
        {
          "indexed": true,
          "internalType": "address",
          "name": "creator",
          "type": "address"
        },
        {
          "indexed": true,
          "internalType": "address",
          "name": "to",
          "type": "address"
        },
        {
          "indexed": false,
          "internalType": "uint256",
          "name": "collectionId",
          "type": "uint256"
        },
        {
          "indexed": false,
          "internalType": "string",
          "name": "tokenURI",
          "type": "string"
        }
      ],
      "name": "NFTMinted",
      "type": "event"
    },
    {
      "anonymous": false,
      "inputs": [
        {
          "indexed": true,
          "internalType": "uint256",
          "name": "tokenId",
          "type": "uint256"
        },
        {
          "indexed": false,
          "internalType": "bool",
          "name": "verified",
          "type": "bool"
        }
      ],
      "name": "NFTVerified",
      "type": "event"
    },
    {
      "anonymous": false,
      "inputs": [
        {
          "indexed": false,
          "internalType": "address",
          "name": "account",
          "type": "address"
        }
      ],
      "name": "Paused",
      "type": "event"
    },
    {
      "anonymous": false,
      "inputs": [
        {
          "indexed": true,
          "internalType": "bytes32",
          "name": "role",
          "type": "bytes32"
        },
        {
          "indexed": true,
          "internalType": "bytes32",
          "name": "previousAdminRole",
          "type": "bytes32"
        },
        {
          "indexed": true,
          "internalType": "bytes32",
          "name": "newAdminRole",
          "type": "bytes32"
        }
      ],
      "name": "RoleAdminChanged",
      "type": "event"
    },
    {
      "anonymous": false,
      "inputs": [
        {
          "indexed": true,
          "internalType": "bytes32",
          "name": "role",
          "type": "bytes32"
        },
        {
          "indexed": true,
          "internalType": "address",
          "name": "account",
          "type": "address"
        },
        {
          "indexed": true,
          "internalType": "address",
          "name": "sender",
          "type": "address"
        }
      ],
      "name": "RoleGranted",
      "type": "event"
    },
    {
      "anonymous": false,
      "inputs": [
        {
          "indexed": true,
          "internalType": "bytes32",
          "name": "role",
          "type": "bytes32"
        },
        {
          "indexed": true,
          "internalType": "address",
          "name": "account",
          "type": "address"
        },
        {
          "indexed": true,
          "internalType": "address",
          "name": "sender",
          "type": "address"
        }
      ],
      "name": "RoleRevoked",
      "type": "event"
    },
    {
      "anonymous": false,
      "inputs": [
        {
          "indexed": true,
          "internalType": "address",
          "name": "from",
          "type": "address"
        },
        {
          "indexed": true,
          "internalType": "address",
          "name": "to",
          "type": "address"
        },
        {
          "indexed": true,
          "internalType": "uint256",
          "name": "tokenId",
          "type": "uint256"
        }
      ],
      "name": "Transfer",
      "type": "event"
    },
    {
      "anonymous": false,
      "inputs": [
        {
          "indexed": false,
          "internalType": "address",
          "name": "account",
          "type": "address"
        }
      ],
      "name": "Unpaused",
      "type": "event"
    },
    {
      "anonymous": false,
      "inputs": [
        {
          "indexed": true,
          "internalType": "uint256",
          "name": "tokenId",
          "type": "uint256"
        },
        {
          "indexed": true,
          "internalType": "address",
          "name": "user",
          "type": "address"
        },
        {
          "indexed": false,
          "internalType": "uint64",
          "name": "expires",
          "type": "uint64"
        }
      ],
      "name": "UpdateUser",
      "type": "event"
    },
    {
      "anonymous": false,
      "inputs": [
        {
          "indexed": true,
          "internalType": "address",
          "name": "implementation",
          "type": "address"
        }
      ],
      "name": "Upgraded",
      "type": "event"
    },
    {
      "inputs": [],
      "name": "DEFAULT_ADMIN_ROLE",
      "outputs": [
        {
          "internalType": "bytes32",
          "name": "",
          "type": "bytes32"
        }
      ],
      "stateMutability": "view",
      "type": "function"
    },
    {
      "inputs": [],
      "name": "DIAMOND_DISCOUNT_BPS",
      "outputs": [
        {
          "internalType": "uint256",
          "name": "",
          "type": "uint256"
        }
      ],
      "stateMutability": "view",
      "type": "function"
    },
    {
      "inputs": [],
      "name": "GOLD_DISCOUNT_BPS",
      "outputs": [
        {
          "internalType": "uint256",
          "name": "",
          "type": "uint256"
        }
      ],
      "stateMutability": "view",
      "type": "function"
    },
    {
      "inputs": [],
      "name": "MINTER_ROLE",
      "outputs": [
        {
          "internalType": "bytes32",
          "name": "",
          "type": "bytes32"
        }
      ],
      "stateMutability": "view",
      "type": "function"
    },
    {
      "inputs": [],
      "name": "PAUSER_ROLE",
      "outputs": [
        {
          "internalType": "bytes32",
          "name": "",
          "type": "bytes32"
        }
      ],
      "stateMutability": "view",
      "type": "function"
    },
    {
      "inputs": [],
      "name": "ROYALTY_ADMIN_ROLE",
      "outputs": [
        {
          "internalType": "bytes32",
          "name": "",
          "type": "bytes32"
        }
      ],
      "stateMutability": "view",
      "type": "function"
    },
    {
      "inputs": [],
      "name": "SILVER_DISCOUNT_BPS",
      "outputs": [
        {
          "internalType": "uint256",
          "name": "",
          "type": "uint256"
        }
      ],
      "stateMutability": "view",
      "type": "function"
    },
    {
      "inputs": [],
      "name": "UPGRADER_ROLE",
      "outputs": [
        {
          "internalType": "bytes32",
          "name": "",
          "type": "bytes32"
        }
      ],
      "stateMutability": "view",
      "type": "function"
    },
    {
      "inputs": [],
      "name": "UPGRADE_INTERFACE_VERSION",
      "outputs": [
        {
          "internalType": "string",
          "name": "",
          "type": "string"
        }
      ],
      "stateMutability": "view",
      "type": "function"
    },
    {
      "inputs": [
        {
          "internalType": "address",
          "name": "to",
          "type": "address"
        },
        {
          "internalType": "uint256",
          "name": "tokenId",
          "type": "uint256"
        }
      ],
      "name": "approve",
      "outputs": [],
      "stateMutability": "nonpayable",
      "type": "function"
    },
    {
      "inputs": [
        {
          "internalType": "address",
          "name": "owner",
          "type": "address"
        }
      ],
      "name": "balanceOf",
      "outputs": [
        {
          "internalType": "uint256",
          "name": "",
          "type": "uint256"
        }
      ],
      "stateMutability": "view",
      "type": "function"
    },
    {
      "inputs": [],
      "name": "baseURI",
      "outputs": [
        {
          "internalType": "string",
          "name": "",
          "type": "string"
        }
      ],
      "stateMutability": "view",
      "type": "function"
    },
    {
      "inputs": [
        {
          "internalType": "address",
          "name": "to",
          "type": "address"
        },
        {
          "internalType": "string[]",
          "name": "tokenURIs",
          "type": "string[]"
        },
        {
          "internalType": "uint256",
          "name": "collectionId",
          "type": "uint256"
        },
        {
          "internalType": "string",
          "name": "category",
          "type": "string"
        },
        {
          "internalType": "address",
          "name": "royaltyReceiver",
          "type": "address"
        },
        {
          "internalType": "uint96",
          "name": "royaltyBps",
          "type": "uint96"
        }
      ],
      "name": "batchMint",
      "outputs": [
        {
          "internalType": "uint256[]",
          "name": "",
          "type": "uint256[]"
        }
      ],
      "stateMutability": "nonpayable",
      "type": "function"
    },
    {
      "inputs": [
        {
          "internalType": "uint256",
          "name": "tokenId",
          "type": "uint256"
        }
      ],
      "name": "burn",
      "outputs": [],
      "stateMutability": "nonpayable",
      "type": "function"
    },
    {
      "inputs": [],
      "name": "collectionManager",
      "outputs": [
        {
          "internalType": "address",
          "name": "",
          "type": "address"
        }
      ],
      "stateMutability": "view",
      "type": "function"
    },
    {
      "inputs": [
        {
          "internalType": "address",
          "name": "",
          "type": "address"
        },
        {
          "internalType": "uint256",
          "name": "",
          "type": "uint256"
        }
      ],
      "name": "creatorTokens",
      "outputs": [
        {
          "internalType": "uint256",
          "name": "",
          "type": "uint256"
        }
      ],
      "stateMutability": "view",
      "type": "function"
    },
    {
      "inputs": [],
      "name": "defaultRoyaltyBps",
      "outputs": [
        {
          "internalType": "uint96",
          "name": "",
          "type": "uint96"
        }
      ],
      "stateMutability": "view",
      "type": "function"
    },
    {
      "inputs": [
        {
          "internalType": "uint256",
          "name": "tokenId",
          "type": "uint256"
        }
      ],
      "name": "getApproved",
      "outputs": [
        {
          "internalType": "address",
          "name": "",
          "type": "address"
        }
      ],
      "stateMutability": "view",
      "type": "function"
    },
    {
      "inputs": [
        {
          "internalType": "address",
          "name": "creator",
          "type": "address"
        }
      ],
      "name": "getCreatorTokens",
      "outputs": [
        {
          "internalType": "uint256[]",
          "name": "",
          "type": "uint256[]"
        }
      ],
      "stateMutability": "view",
      "type": "function"
    },
    {
      "inputs": [
        {
          "internalType": "address",
          "name": "user",
          "type": "address"
        }
      ],
      "name": "getKindnessDiscount",
      "outputs": [
        {
          "internalType": "uint256",
          "name": "discountBps",
          "type": "uint256"
        }
      ],
      "stateMutability": "view",
      "type": "function"
    },
    {
      "inputs": [
        {
          "internalType": "bytes32",
          "name": "role",
          "type": "bytes32"
        }
      ],
      "name": "getRoleAdmin",
      "outputs": [
        {
          "internalType": "bytes32",
          "name": "",
          "type": "bytes32"
        }
      ],
      "stateMutability": "view",
      "type": "function"
    },
    {
      "inputs": [
        {
          "internalType": "uint256",
          "name": "collectionId",
          "type": "uint256"
        },
        {
          "internalType": "uint256",
          "name": "offset",
          "type": "uint256"
        },
        {
          "internalType": "uint256",
          "name": "limit",
          "type": "uint256"
        }
      ],
      "name": "getTokensByCollection",
      "outputs": [
        {
          "internalType": "uint256[]",
          "name": "tokenIds",
          "type": "uint256[]"
        },
        {
          "internalType": "uint256",
          "name": "total",
          "type": "uint256"
        }
      ],
      "stateMutability": "view",
      "type": "function"
    },
    {
      "inputs": [
        {
          "internalType": "bytes32",
          "name": "role",
          "type": "bytes32"
        },
        {
          "internalType": "address",
          "name": "account",
          "type": "address"
        }
      ],
      "name": "grantRole",
      "outputs": [],
      "stateMutability": "nonpayable",
      "type": "function"
    },
    {
      "inputs": [
        {
          "internalType": "address",
          "name": "user",
          "type": "address"
        }
      ],
      "name": "hasJeongSoul",
      "outputs": [
        {
          "internalType": "bool",
          "name": "",
          "type": "bool"
        }
      ],
      "stateMutability": "view",
      "type": "function"
    },
    {
      "inputs": [
        {
          "internalType": "bytes32",
          "name": "role",
          "type": "bytes32"
        },
        {
          "internalType": "address",
          "name": "account",
          "type": "address"
        }
      ],
      "name": "hasRole",
      "outputs": [
        {
          "internalType": "bool",
          "name": "",
          "type": "bool"
        }
      ],
      "stateMutability": "view",
      "type": "function"
    },
    {
      "inputs": [
        {
          "internalType": "address",
          "name": "defaultAdmin",
          "type": "address"
        },
        {
          "internalType": "string",
          "name": "baseURI_",
          "type": "string"
        },
        {
          "internalType": "address",
          "name": "_jeongSBT",
          "type": "address"
        },
        {
          "internalType": "uint96",
          "name": "_defaultRoyaltyBps",
          "type": "uint96"
        }
      ],
      "name": "initialize",
      "outputs": [],
      "stateMutability": "nonpayable",
      "type": "function"
    },
    {
      "inputs": [
        {
          "internalType": "address",
          "name": "owner",
          "type": "address"
        },
        {
          "internalType": "address",
          "name": "operator",
          "type": "address"
        }
      ],
      "name": "isApprovedForAll",
      "outputs": [
        {
          "internalType": "bool",
          "name": "",
          "type": "bool"
        }
      ],
      "stateMutability": "view",
      "type": "function"
    },
    {
      "inputs": [
        {
          "internalType": "address",
          "name": "forwarder",
          "type": "address"
        }
      ],
      "name": "isTrustedForwarder",
      "outputs": [
        {
          "internalType": "bool",
          "name": "",
          "type": "bool"
        }
      ],
      "stateMutability": "view",
      "type": "function"
    },
    {
      "inputs": [],
      "name": "jeongSBT",
      "outputs": [
        {
          "internalType": "address",
          "name": "",
          "type": "address"
        }
      ],
      "stateMutability": "view",
      "type": "function"
    },
    {
      "inputs": [
        {
          "internalType": "address",
          "name": "to",
          "type": "address"
        },
        {
          "internalType": "string",
          "name": "tokenURI_",
          "type": "string"
        },
        {
          "internalType": "uint256",
          "name": "collectionId",
          "type": "uint256"
        },
        {
          "internalType": "string",
          "name": "category",
          "type": "string"
        },
        {
          "internalType": "address",
          "name": "royaltyReceiver",
          "type": "address"
        },
        {
          "internalType": "uint96",
          "name": "royaltyBps",
          "type": "uint96"
        }
      ],
      "name": "mint",
      "outputs": [
        {
          "internalType": "uint256",
          "name": "",
          "type": "uint256"
        }
      ],
      "stateMutability": "nonpayable",
      "type": "function"
    },
    {
      "inputs": [],
      "name": "name",
      "outputs": [
        {
          "internalType": "string",
          "name": "",
          "type": "string"
        }
      ],
      "stateMutability": "view",
      "type": "function"
    },
    {
      "inputs": [
        {
          "internalType": "uint256",
          "name": "",
          "type": "uint256"
        }
      ],
      "name": "nftMetadata",
      "outputs": [
        {
          "internalType": "address",
          "name": "creator",
          "type": "address"
        },
        {
          "internalType": "uint256",
          "name": "createdAt",
          "type": "uint256"
        },
        {
          "internalType": "uint256",
          "name": "collectionId",
          "type": "uint256"
        },
        {
          "internalType": "string",
          "name": "category",
          "type": "string"
        },
        {
          "internalType": "bool",
          "name": "isVerified",
          "type": "bool"
        }
      ],
      "stateMutability": "view",
      "type": "function"
    },
    {
      "inputs": [
        {
          "internalType": "uint256",
          "name": "tokenId",
          "type": "uint256"
        }
      ],
      "name": "ownerOf",
      "outputs": [
        {
          "internalType": "address",
          "name": "",
          "type": "address"
        }
      ],
      "stateMutability": "view",
      "type": "function"
    },
    {
      "inputs": [],
      "name": "pause",
      "outputs": [],
      "stateMutability": "nonpayable",
      "type": "function"
    },
    {
      "inputs": [],
      "name": "paused",
      "outputs": [
        {
          "internalType": "bool",
          "name": "",
          "type": "bool"
        }
      ],
      "stateMutability": "view",
      "type": "function"
    },
    {
      "inputs": [],
      "name": "proxiableUUID",
      "outputs": [
        {
          "internalType": "bytes32",
          "name": "",
          "type": "bytes32"
        }
      ],
      "stateMutability": "view",
      "type": "function"
    },
    {
      "inputs": [
        {
          "internalType": "bytes32",
          "name": "role",
          "type": "bytes32"
        },
        {
          "internalType": "address",
          "name": "callerConfirmation",
          "type": "address"
        }
      ],
      "name": "renounceRole",
      "outputs": [],
      "stateMutability": "nonpayable",
      "type": "function"
    },
    {
      "inputs": [
        {
          "internalType": "bytes32",
          "name": "role",
          "type": "bytes32"
        },
        {
          "internalType": "address",
          "name": "account",
          "type": "address"
        }
      ],
      "name": "revokeRole",
      "outputs": [],
      "stateMutability": "nonpayable",
      "type": "function"
    },
    {
      "inputs": [
        {
          "internalType": "uint256",
          "name": "tokenId",
          "type": "uint256"
        },
        {
          "internalType": "uint256",
          "name": "salePrice",
          "type": "uint256"
        }
      ],
      "name": "royaltyInfo",
      "outputs": [
        {
          "internalType": "address",
          "name": "receiver",
          "type": "address"
        },
        {
          "internalType": "uint256",
          "name": "amount",
          "type": "uint256"
        }
      ],
      "stateMutability": "view",
      "type": "function"
    },
    {
      "inputs": [
        {
          "internalType": "address",
          "name": "from",
          "type": "address"
        },
        {
          "internalType": "address",
          "name": "to",
          "type": "address"
        },
        {
          "internalType": "uint256",
          "name": "tokenId",
          "type": "uint256"
        }
      ],
      "name": "safeTransferFrom",
      "outputs": [],
      "stateMutability": "nonpayable",
      "type": "function"
    },
    {
      "inputs": [
        {
          "internalType": "address",
          "name": "from",
          "type": "address"
        },
        {
          "internalType": "address",
          "name": "to",
          "type": "address"
        },
        {
          "internalType": "uint256",
          "name": "tokenId",
          "type": "uint256"
        },
        {
          "internalType": "bytes",
          "name": "data",
          "type": "bytes"
        }
      ],
      "name": "safeTransferFrom",
      "outputs": [],
      "stateMutability": "nonpayable",
      "type": "function"
    },
    {
      "inputs": [
        {
          "internalType": "address",
          "name": "operator",
          "type": "address"
        },
        {
          "internalType": "bool",
          "name": "approved",
          "type": "bool"
        }
      ],
      "name": "setApprovalForAll",
      "outputs": [],
      "stateMutability": "nonpayable",
      "type": "function"
    },
    {
      "inputs": [
        {
          "internalType": "string",
          "name": "newBaseURI",
          "type": "string"
        }
      ],
      "name": "setBaseURI",
      "outputs": [],
      "stateMutability": "nonpayable",
      "type": "function"
    },
    {
      "inputs": [
        {
          "internalType": "address",
          "name": "_collectionManager",
          "type": "address"
        }
      ],
      "name": "setCollectionManager",
      "outputs": [],
      "stateMutability": "nonpayable",
      "type": "function"
    },
    {
      "inputs": [
        {
          "internalType": "address",
          "name": "receiver",
          "type": "address"
        },
        {
          "internalType": "uint96",
          "name": "feeNumerator",
          "type": "uint96"
        }
      ],
      "name": "setDefaultRoyalty",
      "outputs": [],
      "stateMutability": "nonpayable",
      "type": "function"
    },
    {
      "inputs": [
        {
          "internalType": "address",
          "name": "_jeongSBT",
          "type": "address"
        }
      ],
      "name": "setJeongSBT",
      "outputs": [],
      "stateMutability": "nonpayable",
      "type": "function"
    },
    {
      "inputs": [
        {
          "internalType": "uint256",
          "name": "tokenId",
          "type": "uint256"
        },
        {
          "internalType": "address",
          "name": "user",
          "type": "address"
        },
        {
          "internalType": "uint64",
          "name": "expires",
          "type": "uint64"
        }
      ],
      "name": "setUser",
      "outputs": [],
      "stateMutability": "nonpayable",
      "type": "function"
    },
    {
      "inputs": [
        {
          "internalType": "uint256",
          "name": "tokenId",
          "type": "uint256"
        },
        {
          "internalType": "bool",
          "name": "verified",
          "type": "bool"
        }
      ],
      "name": "setVerified",
      "outputs": [],
      "stateMutability": "nonpayable",
      "type": "function"
    },
    {
      "inputs": [
        {
          "internalType": "bytes4",
          "name": "interfaceId",
          "type": "bytes4"
        }
      ],
      "name": "supportsInterface",
      "outputs": [
        {
          "internalType": "bool",
          "name": "",
          "type": "bool"
        }
      ],
      "stateMutability": "view",
      "type": "function"
    },
    {
      "inputs": [],
      "name": "symbol",
      "outputs": [
        {
          "internalType": "string",
          "name": "",
          "type": "string"
        }
      ],
      "stateMutability": "view",
      "type": "function"
    },
    {
      "inputs": [
        {
          "internalType": "uint256",
          "name": "index",
          "type": "uint256"
        }
      ],
      "name": "tokenByIndex",
      "outputs": [
        {
          "internalType": "uint256",
          "name": "",
          "type": "uint256"
        }
      ],
      "stateMutability": "view",
      "type": "function"
    },
    {
      "inputs": [
        {
          "internalType": "address",
          "name": "owner",
          "type": "address"
        },
        {
          "internalType": "uint256",
          "name": "index",
          "type": "uint256"
        }
      ],
      "name": "tokenOfOwnerByIndex",
      "outputs": [
        {
          "internalType": "uint256",
          "name": "",
          "type": "uint256"
        }
      ],
      "stateMutability": "view",
      "type": "function"
    },
    {
      "inputs": [
        {
          "internalType": "uint256",
          "name": "tokenId",
          "type": "uint256"
        }
      ],
      "name": "tokenURI",
      "outputs": [
        {
          "internalType": "string",
          "name": "",
          "type": "string"
        }
      ],
      "stateMutability": "view",
      "type": "function"
    },
    {
      "inputs": [],
      "name": "totalMinted",
      "outputs": [
        {
          "internalType": "uint256",
          "name": "",
          "type": "uint256"
        }
      ],
      "stateMutability": "view",
      "type": "function"
    },
    {
      "inputs": [],
      "name": "totalSupply",
      "outputs": [
        {
          "internalType": "uint256",
          "name": "",
          "type": "uint256"
        }
      ],
      "stateMutability": "view",
      "type": "function"
    },
    {
      "inputs": [
        {
          "internalType": "address",
          "name": "from",
          "type": "address"
        },
        {
          "internalType": "address",
          "name": "to",
          "type": "address"
        },
        {
          "internalType": "uint256",
          "name": "tokenId",
          "type": "uint256"
        }
      ],
      "name": "transferFrom",
      "outputs": [],
      "stateMutability": "nonpayable",
      "type": "function"
    },
    {
      "inputs": [],
      "name": "trustedForwarder",
      "outputs": [
        {
          "internalType": "address",
          "name": "",
          "type": "address"
        }
      ],
      "stateMutability": "view",
      "type": "function"
    },
    {
      "inputs": [],
      "name": "unpause",
      "outputs": [],
      "stateMutability": "nonpayable",
      "type": "function"
    },
    {
      "inputs": [
        {
          "internalType": "address",
          "name": "newImplementation",
          "type": "address"
        },
        {
          "internalType": "bytes",
          "name": "data",
          "type": "bytes"
        }
      ],
      "name": "upgradeToAndCall",
      "outputs": [],
      "stateMutability": "payable",
      "type": "function"
    },
    {
      "inputs": [
        {
          "internalType": "uint256",
          "name": "tokenId",
          "type": "uint256"
        }
      ],
      "name": "userExpires",
      "outputs": [
        {
          "internalType": "uint256",
          "name": "",
          "type": "uint256"
        }
      ],
      "stateMutability": "view",
      "type": "function"
    },
    {
      "inputs": [
        {
          "internalType": "uint256",
          "name": "tokenId",
          "type": "uint256"
        }
      ],
      "name": "userOf",
      "outputs": [
        {
          "internalType": "address",
          "name": "",
          "type": "address"
        }
      ],
      "stateMutability": "view",
      "type": "function"
    }
  ],
  "bytecode": "0x60c03462000128576001600160401b0390601f62004b0a38819003918201601f1916830191848311848410176200012c578084926020946040528339810103126200012857516001600160a01b038116810362000128576080523060a0527ff0c57e16840df040f15088dc2f81fe391c3923bec73e23a9662efc9c229c6a009081549060ff8260401c1662000116578080831603620000d0575b6040516149c9908162000141823960805181818161129b0152818161177e01526146d8015260a0518181816119690152611a650152f35b6001600160401b031990911681179091556040519081527fc7f505b2f371ae2175ee4913f4499e1f2633a7b5936321eed1cdaeb6115181d290602090a15f808062000099565b60405163f92ee8a960e01b8152600490fd5b5f80fd5b634e487b7160e01b5f52604160045260245ffdfe6080806040526004361015610012575f80fd5b5f3560e01c90816301ffc9a714612bef5750806304634d8d14612b1957806306fdde0314612a76578063081812fc14612a58578063095ea7b31461296e57806318160ddd146129455780631863c5c21461292a57806318d33e41146129045780631d35d61d146124d657806323b872dd146124bf578063248a9ca3146124865780632a55205a146123b95780632a5c5fcc146123535780632f2ff15d1461230a5780632f745c591461227e57806331003ca41461224457806334756d951461219457806336568abe146121435780633f4ba83a146120cf57806342842e0e146120a257806342966c6814611d3d5780634954101514611cc15780634e3db86314611c945780634f1ef28614611a265780634f6ccce7146119d357806352d1902d1461195757806355f804b3146117b2578063572b6c051461175e57806357e7e0ce146117365780635c975abb146117085780635ee56e8e146113ac5780636352211e1461138e5780636c0360eb1461137357806370a082311461135057806374abfa54146112ca5780637da0a87714611286578063800169221461125b5780638456cb59146111e45780638fc88c48146111af57806391d148541461115a57806395d89b41146110805780639fdf846914611058578063a217fddf1461103e578063a22cb46514610f90578063a2309ff814610f73578063ad3cb1cc14610f2e578063b88d4fde14610ecd578063c2f1f14a14610e9d578063c87b56dd14610e66578063ce75f333146107bb578063d539139314610781578063d547741f14610736578063db3fa4cc146106df578063e030565e146105d2578063e1c7acac1461041d578063e5f52a9c146103b7578063e63ab1e91461037d578063e985e9c514610331578063f124c4fe14610315578063f72c0d8b146102db5763fdca1e91146102bb575f80fd5b346102d7575f3660031901126102d75760206040516101f48152f35b5f80fd5b346102d7575f3660031901126102d75760206040517f189ab7a9244df0848122154315af71fe140f3db0fe014031783b0946b8c9d2e38152f35b346102d7575f3660031901126102d75760206040516103e88152f35b346102d75760403660031901126102d75761034a612cdc565b61035b610355612d08565b91613063565b9060018060a01b03165f52602052602060ff60405f2054166040519015158152f35b346102d7575f3660031901126102d75760206040517f65d7a28e3265b37a6474929f336521b332c1681b933f6cb9f3376673440d862a8152f35b346102d75760203660031901126102d7576103d0612cdc565b6103d86136b1565b600480546001600160a01b0319166001600160a01b039290921691821790557f3f09ab4c5074eef9e258bd6a6be7afd2d45ede61a3fe35ee6efdd88819f263035f80a2005b346102d75760603660031901126102d757600435602435604435915f600192600154935b848111156105685750808211156105615780820382811161054d57945b808611610545575b506104708561316c565b925f925f9660015b878111158061053c575b1561051957805f5260206005815284600260405f2001541490816104f2575b506104b5575b6104b09061319e565b610478565b948489106104de576104d581876104cf6104b0948b6131ac565b5261319e565b955b90506104a7565b94976104ec6104b09161319e565b986104d7565b5f8051602061491483398151915290525060405f20546001600160a01b031615158a6104a1565b6105328784604051928392604084526040840190612e64565b9060208301520390f35b50818610610482565b945085610466565b634e487b7160e01b5f52601160045260245ffd5b5f9461045e565b805f5260206005815284600260405f2001541490816105ab575b50610596575b6105919061319e565b610441565b916105a36105919161319e565b929050610588565b5f8051602061491483398151915290525060405f20546001600160a01b0316151587610582565b346102d75760603660031901126102d7576004356105ee612d08565b90604435916001600160401b0383168084036102d757825f525f8051602061491483398151915260205260018060a01b0390610639848360405f2054166106336146ad565b90614621565b15610688575f8051602061487483398151915292602092855f525f845260405f20911695868254916001600160401b0360a01b9060a01b169163ffffffff60e01b1617179055604051908152a3005b60405162461bcd60e51b815260206004820152602960248201527f455243343930373a2063616c6c6572206973206e6f74206f776e6572206e6f7260448201526808185c1c1c9bdd995960ba1b6064820152608490fd5b346102d75760403660031901126102d7576106f8612cdc565b6001600160a01b03165f908152600660205260409020805460243591908210156102d75760209161072891613127565b90546040519160031b1c8152f35b346102d75760403660031901126102d75761077f600435610755612d08565b90805f525f805160206148d483398151915260205261077a600160405f200154613784565b614209565b005b346102d7575f3660031901126102d75760206040517f9f2df0fed2c77648de5860a4cc508cd0818c85b8b8a1ab4ceeef8d981c8956a68152f35b346102d75760803660031901126102d7576107d4612cdc565b6024356001600160401b0381116102d7576107f3903690600401612e1e565b604435916001600160a01b03831683036102d7576001600160601b0360643516606435036102d7577ff0c57e16840df040f15088dc2f81fe391c3923bec73e23a9662efc9c229c6a00928354926001600160401b03841680159081610e56575b6001149081610e4c575b159081610e43575b50610e315760016001600160401b0319851617855560ff8460401c1615610e12575b60405161089381612d95565b6008815267139153d4c813919560c21b6020820152604051906108b582612d95565b6007825266139153d4d3919560ca1b60208301526108d161472f565b6108d961472f565b8051906001600160401b038211610bd75781906109035f8051602061483483398151915254612edb565b601f8111610d97575b50602090601f8311600114610d0b575f92610d00575b50508160011b915f199060031b1c1916175f80516020614834833981519152555b8051906001600160401b038211610bd757819061096d5f8051602061495483398151915254612edb565b601f8111610c82575b50602090601f8311600114610bf6575f92610beb575b50508160011b915f199060031b1c1916175f80516020614954833981519152555b6109b561472f565b6109bd61472f565b6109c561472f565b6109cd61472f565b6109d561472f565b6109dd61472f565b6109e561472f565b6109ed61472f565b6109f683613e70565b50610a0083613f14565b50610a0a83613fdf565b50610a1483614077565b50610a1e8361410f565b508051906001600160401b038211610bd757610a3b600254612edb565b601f8111610b87575b50602090601f8311600114610b0f579180610abc949260ff9796945f92610b04575b50508160011b915f199060031b1c1916176002555b60018060a01b03166001600160601b0360a01b60045416176004556001600160601b03606435166001600160601b03196007541617600755606435906137c6565b60401c1615610ac757005b68ff00000000000000001981541690557fc7f505b2f371ae2175ee4913f4499e1f2633a7b5936321eed1cdaeb6115181d2602060405160018152a1005b015190508880610a66565b90601f1983169160025f525f805160206147d4833981519152925f5b818110610b6f575092600192859260ff999896610abc989610610b57575b505050811b01600255610a7b565b01515f1960f88460031b161c19169055888080610b49565b92936020600181928786015181550195019301610b2b565b60025f525f805160206147d4833981519152601f840160051c81019160208510610bcd575b601f0160051c01905b818110610bc25750610a44565b5f8155600101610bb5565b9091508190610bac565b634e487b7160e01b5f52604160045260245ffd5b01519050878061098c565b92505f805160206149548339815191525f525f80516020614854833981519152905f935b601f1984168510610c67576001945083601f19811610610c4f575b505050811b015f80516020614954833981519152556109ad565b01515f1960f88460031b161c19169055878080610c35565b81810151835560209485019460019093019290910190610c1a565b9091505f805160206149548339815191525f52601f830160051c5f80516020614854833981519152019060208410610ceb575b90601f8493920160051c5f8051602061485483398151915201905b818110610cdd5750610976565b5f8155849350600101610cd0565b5f805160206148548339815191529150610cb5565b015190508880610922565b92505f805160206148348339815191525f525f80516020614974833981519152905f935b601f1984168510610d7c576001945083601f19811610610d64575b505050811b015f8051602061483483398151915255610943565b01515f1960f88460031b161c19169055888080610d4a565b81810151835560209485019460019093019290910190610d2f565b9091505f805160206148348339815191525f52601f830160051c5f805160206149748339815191520160208410610dfe575b908392915b601f820160051c5f80516020614974833981519152018110610df0575061090c565b5f8155849350600101610dce565b505f80516020614974833981519152610dc9565b68ffffffffffffffffff19841668010000000000000001178555610887565b60405163f92ee8a960e01b8152600490fd5b90501586610865565b303b15915061085d565b604086901c60ff16159150610853565b346102d75760203660031901126102d757610e99610e8560043561441e565b604051918291602083526020830190612d55565b0390f35b346102d75760203660031901126102d7576020610ebb600435613681565b6040516001600160a01b039091168152f35b346102d75760803660031901126102d757610ee6612cdc565b610eee612d08565b90604435606435926001600160401b0384116102d757610f1561077f943690600401612e1e565b92610f21838383613214565b610f296146ad565b6142c3565b346102d7575f3660031901126102d757610e99604051610f4d81612d95565b60058152640352e302e360dc1b6020820152604051918291602083526020830190612d55565b346102d7575f3660031901126102d7576020600154604051908152f35b346102d75760403660031901126102d757610fa9612cdc565b610fb1612ecc565b610fb96146ad565b6001600160a01b0392831692908315611025577f17307eab39ab6107e8899845ad3d59bd9653f200f220920489ca2b5937696c319181610ffa602093613063565b865f5283526110188560405f209060ff801983541691151516179055565b60405194151585521692a3005b604051630b61174360e31b815260048101859052602490fd5b346102d7575f3660031901126102d75760206040515f8152f35b346102d7575f3660031901126102d7576003546040516001600160a01b039091168152602090f35b346102d7575f3660031901126102d7576040515f805160206149548339815191528054825f6110ae83612edb565b92838352602094600191866001821691825f146111385750506001146110f1575b50506110dd92500383612dcb565b610e99604051928284938452830190612d55565b8592505f525f80516020614854833981519152905f915b8583106111205750506110dd935082010185806110cf565b80548389018501528794508693909201918101611108565b92509350506110dd94915060ff191682840152151560051b82010185806110cf565b346102d75760403660031901126102d757611173612d08565b6004355f525f805160206148d483398151915260205260405f209060018060a01b03165f52602052602060ff60405f2054166040519015158152f35b346102d75760203660031901126102d7576004355f525f60205260206001600160401b0360405f205460a01c16604051908152f35b346102d7575f3660031901126102d7576111fc613718565b611204613896565b5f805160206148f4833981519152805460ff191660011790557f62e78cea01bee320cd4e420270b5ea74000d11b0c9f74754ebdbfc544b05a25860206112486146ad565b6040516001600160a01b039091168152a1005b346102d75760203660031901126102d757602061127e611279612cdc565b6135b0565b604051908152f35b346102d7575f3660031901126102d7576040517f00000000000000000000000000000000000000000000000000000000000000006001600160a01b03168152602090f35b346102d7576020806003193601126102d7576001600160a01b036112ec612cdc565b165f526006815260405f20906040518083838295549384815201905f52835f20925f5b8582821061133a5750505061132692500383612dcb565b610e99604051928284938452830190612e64565b855484526001958601958895509301920161130f565b346102d75760203660031901126102d757602061127e61136e612cdc565b61357c565b346102d7575f3660031901126102d757610e99610e85612f13565b346102d75760203660031901126102d7576020610ebb600435613868565b346102d75760c03660031901126102d7576113c5612cdc565b6001600160401b036024358181116102d7576113e5903690600401612e1e565b906064358181116102d7576113fe903690600401612e1e565b91611407612cf2565b91611410612d1e565b93611419613896565b6114216146ad565b9361142d60015461319e565b958660015561143c87896138c0565b6114468588613c2e565b6001600160a01b0382161515806116f6575b6116e5575b50506001600160a01b0384165f9081527f549fe2656c81d2947b3b913f0a53b9ea86c71e049f3a1b8aa23c09a8a05cb8d460205260409081902054905160ff9091169290916114ab83612d7a565b6001600160a01b03868116845242602080860191825260443560408088019182526060880195865297151560808801525f8b81526005909252969020855181546001600160a01b031916931692909217825551600182015593516002850155518051918211610bd7576115216003850154612edb565b601f81116116a1575b5091869391602098938990601f83116001146116065760807fe3493d41e1e26404dee44962077c980f2be02d1c3cf8b3c5a8f8b773691555e89694846115a7956115f098956004955f926115fb575b50508160011b915f199060031b1c19161760038501555b0151151591019060ff801983541691151516179055565b60018060a01b0386165f52600688526115c38460405f206131f1565b6040805160443581528981018290526001600160a01b039283169790921695919283929091830190612d55565b0390a4604051908152f35b015190508f80611579565b90600385015f528a5f20915f5b601f198516811061168757507fe3493d41e1e26404dee44962077c980f2be02d1c3cf8b3c5a8f8b773691555e896946001856115f098956004956080956115a799601f1981161061166f575b505050811b016003850155611590565b01515f1960f88460031b161c191690558f808061165f565b8183015184558b9850600190930192918c01918c01611613565b600385015f5260205f20601f840160051c8101602085106116de575b601f830160051c820181106116d357505061152a565b5f81556001016116bd565b50806116bd565b6116ef9187613dac565b868061145d565b506001600160601b0381161515611458565b346102d7575f3660031901126102d757602060ff5f805160206148f483398151915254166040519015158152f35b346102d7575f3660031901126102d7576004546040516001600160a01b039091168152602090f35b346102d75760203660031901126102d7576020611779612cdc565b6040517f00000000000000000000000000000000000000000000000000000000000000006001600160a01b039081169216919091148152f35b346102d7576020806003193601126102d7576001600160401b03906004358281116102d7576117e5903690600401612e1e565b906117ee6136b1565b8151928311610bd757611802600254612edb565b601f8111611908575b508092601f811160011461187b57807f6741b2fc379fad678116fe3d4d4b9a1a184ab53ba36b86ad0fa66340b1ab41ad945f91611870575b508160011b915f199060031b1c1916176002555b61186b604051928284938452830190612d55565b0390a1005b905083015185611843565b601f1981169360025f525f805160206147d4833981519152945f5b8181106118f157509482916001937f6741b2fc379fad678116fe3d4d4b9a1a184ab53ba36b86ad0fa66340b1ab41ad97106118d9575b5050811b01600255611857565b8501515f1960f88460031b161c1916905585806118cc565b858301518755600190960195918401918401611896565b60025f525f805160206147d4833981519152601f850160051c81019183861061194d575b601f0160051c01905b818110611942575061180b565b5f8155600101611935565b909150819061192c565b346102d7575f3660031901126102d7577f00000000000000000000000000000000000000000000000000000000000000006001600160a01b031630036119c15760206040517f360894a13ba1a3210667c828492db98dca3e2076cc3735a920a3ca505d382bbc8152f35b60405163703e46dd60e11b8152600490fd5b346102d75760203660031901126102d7576004355f805160206148b483398151915254811015611a08576107286020916130d3565b6044906040519063295f44f760e21b82525f60048301526024820152fd5b60403660031901126102d757611a3a612cdc565b6024356001600160401b0381116102d757611a59903690600401612e1e565b906001600160a01b03907f00000000000000000000000000000000000000000000000000000000000000008216308114908115611c66575b506119c157611a9e6146ad565b82165f8181527fab71e3f32666744d246edff3f96e4bdafee2e9867098cdd118a979a7464786a86020908152604090912054909391907f189ab7a9244df0848122154315af71fe140f3db0fe014031783b0946b8c9d2e39060ff1615611c485750508116916040516352d1902d60e01b81528181600481875afa5f9181611c19575b50611b3e57604051634c9c8ce360e01b815260048101859052602490fd5b9284937f360894a13ba1a3210667c828492db98dca3e2076cc3735a920a3ca505d382bbc90818103611c015750833b15611be85780546001600160a01b03191682179055604051907fbc7cd75a20ee27fd9adebab32041f755214dbc6bffa90cc0225b39da2e5c2d3b5f80a2835115611bce57505f83819261077f95519101845af4611bc8614294565b91614770565b9250505034611bd957005b63b398979f60e01b8152600490fd5b604051634c9c8ce360e01b815260048101839052602490fd5b60249060405190632a87526960e21b82526004820152fd5b9091508281813d8311611c41575b611c318183612dcb565b810103126102d757519086611b20565b503d611c27565b604492506040519163e2517d3f60e01b835260048301526024820152fd5b9050827f360894a13ba1a3210667c828492db98dca3e2076cc3735a920a3ca505d382bbc5416141584611a91565b346102d75760203660031901126102d7576020611cb7611cb2612cdc565b6134ee565b6040519015158152f35b346102d75760203660031901126102d7576004355f52600560205260405f2060018060a01b03815416600182015491611d3160028201549160ff6004611d0960038401612fc3565b920154169260405195869586526020860152604085015260a0606085015260a0840190612d55565b90151560808301520390f35b346102d7576020806003193601126102d757600435611d5b81613868565b91611d646146ad565b6001600160a01b03848116949092918316851490811561207a575b50801561205d575b1561202157825f525f805160206149148339815191529182825260405f2054169182159283159182612003575b855f52835260405f206001600160601b0360a01b8154169055845f827fddf252ad1be2c89b69c2b068fc378daa952ba7f163c4a11628f55a4df523b3ef8280a4818415611f765750505f805160206148b483398151915254845f525f80516020614894833981519152835260405f2055611e2d846131c0565b5f805160206148b48339815191529081545f199081810190811161054d57865f525f80516020614894833981519152808652611e6d60405f2054926130d3565b90549060031b1c611e9981611e81856130d3565b90919082549060031b91821b915f19901b1916179055565b5f52855260405f2055855f525f60408120558254928315611f62578187940191611ec2836130d3565b909182549160031b1b1916905555808091611f5a575b81611f52575b50611f28575b5050611f10577f8f0a80450bfbfadc6d05658c9dc494e43beb79be53b44adbb146c6d5040f87705f80a3005b60249060405190637e27328960e01b82526004820152fd5b5f805160206148748339815191525f92828452838152836040812055604051848152a38382611ee4565b905086611ede565b5f9150611ed8565b634e487b7160e01b5f52603160045260245ffd5b611f81575b50611e2d565b611f8a8161357c565b855f525f805160206147f483398151915280855260405f2054925f525f80516020614814833981519152855260405f2092828103611fdf575b50865f5284525f60408120555f5282525f604081205585611f7b565b825f5283865260405f2054815f528060405f20555f5281865260405f205588611fc3565b61200c86614706565b6120158261309b565b80545f19019055611db4565b6064906040519062461bcd60e51b825260048201526015602482015274139bdd081bdddb995c881bdc88185c1c1c9bdd9959605a1b6044820152fd5b506120678361313c565b82806120716146ad565b16911614611d87565b90508261208e6120886146ad565b92613063565b91165f52815260ff60405f20541685611d7f565b346102d75761077f6120b336612e97565b90604051926120c184612db0565b5f8452610f21838383613214565b346102d7575f3660031901126102d7576120e7613718565b5f805160206148f4833981519152805460ff8116156121315760ff191690557f5db9ee0a495bf2e6ff9c91a7834c1ba4fdd244a5e8aa4e537bd38aeae4b073aa60206112486146ad565b604051638dfc202b60e01b8152600490fd5b346102d75760403660031901126102d75761215c612d08565b6001600160a01b038061216d6146ad565b16908216036121825761077f90600435614209565b60405163334bd91960e11b8152600490fd5b346102d75760403660031901126102d7576004356121b0612ecc565b6121b86136b1565b5f8281525f8051602061491483398151915260205260409020546001600160a01b0316156122325760207f4727b85a09e6ca94a7e26b46423373a951492773e32fbefde21a3ca64483035191835f526005825261222781600460405f20019060ff801983541691151516179055565b6040519015158152a2005b60405163677510db60e11b8152600490fd5b346102d7575f3660031901126102d75760206040517f6db4061a20ca83a3be756ee172bd37a029093ac5afe4ce968c6d5435b43cb0118152f35b346102d75760403660031901126102d757612297612cdc565b602435906122a48161357c565b8210156122df5760018060a01b03165f525f8051602061481483398151915260205260405f20905f52602052602060405f2054604051908152f35b60405163295f44f760e21b81526001600160a01b039190911660048201526024810191909152604490fd5b346102d75760403660031901126102d75761077f600435612329612d08565b90805f525f805160206148d483398151915260205261234e600160405f200154613784565b6141a7565b346102d75760203660031901126102d75761236c612cdc565b6123746136b1565b600380546001600160a01b0319166001600160a01b039290921691821790557f2dc88d3009ab8a9b5d13dd820c8dbf4cc07134e04a3f16d63c45145b138cc6145f80a2005b346102d75760403660031901126102d7576024356004355f527fdaedc9ab023613a7caf35e703657e986ccfad7e3eb0af93a2853f8d65dd86b0160205260405f20549060018060a01b038083169260a01c90831561244d575b506001600160601b03169081810291818304149015171561054d57604080516001600160a01b03939093168352612710909104602083015290f35b7fdaedc9ab023613a7caf35e703657e986ccfad7e3eb0af93a2853f8d65dd86b0054908116935060a01c90506001600160601b03612412565b346102d75760203660031901126102d7576004355f525f805160206148d48339815191526020526020600160405f200154604051908152f35b346102d75761077f6124d036612e97565b91613214565b346102d75760c03660031901126102d7576124ef612cdc565b602435906001600160401b0382116102d757366023830112156102d757816004013561251a81612dec565b926125286040519485612dcb565b8184526024602085019260051b820101903682116102d75760248101925b8284106128d55785856064356001600160401b0381116102d75761256e903690600401612e1e565b91612577612cf2565b91612580612d1e565b6125886146ad565b6001600160a01b03165f8181527f549fe2656c81d2947b3b913f0a53b9ea86c71e049f3a1b8aa23c09a8a05cb8d460205260409020547f9f2df0fed2c77648de5860a4cc508cd0818c85b8b8a1ab4ceeef8d981c8956a69060ff1615611c485750506125f2613896565b6125fc835161316c565b945f5b84518110156128bf5761261360015461319e565b8060015561262181866138c0565b61263561262e83886131ac565b5182613c2e565b6001600160a01b038716801515906128ad575b61289d575b6126556146ad565b6040519061266282612d7a565b60018060a01b031681526020810190428252604081016044358152606082019086825260016080840152845f52600560205260405f209360018060a01b038451166001600160601b0360a01b865416178555516001850155516002840155518051906001600160401b038211610bd7576126df6003850154612edb565b601f8111612859575b50602090601f83116001146127e25761273b93836001989796946004946080945f926127d7575b5050818a1b915f199060031b1c19161760038501550151151591019060ff801983541691151516179055565b828060a01b036127496146ad565b165f52600660205261275e8160405f206131f1565b80612769838b6131ac565b526127726146ad565b9061277d83896131ac565b51907fe3493d41e1e26404dee44962077c980f2be02d1c3cf8b3c5a8f8b773691555e8604051604435815260406020820152806127ce888060a01b038c1696898060a01b0316956040830190612d55565b0390a4016125ff565b015190505f8061270f565b90600385015f5260205f20915f5b601f198516811061284157509360018460049460809461273b98849c9b9a98601f1981161061282957505050811b016003850155611590565b01515f1960f88460031b161c191690555f808061165f565b919260206001819286850151815501940192016127f0565b600385015f5260205f20601f840160051c810160208510612896575b601f830160051c8201811061288b5750506126e8565b5f8155600101612875565b5080612875565b6128a8848883613dac565b61264d565b506001600160601b0384161515612648565b60405160208082528190610e999082018a612e64565b83356001600160401b0381116102d7576020916128f9839260243691870101612e1e565b815201930192612546565b346102d7575f3660031901126102d75760206001600160601b0360075416604051908152f35b346102d7575f3660031901126102d757602060405160c88152f35b346102d7575f3660031901126102d75760205f805160206148b483398151915254604051908152f35b346102d75760403660031901126102d757612987612cdc565b6024356129926146ad565b9161299c82613868565b6001600160a01b0393909190841680151580612a4c575b80612a2e575b612a16575083169282918491167f8c5be1e5ebec7d5bd14f71427d1e84f3dd0314c0f7b2291e5b200ac8c7c3b9255f80a45f9081525f805160206149348339815191526020526040902080546001600160a01b0319169091179055005b6024906040519063a9fbf51f60e01b82526004820152fd5b50612a3883613063565b815f5260205260ff60405f205416156129b9565b508085841614156129b3565b346102d75760203660031901126102d7576020610ebb60043561313c565b346102d7575f3660031901126102d7576040515f805160206148348339815191528054825f612aa483612edb565b92838352602094600191866001821691825f14611138575050600114612ad25750506110dd92500383612dcb565b8592505f525f80516020614974833981519152905f915b858310612b015750506110dd935082010185806110cf565b80548389018501528794508693909201918101612ae9565b346102d75760403660031901126102d757612b32612cdc565b6024356001600160601b038116908181036102d757612b4f6146ad565b6001600160a01b03165f8181527f994f78f736098f243dd364b03e182a283a65f39afeb5005183ecebe406584c5660205260409020547f6db4061a20ca83a3be756ee172bd37a029093ac5afe4ce968c6d5435b43cb01194919060ff1615612bd1575090612bbc916137c6565b6001600160601b031960075416176007555f80f35b604490856040519163e2517d3f60e01b835260048301526024820152fd5b346102d75760203660031901126102d7576004359063ffffffff60e01b82168092036102d757602091637965db0b60e01b8114908115612c31575b5015158152f35b63152a902d60e11b811491508115612c4b575b5083612c2a565b632b424ad760e21b811491508115612c65575b5083612c44565b632483248360e11b811491508115612c7f575b5083612c5e565b63780e9d6360e01b811491508115612c99575b5083612c78565b6380ac58cd60e01b811491508115612ccb575b8115612cba575b5083612c92565b6301ffc9a760e01b14905083612cb3565b635b5e139f60e01b81149150612cac565b600435906001600160a01b03821682036102d757565b608435906001600160a01b03821682036102d757565b602435906001600160a01b03821682036102d757565b60a435906001600160601b03821682036102d757565b5f5b838110612d455750505f910152565b8181015183820152602001612d36565b90602091612d6e81518092818552858086019101612d34565b601f01601f1916010190565b60a081019081106001600160401b03821117610bd757604052565b604081019081106001600160401b03821117610bd757604052565b602081019081106001600160401b03821117610bd757604052565b90601f801991011681019081106001600160401b03821117610bd757604052565b6001600160401b038111610bd75760051b60200190565b6001600160401b038111610bd757601f01601f191660200190565b81601f820112156102d757803590612e3582612e03565b92612e436040519485612dcb565b828452602083830101116102d757815f926020809301838601378301015290565b9081518082526020808093019301915f5b828110612e83575050505090565b835185529381019392810192600101612e75565b60609060031901126102d7576001600160a01b039060043582811681036102d7579160243590811681036102d7579060443590565b6024359081151582036102d757565b90600182811c92168015612f09575b6020831014612ef557565b634e487b7160e01b5f52602260045260245ffd5b91607f1691612eea565b604051905f8260025491612f2683612edb565b80835292602090600190818116908115612f9f5750600114612f53575b5050612f5192500383612dcb565b565b91509260025f525f805160206147d4833981519152935f925b828410612f875750612f519450505081016020015f80612f43565b85548885018301529485019487945092810192612f6c565b91505060209250612f5194915060ff191682840152151560051b8201015f80612f43565b9060405191825f8254612fd581612edb565b908184526020946001916001811690815f146130415750600114613003575b505050612f5192500383612dcb565b5f90815285812095935091905b818310613029575050612f5193508201015f8080612ff4565b85548884018501529485019487945091830191613010565b92505050612f5194925060ff191682840152151560051b8201015f8080612ff4565b6001600160a01b03165f9081527f80bb2b638cc20bc4d0a60d66940f3ab4a00c1d7b313497ca82fb0b4ab00793056020526040902090565b6001600160a01b03165f9081527f80bb2b638cc20bc4d0a60d66940f3ab4a00c1d7b313497ca82fb0b4ab00793036020526040902090565b5f805160206148b48339815191528054821015613113575f527fa42f15e5d656f8155fd7419d740a6073999f19cd6e061449ce4a257150545bf201905f90565b634e487b7160e01b5f52603260045260245ffd5b8054821015613113575f5260205f2001905f90565b61314581613868565b505f9081525f8051602061493483398151915260205260409020546001600160a01b031690565b9061317682612dec565b6131836040519182612dcb565b8281528092613194601f1991612dec565b0190602036910137565b5f19811461054d5760010190565b80518210156131135760209160051b010190565b5f805160206148b483398151915290815491600160401b831015610bd75782611e81916001612f51950190556130d3565b90815491600160401b831015610bd75782611e81916001612f5195018155613127565b6001600160a01b03828116939184156134d65761322f6146ad565b93835f52835f80516020614914833981519152602092818452604098868a5f2054169887811661346c575b5088158015938461344e575b61326f8461309b565b60018154019055855f5286528a5f20826001600160601b0360a01b82541617905584828b7fddf252ad1be2c89b69c2b068fc378daa952ba7f163c4a11628f55a4df523b3ef5f80a4156133ca575f805160206148b483398151915254845f525f8051602061489483398151915286528a5f20556132eb846131c0565b808914159182613375575b50508161336c575b81613364575b5061333c575b5050169283830361331b5750505050565b6064945051926364283d7b60e01b8452600484015260248301526044820152fd5b5f805160206148748339815191525f9282845283815283898120558851848152a35f8361330a565b90505f613304565b600191506132fe565b61338091945061357c565b5f19810190811161054d5787935f525f805160206148148339815191528552895f20815f528552838a5f2055835f525f805160206147f48339815191528552895f20555f806132f6565b8881146132eb576133da8961357c565b845f525f805160206147f4833981519152908187528b5f2054918b5f525f8051602061481483398151915288528c5f209282810361342c575b50865f5287525f8c8120555f5285525f8a8120556132eb565b825f528389528d805f20548091835f525f20555f528189528d5f20555f613413565b61345786614706565b6134608b61309b565b80545f19019055613266565b9091929361347b90828b614621565b1561348a57908793929161325a565b8988918a155f146134ad578151637e27328960e01b815260048101849052602490fd5b905163177e802f60e01b81526001600160a01b0390911660048201526024810191909152604490fd5b604051633250574960e11b81525f6004820152602490fd5b6004546001600160a01b03908116919082156135755760246020926040519485938492635eeba90160e11b84521660048301525afa5f9181613538575b5061353557505f90565b90565b9091506020813d60201161356d575b8161355460209383612dcb565b810103126102d7575180151581036102d757905f61352b565b3d9150613547565b5050505f90565b6001600160a01b03811615613598576135949061309b565b5490565b6040516322718ad960e21b81525f6004820152602490fd5b6004546001600160a01b039081169190821561357557602460a0926040519485938492627fa02d60e31b84521660048301525afa5f9181613641575b506135f657505f90565b600481101561362d5760038114613626576002811461361f5760011461361a575f90565b60c890565b506101f490565b506103e890565b634e487b7160e01b5f52602160045260245ffd5b90915060a0813d60a011613679575b8161365d60a09383612dcb565b810103126102d7576040015160048110156102d757905f6135ec565b3d9150613650565b5f525f60205260405f2054426001600160401b038260a01c1610156136a557505f90565b6001600160a01b031690565b6136b96146ad565b6001600160a01b03165f8181527fb7db2dd08fcb62d0c9e08c51941cae53c267786a0b75803fb7960902fc8ef97d602052604090205460ff16156136fa5750565b6044906040519063e2517d3f60e01b825260048201525f6024820152fd5b6137206146ad565b6001600160a01b03165f8181527f75442b0a96088b5456bc4ed01394c96a4feec0f883c9494257d76b96ab1c9b6b60205260409020547f65d7a28e3265b37a6474929f336521b332c1681b933f6cb9f3376673440d862a9060ff1615611c48575050565b61378c6146ad565b90805f525f805160206148d483398151915260205260405f209160018060a01b031691825f5260205260ff60405f20541615611c48575050565b906001600160601b0381169161271080841161384a57506001600160a01b03169182156138325760206040516137fb81612d95565b848152015260a01b6001600160a01b031916177fdaedc9ab023613a7caf35e703657e986ccfad7e3eb0af93a2853f8d65dd86b0055565b604051635b6cc80560e11b81525f6004820152602490fd5b8360449160405191636f483d0960e01b835260048301526024820152fd5b5f8181525f8051602061491483398151915260205260409020546001600160a01b0316908115611f10575090565b60ff5f805160206148f483398151915254166138ae57565b60405163d93c066560e01b8152600490fd5b9060408051926138cf84612db0565b5f84526001600160a01b0393818516938415613c1757805f525f805160206149148339815191529560209680885281865f2054169087821592831593849384613bf9575b61391c8a61309b565b60018154019055875f528c52895f20836001600160601b0360a01b8254161790558683837fddf252ad1be2c89b69c2b068fc378daa952ba7f163c4a11628f55a4df523b3ef5f80a415613b6f575f805160206148b483398151915254865f525f805160206148948339815191528c52895f2055613998866131c0565b141580613b1a575b81613b11575b81613b09575b50613ae2575b613acb576139be6146ad565b933b6139ce575b50505050505050565b90869794959691613a0d87519485938493630a85bd0160e11b988986521660048501525f60248501526044840152608060648401526084830190612d55565b03815f895af15f9181613a8b575b50613a5257505050613a2b614294565b8051939084613a4c578251633250574960e11b815260048101859052602490fd5b84925001fd5b9194506001600160e01b031990911603613a745750505f8080808080806139c5565b602492505190633250574960e11b82526004820152fd5b9091508681813d8311613ac4575b613aa38183612dcb565b810103126102d757516001600160e01b0319811681036102d757905f613a1b565b503d613a99565b84516339e3563760e11b81525f6004820152602490fd5b825f525f88525f868120555f835f805160206148748339815191528a8951848152a36139b2565b90505f6139ac565b600191506139a6565b9050613b258661357c565b5f1981019190821161054d578291895f525f805160206148148339815191528b52885f20815f528b5285895f2055855f525f805160206147f48339815191528b52885f20556139a0565b8082146139985788613b808261357c565b875f528c5f805160206147f48339815191528091528d81845f205491865f525f805160206148148339815191528152855f2095858403613bd7575b50505050885f528d525f8b8120555f528b525f89812055613998565b855f52868252805f20548091855f525f20555f52528c5f20555f818f8e613bbb565b613c0288614706565b613c0b8361309b565b80545f19019055613913565b8351633250574960e11b81525f6004820152602490fd5b919091805f526020907f0542a41881ee128a365a727b282c86fa859579490b9bb45aab8503648c8e7900825260405f208451946001600160401b038611610bd757613c798254612edb565b601f8111613d69575b508390601f8711600114613ce5579580917ff8e1a15aba9398e019f0b49df1a4fde98ee17ae345cb5f6b5e2c27f5033e8ce796975f92613cda575b50508160011b915f199060031b1c19161790555b604051908152a1565b015190505f80613cbd565b90601f19871691835f52855f20925f5b818110613d5257509160019391897ff8e1a15aba9398e019f0b49df1a4fde98ee17ae345cb5f6b5e2c27f5033e8ce7999a9410613d3a575b505050811b019055613cd1565b01515f1960f88460031b161c191690555f8080613d2d565b929387600181928786015181550195019301613cf5565b825f52845f20601f880160051c810191868910613da2575b601f0160051c01905b818110613d975750613c82565b5f8155600101613d8a565b9091508190613d81565b916001600160601b031690612710808311613e4c57506001600160a01b03908116928315613e2e5760405193613de185612d95565b8452602084019283525f527fdaedc9ab023613a7caf35e703657e986ccfad7e3eb0af93a2853f8d65dd86b0160205260405f20925116906001600160601b0360a01b905160a01b16179055565b60449060405190634b4f842960e11b825260048201525f6024820152fd5b83606491846040519263dfd1fc1b60e01b8452600484015260248301526044820152fd5b6001600160a01b039081165f8181527fb7db2dd08fcb62d0c9e08c51941cae53c267786a0b75803fb7960902fc8ef97d60205260409020549091905f805160206148d48339815191529060ff16613575575f805260205260405f20825f5260205260405f20600160ff19825416179055613ee86146ad565b16905f7f2f8788117e7eff1d82e926ec794901d17c78024a50270940304540a733656f0d8180a4600190565b6001600160a01b039081165f8181527f549fe2656c81d2947b3b913f0a53b9ea86c71e049f3a1b8aa23c09a8a05cb8d460205260409020547f9f2df0fed2c77648de5860a4cc508cd0818c85b8b8a1ab4ceeef8d981c8956a692905f805160206148d48339815191529060ff16613fd757835f5260205260405f20825f5260205260405f20600160ff19825416179055613fac6146ad565b16917f2f8788117e7eff1d82e926ec794901d17c78024a50270940304540a733656f0d5f80a4600190565b505050505f90565b6001600160a01b039081165f8181527f75442b0a96088b5456bc4ed01394c96a4feec0f883c9494257d76b96ab1c9b6b60205260409020547f65d7a28e3265b37a6474929f336521b332c1681b933f6cb9f3376673440d862a92905f805160206148d48339815191529060ff16613fd757835f5260205260405f20825f5260205260405f20600160ff19825416179055613fac6146ad565b6001600160a01b039081165f8181527fab71e3f32666744d246edff3f96e4bdafee2e9867098cdd118a979a7464786a860205260409020547f189ab7a9244df0848122154315af71fe140f3db0fe014031783b0946b8c9d2e392905f805160206148d48339815191529060ff16613fd757835f5260205260405f20825f5260205260405f20600160ff19825416179055613fac6146ad565b6001600160a01b039081165f8181527f994f78f736098f243dd364b03e182a283a65f39afeb5005183ecebe406584c5660205260409020547f6db4061a20ca83a3be756ee172bd37a029093ac5afe4ce968c6d5435b43cb01192905f805160206148d48339815191529060ff16613fd757835f5260205260405f20825f5260205260405f20600160ff19825416179055613fac6146ad565b5f8181525f805160206148d4833981519152602081815260408084206001600160a01b039687168086529252909220549293919260ff16613fd757835f5260205260405f20825f5260205260405f20600160ff19825416179055613fac6146ad565b5f8181525f805160206148d4833981519152602081815260408084206001600160a01b039687168086529252909220549293919260ff1615613fd757835f5260205260405f20825f5260205260405f2060ff1981541690556142696146ad565b16917ff6391f5c32d9c69d2a47ea670b442974b53935d1edc7fd64eb21e047a839171b5f80a4600190565b3d156142be573d906142a582612e03565b916142b36040519384612dcb565b82523d5f602084013e565b606090565b9291803b6142d3575b5050505050565b604051630a85bd0160e11b8082526001600160a01b03958616600483015292851660248201526044810193909352608060648401529092169260209082908190614321906084830190612d55565b03815f875af15f9181614398575b50614366578261433d614294565b805191908261435f57604051633250574960e11b815260048101839052602490fd5b6020915001fd5b6001600160e01b0319160361438057505f808080806142cc565b60249060405190633250574960e11b82526004820152fd5b9091506020813d6020116143d5575b816143b460209383612dcb565b810103126102d757516001600160e01b0319811681036102d757905f61432f565b3d91506143a7565b6020612f519193929360405194816143fe8793518092868087019101612d34565b820161441282518093868085019101612d34565b01038085520183612dcb565b61442781613868565b50805f527f0542a41881ee128a365a727b282c86fa859579490b9bb45aab8503648c8e790060205261445b60405f20612fc3565b614463612f13565b80511561461b57815161461157505061447b81613868565b50614484612f13565b8051909190156145fd575f90807a184f03e93ff9f4daa797ed6e38ed64bf6a1f01000000000000000081818110156145ef575b50506d04ee2d6d415b85acef8100000000808310156145e0575b50662386f26fc10000808310156145d1575b506305f5e100808310156145c2575b50612710808310156145b3575b5060648210156145a3575b600a80921015614599575b600190816021600186019561452987612e03565b966145376040519889612dcb565b808852614546601f1991612e03565b01366020890137860101905b614564575b50505050613535916143dd565b5f19019083906f181899199a1a9b1b9c1cb0b131b232b360811b8282061a83530491821561459457919082614552565b614557565b9160010191614515565b919060646002910491019161450a565b6004919392049101915f6144ff565b6008919392049101915f6144f2565b6010919392049101915f6144e3565b6020919392049101915f6144d1565b604094500491505f806144b7565b505060405161460b81612db0565b5f815290565b61353592506143dd565b50905090565b6001600160a01b03918216801515939192909184614641575b5050505090565b9091839450828194161493841561468d575b508315614667575b5050505f80808061463a565b909192505f525f8051602061493483398151915260205260405f205416145f808061465b565b614698919450613063565b825f5260205260ff60405f205416925f614653565b6014361015806146d4575b156146d05760131936013681116102d7573560601c90565b3390565b50337f00000000000000000000000000000000000000000000000000000000000000006001600160a01b0316146146b8565b5f525f8051602061493483398151915260205260405f206001600160601b0360a01b8154169055565b60ff7ff0c57e16840df040f15088dc2f81fe391c3923bec73e23a9662efc9c229c6a005460401c161561475e57565b604051631afcd79f60e31b8152600490fd5b90614797575080511561478557602081519101fd5b60405163d6bda27560e01b8152600490fd5b815115806147ca575b6147a8575090565b604051639996b31560e01b81526001600160a01b039091166004820152602490fd5b50803b156147a056fe405787fa12a823e0f2b7631cc41b3ba8828b3321ca811111fa75cd3aa3bb5ace645e039705490088daad89bae25049a34f4a9072d398537b1ab2425f24cbed01645e039705490088daad89bae25049a34f4a9072d398537b1ab2425f24cbed0080bb2b638cc20bc4d0a60d66940f3ab4a00c1d7b313497ca82fb0b4ab0079300f4bad0a69248f59680a4f2b3000328cec71a413447c96781cfe5996daa8c456e4e06b4e7000e659094299b3533b47b6aa8ad048e95e872d23d1f4ee55af89cfe645e039705490088daad89bae25049a34f4a9072d398537b1ab2425f24cbed03645e039705490088daad89bae25049a34f4a9072d398537b1ab2425f24cbed0202dd7bc7dec4dceedda775e58dd541e08a116c6c53815c0bd028192f7b626800cd5ed15c6e187e77e9aee88184c21f4f2182ab5827cb3b7e07fbedcd63f0330080bb2b638cc20bc4d0a60d66940f3ab4a00c1d7b313497ca82fb0b4ab007930280bb2b638cc20bc4d0a60d66940f3ab4a00c1d7b313497ca82fb0b4ab007930480bb2b638cc20bc4d0a60d66940f3ab4a00c1d7b313497ca82fb0b4ab007930137c58c799b6609234b945e882912ee9ad34948a1dfaa20a97485e1a7752bbf81a2646970667358221220a2fd810fee0578a38cd1d7cc537cc2f8a06146ed6d90751da801a80984e31c6b64736f6c63430008180033",
  "linkReferences": {},
  "deployedLinkReferences": {}
}